:020000040808EA
:100000000000080810590808000006000A00050151
:0800100004027E05000000005F
:04001800E44E0808A2
:1000200009480A4908B5884205D0094A824202D0E7
:10003000121A04F085FA0748074A0021121A04F040
:100040008AFA064808BD00BF00000020845708084F
:1000500064010020640100205008002050080020A6
:1000600070B503F01BF8074B074C1E46E41AA408B2
:100070000025A54204D056F8253098470135F8E709
:1000800070BD00BF445708088057080800F0C8BC7E
:1000900008B500F0D5FEBDE8084002F0C1BF01F090
:1000A0008FBD01F095BD0078B0FA80F0400970472F
:1000B00001230370704701F047BB0000014B002291
:1000C0001A707047D0010020014B01221A7070474E
:1000D0009901002003681847012A02D0022A02D0A1
:1000E00004E0016002E00B6800B10360002070478B
:1000F00008B5044902F029FD18B1034B05221A7016
:10010000012008BD345208088401002008B50449C4
:1001100002F01BFD18B1034801F058F9012008BD99
:100120003452080820020020436913B183690C305F
:100130001847704710B50446024B036001F00EF9F2
:10014000204610BD144F080810B50446FFF7F2FF13
:100150002046102103F0D1F8204610BD13B5044607
:100160000021084601F078FA02A90023204641F850
:10017000043D01F089FA019C0CB101232371002197
:10018000012001F069FA2CB1236820469B6898474A
:100190000023237102B010BD38B50949054602F0AD
:1001A000D4FC044618B1074B0120187038BD06492D
:1001B000284602F0CAFC10B1024B01201C7038BD69
:1001C00034520808D0010020284F080808B5054916
:1001D00002F0BBFC20B10420012102F0C0FF01208D
:1001E00008BD00BF3452080808B5002001F088FCA3
:1001F00028B101F05DFC80F00100C0B208BD012013
:1002000008BD37B505469DF8184023438DF80030EA
:100210003C2301F0DDFF284603B030BD002211462B
:10022000406801F095BC10B58368044613B1032201
:1002300001469847204610BD002001F07DBA07B561
:100240008068002340B18DE80A001A46022101F0BF
:1002500023FAB0FA80F0400903B05DF804FB000017
:1002600038B50F4B0446036083689BB16FF00041C3
:10027000FFF7E5FF0021A06801F01EFA237903F0E3
:10028000FF0513B101F0E0F9F8E72946A06801F095
:10029000F3F9A56004F10C00FFF7C5FF204638BD57
:1002A000004F080810B50446FFF7DAFF20461C216E
:1002B00003F023F8204610BD30B58FB0104904A8D4
:1002C00001F02AFD04A801F07AFD044604A801F01B
:1002D000D5FD054604A801F0B9FD03F0BFFACDE94C
:1002E0000201284603F0BAFACDE90001054B064A9F
:1002F00053F824304021054801F082FC0FB030BD96
:1003000030020020840000202A4F0808D10100207C
:1003100008B50A2002F04FFF03F08EFA14A3D3E9C8
:10032000002303F0EFFA03F027FD4FF0665103F0CE
:1003300081FE03F093FA00220F4B03F02FF9002205
:100340000E4B03F0DFFA03F0EFFC03F075FA002226
:100350000B4B03F0D7FA00220A4B03F0FDFB0022FF
:10036000094B03F01DF903F0DFFC084B186008BDD2
:100370006666666666660A400000E03F0000594017
:100380000000224000001440000040409401002082
:10039000074B1B68D3F8A820B3F8AC101183D3F82F
:1003A000A820B3F8AC305383024B00221A70704778
:1003B000A8010020990100202DE9F8432D4D284681
:1003C000FFF72CFF044628BB034602460146686837
:1003D00001F0C6FB234622462146686801F0A0FBD7
:1003E000FFF72AFF0446244E00250027FFF724FFCD
:1003F000001B61EB05018F4208BF864206D31D48F2
:10040000FFF70CFF10B901F03BFBEFE71948FFF7CE
:1004100005FFF8B101F078F9184C47F22F58206029
:1004200001F02EFB01F034FBFFF706FF25460646E0
:1004300000274FF00009FFF7FFFE801B61EB07016B
:10044000894508BF804507D301F032FB20B901F090
:1004500017FBF0E7002409E001F02AFB044600281E
:10046000F8D001F051F9286001F00AFB2046BDE800
:10047000F88300BF300200208F5F01001C070020BE
:1004800008B501F015FB80F00100C0B208BD000006
:10049000F8B501F005FBFFF7CFFE42F20F760446F8
:1004A00000250027FFF7C8FE001B61EB05018F4206
:1004B00008BF864205D3FFF7E3FF10B901F0E0FA69
:1004C000F0E70A4CFFF7DCFF00220221606801F030
:1004D00037FB40F6B83001F0B7FB002360681A46DE
:1004E000194601F045FB0120F8BD00BF3002002095
:1004F00008B5044802F005FA80F00400C0F380005B
:1005000008BD00BF6801002008B501F0FDF8B0F596
:100510007A7F34BF0020012008BD08B5FFF7F4FF43
:1005200018B1BDE80840FFF7EFBF01F0A9FAF5E701
:1005300008B501F0E9F8034B1B6883428CBF00202B
:10054000012008BD7800002037B501F0A9FA01F0BC
:10055000DBF843F69725044601F0AAFA40B101F012
:10056000D3F8001BA84203D8642001F06DFBF3E729
:100570000021094B47F23052084601F05DF84FF474
:100580007A7001F061FB054B0A221B680121684665
:1005900002F00EFB03B030BD434F08089C01002061
:1005A00038B5046805467CB16368013B63605BB99C
:1005B000236820469B689847A368013BA3601BB94A
:1005C00023682046DB689847284638BD10B5A4B09C
:1005D00000217C2205A8049103F0BDFF184B1C7874
:1005E000E00703D5174904A803F0E6FFA10703D5E8
:1005F000154904A803F0E0FF620703D5134904A8D6
:1006000003F0DAFF230603D5114904A803F0D4FF51
:10061000FFF783FF01F04CFA78B10E4B1B7863B102
:100620000D4B00221B7802A88DF800200B4904AA6C
:10063000FFF7E7FD03A8FFF7B3FF24B010BD00BF2D
:1006400071010020504F0808614F08086E4F0808DC
:10065000794F0808AC01002070010020884F08087D
:1006600000B51A4A1A4B1268C9B01B780492194A8D
:100670004FF48071126808A80392174A1268029218
:10068000164A12680192164A12680092154A01F041
:10069000B7FAFFF742FF144B00221B7813498DF87D
:1006A000002006A808AAFFF7ACFD07A8FFF778FF0F
:1006B00001F02AF80E4B186002F006FB0D4B0122E8
:1006C00018700D4B1A7049B05DF804FB90010020C2
:1006D00071010020940100208C010020880100207D
:1006E000800100208F4F080870010020E54F0808A6
:1006F0006C010020980100201C02002010B586B07B
:1007000008460A2203A904F04BF8012804460AD13E
:100710000E4B1870FFF701FF0D4B00221B788DF870
:1007200000200C4A09E078B9084B1870FFF7F5FE75
:10073000074B094A1B788DF8004004A80749FFF7CA
:1007400060FD05A8FFF72CFF06B010BDD00100200A
:1007500070010020F64F08080E50080807500808DE
:1007600030B5154C154922780E2303FB0212144DA7
:100770008FB02878009203FB0013124A282104A8A6
:1007800001F03EFA23782B7001F092F988B12378BA
:10079000022B0ED0FFF7C1FE0B4B00221B7802A8E4
:1007A0008DF80020094904AAFFF72BFD03A8FFF7E5
:1007B000F7FE0FB030BD00BF840100200400002010
:1007C0007D01002020500808700100202E500808EC
:1007D0000023022201F044B90246014801F0D0BBD7
:1007E000551F080838B5144603689D680123A847BB
:1007F000204638BD30B5254985B0044602F0A5F93C
:100800000546D8B1224D0124224B2A4621462248D2
:100810001C70FFF7E7FF2B782A4643F008032B7084
:10082000214623461C4800F05EFEFFF776FE1B4B78
:1008300000221B788DF80020194A1DE01949204636
:1008400002F083F900B3124C124B224601211248E8
:100850001D70FFF7C7FF2378224623F0080323709B
:10086000012319460C4800F03EFEFFF756FE0B4BE5
:100870000D4A1B788DF800500C4902A8FFF7C1FC07
:1008800003A8FFF78DFE012005B030BD34520808E3
:100890001D020020AC010020200200207001002079
:1008A0003F500808284F08085050080860500808B2
:1008B00038B5144603689D680423A847204638BD10
:1008C00038B514460368DD680423A847204638BDC0
:1008D0001FB50C4639B9FFF720FE1C4B1C4A1B788C
:1008E0008DF8004029E0084603F01AFDC8380128B9
:1008F0001DD8FFF712FE174B1B7863B1134B002274
:100900001B7802A88DF800201349144AFFF779FCE0
:1009100003A8FFF745FE02F0CFF902AA02900921D1
:100920000F48FFF7CDFF0F4B00221A700CE0074B6A
:1009300000221B788DF80020224602A80A49FFF702
:1009400060FC03A8FFF72CFE04B010BD700100206E
:1009500065500808AC0100208C5008087A5008083F
:10096000200200201C0200206D500808F0B5254D23
:1009700085B02A4601212448FFF734FFFFF7CDFD5B
:10098000224B00241B78224A224902A88DF80040FD
:10099000FFF737FC03A8FFF703FE1F4B02AA1C70EA
:1009A0002B78032123F008032B701C4B16481C6086
:1009B0000294FFF785FF01F07BF810B1204601F0AB
:1009C00097F8FFF739FC47F22F5604460025002719
:1009D000FFF732FC001B61EB05018F4208BF864226
:1009E00005D3FFF701FC10B901F04AF8F0E7FFF773
:1009F000FBFB0123034A1946034800F074FD05B0D0
:100A0000F0BD00BF1D020020200200207001002068
:100A1000925008089A500808AC0100208801002074
:100A200010B50121A8B00E2002F088FB00210C2097
:100A300002F084FB0021192002F080FB00211B2022
:100A400002F07CFB0021112002F078FB0021052040
:100A500002F074FB0121072002F070FB01211D2030
:100A600002F06CFB01211D2002F079FB0121062020
:100A700002F064FB0121042002F060FB04A80024C2
:100A800001F01EF800237D2208A904A802F06FF8E7
:100A9000234622465C490194009408A801F020F8FE
:100AA00023460194009422465849594801F018F809
:100AB000584B1B7818B18DF80040574A02E0574A4E
:100AC0008DF80000564902A8FFF79BFB03A8FFF72B
:100AD00067FD544B02A91B78534C54480293FFF70F
:100AE00077FE002304225249524800F0B9FF214604
:100AF0005148FFF76DFE51495148FFF769FE5149D2
:100B0000002304220968504800F0AAFF4F495048CA
:100B1000FFF75EFE4F495048FFF75AFE4F495048D5
:100B2000FFF756FE4F495048FFF756FE4F495048D1
:100B3000FFF752FE4F495048FFF74EFE4F495048CD
:100B4000FFF74AFE4F495048FFF746FE4F495048CD
:100B5000FFF742FE00F09CFF4E4800F02DFC2246BD
:100B600002214C48FFF7A4FE0022114602A802927F
:100B700000F0BAFD029B142B07D1236822460133F3
:100B8000022144482360FFF79BFE434C012122468B
:100B90004048FFF727FE2378404AC3F3C003137091
:100BA00003212E4A3B48FFF783FE23789B0704D599
:100BB0003B4A05213748FFF77BFE3A4801F0D6FC57
:100BC00003F088FB214B1860374B1B68984201DD0E
:100BD000FFF7F2FB0023009301224FF0FF3333496C
:100BE000112001F05BFD6FF000413148FFF727FB5A
:100BF000304B04A81A78012A1CBF02221A7001F097
:100C000030FF28B010BD00BFD1080808FD06080855
:100C1000A850080870010020D3500808EF500808B9
:100C2000E85008087101002090010020884F080852
:100C3000D1010020085108080F5108089401002034
:100C40001A51080874000020265108088C01002061
:100C50002E51080880010020395108088801002021
:100C6000425108080D0108084E510808990108086A
:100C7000C7500808C511080859510808CD010808CF
:100C800066510808F100080871510808F5070808BE
:100C90007A510808200200201D020020AC0100202B
:100CA000B0010020740100207C000020C900080869
:100CB000B4010020840100202DE9F043524A85B0A0
:100CC000524C01215248534FFFF78CFD00235248EC
:100CD0002678D7F800902370FFF7A0FA08B1FFF745
:100CE000EBFAFFF715FB4D4801F040FC03F0F2FA78
:100CF0004B4BDFF8148118604A4B1B68D3F8BC22B9
:100D0000B3F8C0121269114202BF227842F0010208
:100D10002270D3F8F422B3F8F8321269134202BFFA
:100D2000237843F0020323703F4B1D78002D32D00F
:100D300023780C2043F00403237002F03CFA3B4B71
:100D400040F6FF721860202300930023194600F03C
:100D50006FFF09F101039842386006DC09F1FF33A7
:100D60009842ACBF0025012500E0012598F800302D
:100D70009B0738D401F0A0FF2D4A052110602448BC
:100D8000FFF79EFD204B04AA1B78012143F00203CC
:100D900042F8043D21E098F8003003F0020202F02E
:100DA000FF00F2B104AA83F0020342F8043D0121DE
:100DB0001748FFF785FD01F07FFF1D4B1D4F196898
:100DC00003F0C0FA00221C4B02F0C6FE02F0ACFF9A
:100DD0003A463B680321184438600D48FFF770FD20
:100DE00001E005463860FFF783FB18B1237863F014
:100DF0007F0323702378B34200D115B10F4B052236
:100E00001A7005B0BDE8F0831D02002071010020BA
:100E10002002002080010020300200207401002008
:100E20008C010020A8010020D00100201802002021
:100E3000B00100208801002000004E408401002005
:100E400070B5984C86B02378013B052B00F2AE813B
:100E5000DFE813F0CA00060036004D0073008F0073
:100E6000914B1B780BB1FFF793FA904B1B7833B182
:100E70008F4B22781B789A4201D0FFF771FCFFF765
:100E800057FB08B1FFF718FF01F01EFF894B1B78D5
:100E900098421CBF05232370874B1A68874B1B6839
:100EA0009A42DCBF04232370854B1B78002B40F053
:100EB00049810E2002F06CF9002840F0438175E171
:100EC0007A4B1B782BB17A4B1B78032B01D0FFF7A1
:100ED00047FC7B4B1A781E46002A00F035810E2015
:100EE00002F056F90546002800F044812CE16F4BD2
:100EF0001B782BB16E4B1B78042B01D0FFF730FC15
:100F000000F0D6FD08B1FFF7C3FA6E4B002421466E
:100F100007201C7002F023F921461D2002F01FF962
:100F200001F0DCFE684BC0F13C003C2242431B68F0
:100F3000012104A801F03CFE38E15C4B1B782BB189
:100F40005B4B1B78052B01D0FFF70AFC00F0B0FDCE
:100F500068B15E4B1B780BB1FFF738FBFFF780FBE6
:100F600001F0B2FE08B9FFF701FD06231DE10123E0
:100F70001BE14E4B1A781D462AB14D4B1B78062BB0
:100F800001D0FFF7EDFB524B1E786EB902232370A0
:100F9000FFF7C3FA2B78002B00F008814D4B4E4A27
:100FA0001B788DF8006017E000F0AEFB4B4B1B6820
:100FB000C01A4B4B1B689842C0F0F88000F0A4FBAD
:100FC000484B186001232370FFF7A7FA414B00221A
:100FD0001B788DF80020444A04A84449FFF711F912
:100FE00005A8FFF7DDFAE1E0304B1B782BB1304B61
:100FF0001B78012B01D0FFF7B3FB03AA09213C4862
:10100000FFF756FC00F080FB364B1B68C01A394BCB
:101010001B689842C0F0CA80374B1B68032B18DC52
:10102000FFF77BFA00F044FD60B12A4B00221B78E9
:1010300004A88DF800202D49304AFFF7E2F805A8F2
:10104000FFF7AEFA4FF4FA6000F0FEFD01F0ACFDE0
:10105000ACE001F031FE039BC01AB0F5E15F51D95D
:10106000FFF75BFA00F024FD60B11A4B00221B78F9
:1010700004A88DF800201D49214AFFF7C2F805A8F1
:10108000FFF78EFA4FF4FA6000F0DEFD002304AAA9
:10109000022117480493FFF713FC0121042002F0FA
:1010A0005EF883E08401002099010020AC0100205B
:1010B0007D010020980100208C0100207C00002090
:1010C000D00100207C0100209C0100207101002043
:1010D0001C02002070010020875108086C010020CC
:1010E00080000020140200208C5108088C50080851
:1010F000200200200000002090010020A3510808D9
:10110000B7510808FFF709FA00F0D2FC60B1284B8C
:1011100000221B7804A88DF800202649264AFFF7F4
:1011200070F805A8FFF73CFA4FF4FA6000F08CFD68
:10113000002304AA022121480493FFF7C1FBFFF713
:1011400003FA33E0032330E035787DBB0E2002F054
:101150001FF858B329460E2002F001F8294607204F
:1011600001F0FDFFFFF7A8FD6FF000411448FFF705
:1011700066F819E001210E20114E01F0F0FF012167
:10118000072001F0ECFFFFF797FD29463046FFF7F7
:1011900056F8B06840B16FF00043009301952B46BC
:1011A0002A46294600F078FA0523237006B070BD60
:1011B000700100208C500808D1510808200200203E
:1011C000B401002037B50F4901F0BFFC0024B0B1D5
:1011D00002AD45F8044D2A4602210B48FFF770FB8B
:1011E0000A4B2A461C600A4B03211C70094B064817
:1011F0001C600194FFF764FB074B01201C7003B0D7
:1012000030BD00BF345208082002002090010020A9
:101210001C02002088010020710100202DE9F0410E
:101220003A4B00241C603A4B88B001271F7000F035
:101230008BFA4FF6FF72374B374D1860374B3846F5
:101240001C705C809A8000F0BFFB2146384600F09D
:10125000D3FB3946042000F037FADFF8FC80214642
:10126000284601F043F928462D4D42462D4902F00B
:101270003FF82146284601F0FCFA42462A49284612
:1012800002F036F801F0AEFF284D234601464FF438
:101290000052284600F086F8254B4246254928464C
:1012A0002B6002F025F8244B02AA049304AE234DD0
:1012B00096E80300224B82E803002B6005F10C0343
:1012C00093E8030086E8030092E8030083E8030044
:1012D0001C4B2C716B61AB69AC6007931A4B1B4ABA
:1012E000AB611B492B460194009705F10800069459
:1012F00000F0BAF93046FEF796FF424615492846F7
:1013000001F0F6FF08B0BDE8F08100BF9C010020AD
:1013100070010020A801002074010020A00100201D
:10132000680100200B2508089128080820020020E9
:10133000144F080835010808BD000808B401002052
:10134000004F0808D9000808D50008085D01080802
:1013500080EE36006102080864010020704710B575
:101360000446102101F0C9FF204610BD0368C9B230
:101370009B6818470EB400B58CB00DAA52F8041B38
:1013800020238DE80600039204930168002304AA39
:101390001E20059300F008FB0CB05DF804EB03B0D1
:1013A0007047000030B5034D416005608260C36046
:1013B00030BD00BFC0520808406801F039B910B50F
:1013C0000446006801F060F9204610BD2DE9F041A7
:1013D000074640688AB0019001F04DF91E220021B5
:1013E00002A8BE6803F0B7F80025DEB1B0463B683E
:1013F0001E2E28BF4FF01E08DC6802AA434629466D
:101400003846A047044648B92A460A490A48FFF721
:10141000B1FF01A8FFF7D3FF204607E0C8EB06069F
:101420004544E2E701A8FFF7CAFF01200AB0BDE882
:10143000F08100BF3B520808600200202DE9F3470D
:10144000044640680E4617469846019001F013F98D
:10145000B8F1000F01D101243EE0E168606841F07D
:10146000500101F0FDF8310A6068FFF77FFF314657
:101470006068FFF77BFF0021606801F0F4F808B1B5
:10148000002429E0C146B8F1200FE16828BF4FF0E1
:10149000200901234A4641F05001606801F0D7F865
:1014A00001F0A0FE03681B6998478145E8DC3D46D2
:1014B000C7EB060A01F096FE03685B69984705F8DA
:1014C000010BEA1BC5EB0803914505EB0A063B44FB
:1014D000F0D898462F46BBE701A8FFF770FF2046DB
:1014E00002B0BDE8F0872DE9F347044640680D4699
:1014F00090461F46019001F0BEF84FB3E168606866
:1015000041F0500101F0ACF8290A6068FFF72EFFA6
:1015100029466068FFF72AFF464608F11E09C8EB16
:10152000050A606816F8011B036806EB0A059B684C
:101530009847B145B04607F1FF3701D0002FF0D1F1
:101540000121606801F08FF80028D6D0002400E067
:10155000012401A8FFF733FF204602B0BDE8F08761
:101560002DE9F0430E461546804640688BB01C4678
:10157000019001F080F8AE4223D2264425440CB9F4
:1015800001243FE027461E2C28BF1E27D8F8003034
:10159000F61BD3F8089002AA3B4631464046ED1BA5
:1015A000C84708B900242DE0D8F8003002AAD3F8C3
:1015B0000C9029463B464046C8470028F2D0E41B21
:1015C000DDE7DDD9002CDBD027461E2CD8F8003013
:1015D00028BF1E27D3F8089002AA3B463146404652
:1015E000C8470028DED0D8F8003002AAD3F80C9003
:1015F00029463B464046C8470028D3D03E443D4498
:10160000E41BDFE701A8FFF7DAFE20460BB0BDE8D8
:10161000F08300F099B8000008B5024B1B68DB6B43
:10162000019308BD2000060808B5024B1B685B6CDF
:10163000019308BD2000060808B5024B1B689B6C8F
:10164000019308BD2000060808B5024B1B68DB6843
:10165000019308BDD001040808B5024B1B68DB6983
:10166000019308BDD001040808B5024B1B681B6A32
:10167000019308BDD001040808B5024B1B685B6AE2
:10168000019308BDD001040808B5024B1B689B6A92
:10169000019308BDD001040808B5024B1B68DB6A42
:1016A000019308BDD001040808B5024B1B681B6BF1
:1016B000019308BDD001040808B5024B1B681B6FDD
:1016C000019308BDD001040808B5024B1B685B6E8E
:1016D000019308BDB801040808B5024B1B689B6E56
:1016E000019308BDB801040808B5024B1B68DB6E06
:1016F000019308BDB801040808B5024B1B685B687C
:10170000019308BD9C01040808B5024B1B685B6986
:10171000019308BD9C01040808B5024B1B68DB69F6
:10172000019308BD9C01040808B5024B1B689B6D22
:10173000019308BD9C01040808B5024B1B68DB6DD2
:10174000019308BD9C01040808B5024B1B681B6887
:10175000019308BDB001040808B5024B1B685B6823
:10176000019308BDB001040808B5024B1B689B68D3
:10177000019308BDB001040808B5024B1B68DB6883
:10178000019308BDB001040808B5024B1B681B6932
:10179000019308BDB001040808B5024B1B685B69E2
:1017A000019308BDB001040808B5024B1B689B6992
:1017B000019308BDB001040808B5024B1B68DB6942
:1017C000019308BDB001040808B5024B1B681B6BF0
:1017D000019308BDB001040808B5024B1B68DB6823
:1017E000019308BDAC01040808B5024B1B685B6996
:1017F000019308BDAC01040808B5024B1B689B6946
:10180000019308BDAC01040808B5024B1B68DB69F5
:10181000019308BDAC01040808B5024B1B681B6AA4
:10182000019308BDAC01040808B5024B1B685B6A54
:10183000019308BDAC01040808B5024B1B689B6A04
:10184000019308BDAC01040808B5024B1B68DB6AB4
:10185000019308BDAC01040808B5024B1B681B6B63
:10186000019308BDAC01040808B5024B1B685B6B13
:10187000019308BDAC01040808B5024B1B681B6C42
:10188000019308BDAC01040808B5024B1B689B6CB2
:10189000019308BDAC01040808B5024B1B68DB6C62
:1018A000019308BDAC01040808B5024B1B68DB6955
:1018B000019308BDB401040808B5024B1B681B6AFC
:1018C000019308BDB401040808B5024B1B689B696D
:1018D000019308BDC401040808B5024B1B685B6A8C
:1018E000019308BDC401040808B5024B1B689B6A3C
:1018F000019308BDC401040808B5024B1B68DB6AEC
:10190000019308BDC401040808B5024B1B681B6B9A
:10191000019308BDC401040808B5024B1B685B6B4A
:10192000019308BDC401040808B5024B1B689B6BFA
:10193000019308BDC401040808B5024B1B681B6C69
:10194000019308BDC401040808B5024B1B681B685D
:10195000019308BD1C00060808B5024B1B681B69F3
:10196000019308BD1C00060808B5024B1B685B69A3
:10197000019308BD1C00060808B5024B1B689B6953
:10198000019308BD1C00060808B5024B1B68DB6903
:10199000019308BD1C00060808B5024B1B681B6AB2
:1019A000019308BD1C00060808B5024B1B685B6D5F
:1019B000019308BDA001020808B5024B1B681B6813
:1019C000019308BDA401040808B5024B1B685B68BD
:1019D000019308BDA401040808B5024B1B685B69AC
:1019E000019308BDA401040808B5024B1B689B695C
:1019F000019308BDA401040808B5024B1B68DB6A0B
:101A0000019308BDA401040808B5024B1B68DB6CF8
:101A1000019308BDA401040808B5024B1B685B6D67
:101A2000019308BDA401040808B5024B1B689B6D17
:101A3000019308BDA401040808B5034B1B68D3F843
:101A40009030019308BD0000A401040808B5034BC1
:101A50001B68D3F89C30019308BD0000A401040862
:101A600008B5024B1B681B68019308BDCC01040834
:101A700008B5024B1B685B68019308BDCC010408E4
:101A800008B5024B1B689B68019308BDCC01040894
:101A900008B5024B1B68DB68019308BDCC01040844
:101AA00008B5024B1B681B69019308BDCC010408F3
:101AB00008B5024B1B685B69019308BDCC010408A3
:101AC00008B5024B1B68DB69019308BDCC01040813
:101AD00008B5024B1B681B6A019308BDCC010408C2
:101AE00008B5024B1B685B6A019308BDCC01040872
:101AF00008B5024B1B68DB6A019308BDCC010408E2
:101B000008B5024B1B681B6B019308BDCC01040890
:101B100008B5024B1B68DB6B019308BDCC010408C0
:101B200008B5024B1B685B68019308BDC801040837
:101B300008B5024B1B689B68019308BDC8010408E7
:101B400008B5024B1B68DB68019308BDC801040897
:101B500008B5024B1B681B69019308BDC801040846
:101B600008B5024B1B685B69019308BDC8010408F6
:101B700008B5024B1B689B69019308BDC8010408A6
:101B800008B5024B1B68DB69019308BDC801040856
:101B900008B5024B1B681B6A019308BDC801040805
:101BA00008B5024B1B681B6B019308BDC8010408F4
:101BB00008B5024B1B685B6B019308BDC8010408A4
:101BC00008B5024B1B681B68019308BDA0010408FF
:101BD00008B5024B1B685B68019308BDA0010408AF
:101BE00008B5024B1B689B68019308BDA00104085F
:101BF00008B5024B1B689B69019308BDA00104084E
:101C000008B5024B1B68DB69019308BDA0010408FD
:101C100008B5024B1B68DB6A019308BDA0010408EC
:101C200008B5024B1B681B6B019308BDA00104089B
:101C30008A4230B507D0039D441AED1A6C43521AFC
:101C400094FBF2F4E01830BD0021FFF7C5BE10B5DB
:101C5000836804460BB901F052FBC3689847A36838
:101C60001BB103222146204698472046BDE810407C
:101C7000102101F042BB2DE9FF41002604AC0546CE
:101C800010468846174644F8046D02F0D2FC0096D0
:101C900081B2D8F8043022463846FFF7BDFC20B1A7
:101CA0003146284600F054FD03E02146284600F066
:101CB00047FD284604B0BDE8F08100221146406887
:101CC000FFF766BF002211464068FFF771BF002290
:101CD0004068FFF765BF002281F001014068FFF70F
:101CE0004FBF00231A4619464068FFF741BF002343
:101CF0001A4619464068FFF733BF00221146406874
:101D0000FFF716BF002202214068FFF719BF00232A
:101D10001A464068FFF704BFF0B50F461A4B00257E
:101D200003601826283389B043608560C560324659
:101D300029460446103002F00EFC2A4629467868EF
:101D4000FFF706FF08B9A0601BE02946324602A84B
:101D50000095019502F0FFFB02A96846ADF8086006
:101D6000FFF762FC10B10123A3600AE0009B019A17
:101D7000A360E2600BB90223A36002A9204600F031
:101D800095F8204609B0F0BD1053080838B5084C46
:101D900028252A460021204602F0DDFB4FF0FF33C4
:101DA0006360044B04225A60034A25801A6038BDE0
:101DB0003802002030020020DC5208087047007D05
:101DC0007047000008B5037D1BB18069B0F1004F7A
:101DD00001D1002008BD02F0D9F8024902F0DEF975
:101DE00008BD00BF0000C84208B5037D1BB1006AF2
:101DF000B0F1004F01D1002008BD02F0C7F8024940
:101E000002F0CCF908BD00BF0000C84270B50D4615
:101E100006460A228168284600F0EDFD2C21044682
:101E2000284600F097FD0A220444F168284600F095
:101E3000E2FD204470BDA0F10400FFF7E7BF10B53C
:101E40000446282101F059FA204610BD08B5037D4B
:101E50005BB1406A002808DB02F098F8044902F000
:101E60009DF9044902F0E6F808BD034808BD00BF2B
:101E700000FF7F470000C842000080BF08B5037D17
:101E80005BB1C069002808DB02F080F8044902F069
:101E900085F9044902F0CEF808BD034808BD00BF2B
:101EA00000FF7F470000C842000080BF30B50D46EC
:101EB00000F110040FCD0FC495E8030084E803007F
:101EC000012030BD70470020704710B50446102136
:101ED00001F013FA204610BD08B508B1FFF7F5FF71
:101EE00008BD002202604FF69C72828010B5B1F9E5
:101EF000044084808A8002680C6804600A6010BD17
:101F000010B504460068FFF763FE204610BD38B5E3
:101F1000C468F4B12378022B03D104F10C00FFF75D
:101F2000EFFF656835B12846FEF77DF91021284698
:101F300001F0E3F9A56835B12846FEF774F91021E0
:101F4000284601F0DAF92046BDE83840142101F0B6
:101F5000D4B938BD10B588B00446684600F0C8FD55
:101F6000694604A800F0E6FD04A8A047044604A8BA
:101F700000F077FD684600F074FD204608B010BD03
:101F8000F0B507460E46154685B0102422460021BE
:101F9000684602F0E0FA002269461046ADF80040BB
:101FA000029703960195FFF763FD05B0F0BD13B5E9
:101FB000044691E8050000234B600B6020606260DE
:101FC00001A801930093FEF7EBFA204602B010BD82
:101FD0000B68036013B15A6801325A607047F7B555
:101FE0000C4606460F4654F8043B02AD45F8083D42
:101FF000214601A8FFF7ECFF29463046FFF7D7FF3F
:1020000001A8FEF7CDFA2046FEF7CAFA38460821A5
:1020100001F073F9304603B0F0BD13B50B4604462A
:1020200003C88DE8030093E8030084E803009DE8FB
:10203000030083E8030002B010BD000038B50023A0
:102040000446036010200D46FEF729F828B101234D
:1020500043608360024BC56003602060204638BD4A
:1020600044530808826810B50AB901F048F9C368FA
:10207000BDE81040184708B5006800F11001FFF7EF
:10208000F1FF08BD826810B50AB901F038F9C368DC
:10209000BDE81040184708B5006800F11001FFF7CF
:1020A000F1FF08BD38B5002383608B6804460D46F8
:1020B0002BB102229847EB68E360AB68A36020462F
:1020C00038BD0000F0B589B004686846FFF709FF25
:1020D0004FF0020200238DF80830D4E84F3F002B68
:1020E00003D1C4E8412F0029F7D102D08DF8083080
:1020F00063E014F10C0503D069462846FFF7F1FEB2
:10210000BFF35F8F01236370BFF35F8F04F1080398
:10211000002053E8006F43E80002002AF9D1BFF322
:102120005F8F002E49D0FFF76FFC20B12946304663
:10213000FFF798FF3AE0314602A8FFF7B3FFE068E7
:10214000B4F9105008B102F059FA06901020ADF819
:102150001C50FDF7A4FF0546E8B100278760182052
:10216000FDF79DFF044688B10146876002A8FFF78E
:1021700054FF049BA268A360059B0492E26806A931
:10218000E36004F110000592FFF7ABFE0D4B2C60ED
:10219000EB600D4BAB6006A8FFF7B2FE02A8FEF79E
:1021A00042F8002229460948FFF736FC3046FEF780
:1021B0003AF81021304601F0A0F86846FFF7A0FE7B
:1021C00009B0F0BD77200808ED2208084F1C080868
:1021D0002DE9F04F8BB006460F46904699469DF884
:1021E00050A0FFF765FC07AD834630BB4FF62E735A
:1021F000059005A92846ADF81830FFF772FE1420A7
:10220000FDF74DFF044658B10223037001234370CC
:10221000C0F804B0C0F808B029460C30FFF761FEE2
:102220003046214640F8044BFFF708FF2846FFF7E9
:1022300067FE05A8FFF764FE52E000240C2314207B
:102240006C60AC600793FDF72AFF014618B104707B
:1022500044704460846004A80391FFF7EFFE224BB2
:1022600008200893FDF71BFF044628B1039B04A92F
:1022700040F8043BFFF7ACFE00955FFA8AF34A464C
:10228000414638460994FFF723FC20B9039B5B784D
:1022900003F0FF0283B1039B04A906A80593FFF78F
:1022A00097FE05A93046FFF782FE06A8FEF778F9EB
:1022B00004A8FEF775F913E04FF69C7305A903A86F
:1022C0000592ADF81830FFF7FDFE05A8FFF718FEE0
:1022D00005A80999FFF783FE06A8FEF761F9DAE77A
:1022E00030460BB0BDE8F08F5D240808022AF8B52F
:1022F000044606D0032A17D0012A22D10B680360B6
:102300001FE018200E68FDF7CAFE054650B13146A1
:10231000FFF7C8FE3069B6F9147008B102F06EF923
:102320002861AF8225600CE0046854B104F110000C
:10233000FFF7E6FD2046FDF776FF1821204600F066
:10234000DCFF0020F8BD38B5002383608B680446AD
:102350000D462BB102229847EB68E360AB68A3609F
:10236000204638BD022A70B5044606D0032A11D093
:10237000012A18D10B68036015E014200E68FDF7E0
:102380008EFE054620B13146FFF7DDFF337C2B740E
:10239000256008E0046834B12046FDF744FF1421AD
:1023A000204600F0AAFF002070BD0000F0B50C46EA
:1023B000BFF35F8F87B0002350E8006F40E8003222
:1023C000002AF9D1BFF35F8F002E3FD01846FFF7E8
:1023D0001BFB074620B121463046FFF753FE2EE097
:1023E000314601A8FFF7AFFF237810208DF8143095
:1023F000FDF755FE0546D0B187601420FDF74FFE6E
:10240000044678B18760014601A8FFF706FE039BEA
:10241000A268A360049B0392E268E3609DF8143015
:10242000049223740A4B2C60EB600A4BAB6001A84A
:10243000FDF7F9FE002229460748FFF7EDFA30467E
:10244000FDF7F1FE1021304600F057FF07B0F0BD58
:1024500097200808652308084F1C080830B5044673
:1024600085B00D4668461146FFF7B9FD7CB124B230
:1024700028460DB102F0C2F8029002A96846ADF8F4
:102480000C40FFF71FFE02A8FFF73AFD1DE04FF0DA
:10249000010200988DF80840D0E84F3FA34203D1D5
:1024A000C0E8412F0029F7D102D08DF808300CE0A8
:1024B00010F10C014FF0010318BF0373BFF35F8FDE
:1024C000043000F8033CFFF771FF01A8FEF768F83D
:1024D00005B030BD006800F0CEB810B5044601600C
:1024E00002710AB1FFF7F6FF204610BD38B5044669
:1024F0000D4600F097FE2A4601462046FFF7EDFF05
:10250000204638BD006800F0BFB810B50379044616
:102510000BB1FFF7F7FF204610BDF8B504460F4694
:1025200016461D46FFF7D6FF2068362100F098F8C2
:102530002068394603689B6898470121206800F0AD
:1025400092F8022236210123206800F080F82068EA
:1025500003685B6998473070206803685B69984737
:1025600028702046BDE8F840FFF7CCBF13B5002225
:1025700002AB03F8012D8DF8062004210DF10602AF
:10258000FFF7CBFF9DF8070001F056F90022084B3A
:1025900001F0B8F901F0F0FB04469DF8060001F0E7
:1025A000F5FC0146204601F03DFC02B010BD00BF25
:1025B0000000703F7047F8B5064615460C468F1868
:1025C000BC4206D0336814F8011B9B68304698471C
:1025D000F6E72846F8BD0022007CFFF71DB9002170
:1025E000007CFFF721B90021007CFFF725B900210D
:1025F000007CFFF729B90021007CFFF72DB910B549
:102600000446142100F079FE204610BD10B50446A2
:1026100008464FF47A73A360044B00212074616074
:102620002360FFF729F9204610BD00BF605308085A
:1026300000231A461946007CFFF7CEB813B50024D4
:10264000007C0094FFF7D0F8C0B202B010BDDBB23E
:10265000D2B2C9B2FFF7F2BF0022007CFFF7CCB8BC
:10266000C9B2FFF7F9BF0022007CFFF7CDB8002107
:10267000007CFFF7F9B808B50021007CFFF704F9EA
:10268000B0FA80F0400908BD08B50021007CFFF7D2
:1026900003F9B0FA80F0400908BD0047F0B51C46C8
:1026A00085B00E4617460546FFF786F8002084429F
:1026B0004FF0040303908DF80C30B4BF03469DF82F
:1026C00028303246A4BF8DF80E3003AB0093064984
:1026D0003B462846A8BF8DF80D40FFF765F8B0FAD5
:1026E00080F0400905B0F0BD9B260808704710B582
:1026F0000446082100F001FE204610BDF8B50F4643
:1027000000F10806051D002416F8011D0A223846AE
:1027100000F04DF9AE42044407D0002CF4D02E2135
:10272000384600F017F90444EEE72046F8BD0000F3
:10273000024A026000224260704700BF88530808C6
:10274000024A02600A684260704700BF8853080866
:10275000014A4160026070478853080810B59DF82F
:10276000084044EA032343EA024242EA016141602D
:1027700010BD000037B5044D05609DF81850009558
:10278000FFF7ECFF03B030BD88530808014A024B45
:102790001A6070470A5408086002002000231A4695
:1027A0004068FFF7BDB9002202214068FFF7C8B9B1
:1027B000002211464068FFF7BBB90022114640686D
:1027C000FFF7C6B900231A4619464068FFF7C8B993
:1027D00000231A4619464068FFF7CAB9002281F063
:1027E00001014068FFF7CCB900224068FFF7D8B973
:1027F000002211464068FFF7DBB90022114640680D
:10280000FFF7C6B9F0B5174687B0054604A8FFF72D
:102810008FFF002606AC384644F80C6D01F009FF26
:102820000A4B009681B25B6822463846FEF7F4FEFA
:1028300020B131462846FFF78BFF03E021462846AA
:10284000FFF77EFF284607B0F0BD00BF3002002032
:10285000024B034A1A6000225A607047640200204B
:102860007C54080808B500F0DDFCBDE80840FFF71F
:1028700002BF10B50446017009B1FFF7F3FF20460F
:1028800010BD08B500F0CEFCBDE80840FFF7FCBE67
:1028900010B5037804460BB1FFF7F3FF204610BDD7
:1028A00010B504460068FFF7ECFF204610BD37B5B1
:1028B00002AC0D4644F8040DFFF7D4FF00F0B2FC63
:1028C0006B21FFF7CDFE00F0ADFC036829469B6845
:1028D000984700F0A7FC0121FFF7C5FE00F0A2FC1D
:1028E00001231A466B21FFF7B2FE00F09BFC036840
:1028F0005B69984705462046FFF7D2FFE8B203B070
:1029000030BD0821FFF7D3BFF8B506460D468F1836
:102910000024BD420CD0336815F8011B9B6830467B
:102920009847002801DB0444F3E7002C08BF044665
:102930002046F8BD70B505460C46084649B101F081
:1029400078FE2B68024621462846BDE87040DB68C9
:10295000184770BD03689B681847012A98BF0A2270
:1029600030B50B468BB000218DF824100DF12304F7
:10297000B3FBF2F505FB1233DBB2092B94BF303306
:102980003733DBB2214604F801392B46002DEFD155
:10299000FFF7D0FF0BB030BD10B422B90368C9B245
:1029A0009B6810BC1847D2B210BCFFF7D6BFFFF728
:1029B000F3BF2DE9F04107460E4615462AB9BDE89A
:1029C000F0410368C9B29B6818470A2A02D100295E
:1029D00001DA04E0D2B2BDE8F041FFF7BEBF2D211D
:1029E000FFF7B8FF2A46044671423846FFF7B5FFA5
:1029F0002044BDE8F081FFF7DCBF10B50446FDF7C9
:102A000012FC204610BD0000034800238360034AE7
:102A1000034900F06DBC00BF6C020020640100207F
:102A2000FB290808704710B50446102100F065FC2A
:102A3000204610BD70B504460E46074B00250360C6
:102A400040F80C5FFEF730FE30462671FEF72CFF93
:102A5000A560204670BD00BFB05408080079FEF79D
:102A60002BBF10B504460068FFF7B2F8204610BD32
:102A700010B50446006808B1FFF7AAF800232360E8
:102A8000A360636010BD38B504460D46006801318F
:102A9000FFF7A6F810B184E82100012038BD10B579
:102AA0000368044613B143688B4207D22046FFF700
:102AB000EAFF20B1A3680BB922681370012010BD92
:102AC00070B50E46114604461546FFF7E8FF18B9E3
:102AD0002046FFF7CDFF09E02A463146A560206871
:102AE00001F02EFD2268A3680021D154204670BD5C
:102AF00038B50023044603604360836003730D46CA
:102B000039B1084601F095FD294602462046FFF7F7
:102B1000D7FF204638BD884210B50B46044607D083
:102B2000096819B19A68FFF7CBFF01E0FFF7A0FF32
:102B3000204610BD10B50446002303604360836047
:102B40000373FFF7E8FF204610BD08B582680B4607
:102B500012B919B9012008BD11B90368187802E04B
:102B6000006801F038FDB0FA80F0400908BD70B58A
:102B70000E469AB191B185689D4202D800230B7030
:102B800070BD541EED1AAC4228BF2C460168224687
:102B90001944304601F06AFD0023335570BD0146EB
:102BA00000228C20FEF798BD0020FFF7F8BF000040
:102BB00010B50446084611461A460023FEF714FFD6
:102BC000064B00221A704FF6FF7258809A801A68DE
:102BD0009B882260A380204610BD00BF7C0200209D
:102BE0004FF6FF72034B0020187058809A80FEF752
:102BF000EBBE00BF7C020020F0B5144B144F1E68E2
:102C0000144B064418683B6806449E428BB01BD0A8
:102C10000AA840F8286D01F09BFB0446436901AD0A
:102C200003F26C7343610FCC0FC50FCC0FC5D4F802
:102C300000E0094CC5F800E001AD0FCD0FC40FCD89
:102C40000FC43E60C4F800E00BB0F0BDB402002039
:102C5000B0020020AC0200208402002008B5002051
:102C6000FEF74EFF28B1FEF723FF80F00100C0B24F
:102C700008BD012008BD10B50020FEF755FD044633
:102C800068B9FEF799FE01280BD12046FEF7CCFE6D
:102C900038B9FFF7E3FF30B9FEF7F2FEF9E701209C
:102CA00010BD002010BDFFF7D9FF0020FEF73CFD4E
:102CB000003018BF012010BD08B5FFF7DCFFBDE8EC
:102CC0000840FEF729BD000008B5FFF7F5FFFFF744
:102CD00093FF014B986808BD8402002008B5FFF7F8
:102CE000EBFFFFF789FF014B586808BD8402002005
:102CF000024B1A68024B1A60704700BFAC000020FC
:102D0000A802002070474174704708B5007CFEF7A8
:102D100013FE20EAE07008BD08B5007CFEF7E4FD74
:102D200020EAE07008BD08B5007CFEF7EDFD30EA52
:102D3000200028BF4FF0FF3008BD08B5007CFEF72B
:102D4000DBFD30EA200028BF4FF0FF3008BD007CDB
:102D5000FEF7E2BD10B50446142100F0CEFA20467D
:102D600010BD70B5457C04460E4625B9007CFEF7C3
:102D7000E3FD002805DD3146207CBDE87040FEF70C
:102D8000ABBD284670BD000010B50446084611468C
:102D9000002262604FF47A72A260054A20742260B9
:102DA000012262741A46FEF78FFD204610BD00BF57
:102DB000E8540808007CFEF7B7BD000038B50C4D9C
:102DC000296811F0010411D12846FDF76CF968B1AA
:102DD000084A2146084B0948FFF7D6FF2846FDF769
:102DE00067F9074A0749054800F082FA034838BDE9
:102DF0005003002054030020CC020020B802002021
:102E000064010020052D080841747047704708B51B
:102E10000021007CFEF7B0FD30EA200028BF4FF013
:102E2000FF3008BD08B50121007CFEF7A5FD30EAA2
:102E3000200028BF4FF0FF3008BD08B5007CFEF72A
:102E400093FD20EAE07008BD08B5007CFEF784FD24
:102E500020EAE07008BD007CFEF79EBD10B5044678
:102E6000142100F04AFA204610BD38B50446007C13
:102E70000D46FEF779FD002801DC607C28B129466B
:102E8000207CFEF781FD20EAE07038BD10B50446D5
:102E9000002363604FF47A73A360054B08462360F8
:102EA0000123217463741146FEF74EFD204610BDC8
:102EB0001855080810B504461422002101F04BFBF8
:102EC000054B20466360054BE36040F2011323810C
:102ED0008123238210BD00BF5D040020DC0300209D
:102EE00030B50E4D87B001A8FFF7E4FF296811F057
:102EF000010410D12846FDF7D6F860B101AA214699
:102F00000748FFF7C3FF2846FDF7D2F8054A0649F0
:102F1000034800F0EDF9024807B030BDD8030020A7
:102F200060050020640100200D2E080810B504463D
:102F30001422002101F00FFB054B20466360054B76
:102F4000E36040F2011323818123238210BD00BF7F
:102F5000100600207805002010B50E4C86B001A8A0
:102F6000FFF7E4FF2368DB0710D42046FDF79BF84A
:102F700060B101AA01210848FFF788FF2046FDF74C
:102F800097F8064A0649044800F0B2F9024806B02C
:102F900010BD00BF74050020FC0500206401002066
:102FA0000D2E080808B5184B33B1FFF799FF0368D9
:102FB0001B69984700281EDC144B33B1FFF7FEFE57
:102FC00003681B699847002818DC114B0BB1AFF35D
:102FD0000080104B0BB1AFF300800F4B0BB1AFF380
:102FE00000800E4B7BB1FFF7B7FF03681B69984762
:102FF000002806DC08BDAFF30080DDE7AFF30080FA
:10300000E3E7AFF3008008BD00000000000000000F
:1030100000000000000000000000000000000000B0
:1030200008B5FFF7BFFFFEF76FFB014B186008BD47
:103030001C0700200248034A0349121A01F080BA13
:1030400000400240044002408057080807B50023B2
:1030500000931A466FF07701FEF7F8FC03B05DF8B5
:1030600004FB000007B543880A2B08D0502B09D178
:10307000094B1B683BB103B05DF804EB1847FFF741
:10308000E5FF06E0002300931A466FF07701FEF794
:10309000DDFC03B05DF804FB1407002038B5104CCC
:1030A000104D2368AB42104B0CBF012200221A7056
:1030B00002D0FFF7BFFF2560FEF71EFB044601F0BC
:1030C00053FA0A4B13B12046AFF3008000210748A2
:1030D000FEF71EFDBDE8384000210548FEF7ACBCF8
:1030E000004002401E1C279A180700200000000024
:1030F0006530080810B504460F48FFF7AFFC28B14B
:10310000A4F10D03022B01D8002010BD00F06AF8D5
:10311000FFF7ADFA08B1012CF6D9FFF74FFEFFF724
:1031200049FE18B1A4F11203012BEDD92E2C8CBF4E
:103130000020012010BD00BF580700202E2838B500
:1031400004460D460AD8FF2908D0FFF7D3FF28B15F
:1031500029462046BDE83840FEF706BB38BD38B5E5
:1031600004460D46FEF708FBFF2810D0062804D8B9
:103170004D2323FA00F0C30709D42046FFF7BAFF16
:1031800028B129462046BDE83840FEF7FDBA38BDD3
:1031900010B50446FEF7F0FA0438C0B2012808D989
:1031A0002046FFF7A7FF20B12046BDE81040FEF7FC
:1031B000F3BA002010BD10B5044609289CBF0A349C
:1031C000A4B22046FFF796FF50B103212046FEF738
:1031D000C3FA032804D12046BDE81040FEF7F4BA34
:1031E000002010BD38B50B4D296811F001040FD136
:1031F0002846FCF758FF58B121460748FFF706FA62
:103200002846FCF755FF054A0549034800F070F8C9
:10321000014838BD20070020380700206401002045
:10322000B525080810B50B4C2368DB070FD42046E2
:10323000FCF739FF58B102210748FFF7E7F92046AC
:10324000FCF736FF054A0649034800F051F80248EA
:1032500010BD00BF4C07002024070020640100209F
:10326000B525080813B5084C00231A4619460093E3
:103270002046FFF77FFA2046044A054902B0BDE820
:10328000104000F035B800BF500700206401002056
:10329000ED26080870B5114E114D124C0021304634
:1032A000FFF7C8FB3046104E2A46214600F020F8B2
:1032B00001213046FFF7BEFB30460C4E2A46214620
:1032C00000F016F802213046FFF7B4FB2A462146EB
:1032D0003046BDE8704000F00BB800BF5807002032
:1032E00064010020252A08086807002078070020CC
:1032F0000B460146184601F017B8FCF7D2BE08B5D8
:10330000FEF786FC244B1A68D0075CBF01221A60C6
:10331000224B1A68D1075CBF01221A60204B1A6841
:10332000D2075CBF01221A601E4B1A68D0075CBF2F
:1033300001221A601C4B1A68D1075CBF01221A6077
:103340001A4B1A68D2075CBF01221A60184B1A6820
:10335000D0075CBF01221A60164B1A68D1075CBF08
:1033600001221A60144B1A68D2075CBF01221A604E
:10337000124B1A68D0075CBF01221A60104B1A6802
:10338000D1075CBF01221A600E4B1A68D2075CBFDE
:1033900001221A60704700BFB4070020B007002068
:1033A000AC070020A8070020A4070020A0070020E9
:1033B0009C07002098070020940700209007002019
:1033C0008C07002088070020184B1A68D1075CBFC3
:1033D00001221A60164B1A68D2075CBF01221A60DC
:1033E000144B1A68D0075CBF01221A60124B1A688E
:1033F000D1075CBF01221A60104B1A68D2075CBF6C
:1034000001221A600E4B1A68D0075CBF01221A60B5
:103410000C4B1A68D1075CBF01221A600A4B1A686C
:10342000D2075CBF01221A60704700BFD40700209A
:10343000D0070020CC070020C8070020C4070020C8
:10344000C0070020BC070020B8070020184B1A68EE
:10345000D1075CBF01221A60164B1A68D2075CBF05
:1034600001221A60144B1A68D0075CBF01221A604F
:10347000124B1A68D1075CBF01221A60104B1A6800
:10348000D2075CBF01221A600E4B1A68D0075CBFDE
:1034900001221A600C4B1A68D1075CBF01221A6026
:1034A0000A4B1A68D2075CBF01221A60704700BF3E
:1034B000F4070020F0070020EC070020E8070020B8
:1034C000E4070020E0070020DC070020D8070020E8
:1034D000244B1A68D0075CBF01221A60224B1A687D
:1034E000D1075CBF01221A60204B1A68D2075CBF6B
:1034F00001221A601E4B1A68D0075CBF01221A60B5
:103500001C4B1A68D1075CBF01221A601A4B1A685B
:10351000D2075CBF01221A60184B1A68D0075CBF43
:1035200001221A60164B1A68D1075CBF01221A608B
:10353000144B1A68D2075CBF01221A60124B1A683A
:10354000D0075CBF01221A60104B1A68D1075CBF1C
:1035500001221A600E4B1A68D2075CBF01221A6062
:10356000704700BF24080020200800201C0800200D
:103570001808002014080020100800200C08002063
:10358000080800200408002000080020FC07002094
:10359000F807002081F0004102E000BF83F0004303
:1035A00030B54FEA41044FEA430594EA050F08BFDE
:1035B00090EA020F1FBF54EA000C55EA020C7FEAA2
:1035C000645C7FEA655C00F0E2804FEA5454D4EB1F
:1035D0005555B8BF6D420CDD2C4480EA020281EAE9
:1035E000030382EA000083EA010180EA020281EA21
:1035F0000303362D88BF30BD11F0004F4FEA013173
:103600004FF4801C4CEA113102D0404261EB410181
:1036100013F0004F4FEA03334CEA133302D0524207
:1036200063EB430394EA050F00F0A780A4F10104C3
:10363000D5F1200E0DDB02FA0EFC22FA05F28018FD
:1036400041F1000103FA0EF2801843FA05F35941E3
:103650000EE0A5F120050EF1200E012A03FA0EFC62
:1036600028BF4CF0020C43FA05F3C01851EBE3718C
:1036700001F0004507D54FF0000EDCF1000C7EEBA9
:1036800000006EEB0101B1F5801F1BD3B1F5001FE7
:103690000CD349085FEA30004FEA3C0C04F1010406
:1036A0004FEA445212F5800F80F09A80BCF1004F2F
:1036B00008BF5FEA500C50F1000041EB045141EAB1
:1036C000050130BD5FEA4C0C404141EB010111F4B2
:1036D000801FA4F10104E9D191F0000F04BF01465D
:1036E0000020B1FA81F308BF2033A3F10B03B3F13B
:1036F00020020CDA0C3208DD02F1140CC2F10C02CB
:1037000001FA0CF021FA02F10CE002F11402D8BF28
:10371000C2F1200C01FA02F120FA0CFCDCBF41EAF4
:103720000C019040E41AA2BF01EB0451294330BDC3
:103730006FEA04041F3C1CDA0C340EDC04F11404A0
:10374000C4F1200220FA04F001FA02F340EA030077
:1037500021FA04F345EA030130BDC4F10C04C4F1BD
:10376000200220FA02F001FA04F340EA030029469D
:1037700030BD21FA04F0294630BD94F0000F83F4E7
:10378000801306BF81F480110134013D4EE77FEACA
:10379000645C18BF7FEA655C29D094EA050F08BF16
:1037A00090EA020F05D054EA000C04BF19461046F7
:1037B00030BD91EA030F1EBF0021002030BD5FEA3B
:1037C000545C05D14000494128BF41F0004130BD63
:1037D00014F580043CBF01F5801130BD01F00045B7
:1037E00045F0FE4141F470014FF0000030BD7FEA2A
:1037F000645C1ABF194610467FEA655C1CBF0B4625
:10380000024650EA013406BF52EA033591EA030F3B
:1038100041F4002130BD00BF90F0000F04BF002133
:10382000704730B54FF4806404F132044FF0000566
:103830004FF0000150E700BF90F0000F04BF0021DF
:10384000704730B54FF4806404F1320410F0004545
:1038500048BF40424FF000013EE700BF42004FEA40
:10386000E2014FEA31014FEA02701FBF12F07F43BD
:1038700093F07F4F81F06051704792F0000F14BFBA
:1038800093F07F4F704730B54FF4607401F00045FE
:1038900021F0004120E700BF50EA010208BF704755
:1038A00030B54FF000050AE050EA010208BF70474A
:1038B00030B511F0004502D5404261EB41014FF4B3
:1038C000806404F132045FEA915C3FF4DCAE4FF0B7
:1038D00003025FEADC0C18BF03325FEADC0C18BF9E
:1038E000033202EBDC02C2F1200300FA03FC20FAEF
:1038F00002F001FA03FE40EA0E0021FA02F114443C
:10390000C1E600BF70B54FF0FF0C4CF4E06C1CEA50
:1039100011541DBF1CEA135594EA0C0F95EA0C0FC5
:1039200000F0DEF82C4481EA030621EA4C5123EA38
:103930004C5350EA013518BF52EA033541F4801167
:1039400043F4801338D0A0FB02CE4FF00005E1FB1A
:1039500002E506F00042E0FB03E54FF00006E1FB64
:1039600003569CF0000F18BF4EF0010EA4F1FF04A7
:10397000B6F5007F64F5407404D25FEA4E0E6D41E7
:1039800046EB060642EAC62141EA55514FEAC520F8
:1039900040EA5E504FEACE2EB4F1FD0C88BFBCF574
:1039A000E06F1ED8BEF1004F08BF5FEA500E50F125
:1039B000000041EB045170BD06F0004646EA0101EB
:1039C00040EA020081EA0301B4EB5C04C2BFD4EB1D
:1039D0000C0541EA045170BD41F480114FF0000E16
:1039E000013C00F3AB8014F1360FDEBF002001F084
:1039F000004170BDC4F10004203C35DA0C341BDCFE
:103A000004F11404C4F1200500FA05F320FA04F0CF
:103A100001FA05F240EA020001F0004221F0004103
:103A200010EBD37021FA04F642EB06015EEA430E76
:103A300008BF20EAD37070BDC4F10C04C4F12005A6
:103A400000FA04F320FA05F001FA04F240EA020059
:103A500001F0004110EBD37041F100015EEA430E2A
:103A600008BF20EAD37070BDC4F1200500FA05F24A
:103A70004EEA020E20FA04F301FA05F243EA0203C9
:103A800021FA04F001F0004121FA04F220EA0200D8
:103A900000EBD3705EEA430E08BF20EAD37070BD1E
:103AA00094F0000F0FD101F00046400041EB0101FE
:103AB00011F4801F08BF013CF7D041EA060195F0E0
:103AC000000F18BF704703F00046520043EB03039A
:103AD00013F4801F08BF013DF7D043EA0603704787
:103AE00094EA0C0F0CEA135518BF95EA0C0F0CD092
:103AF00050EA410618BF52EA4306D1D181EA0301D8
:103B000001F000414FF0000070BD50EA410606BFD1
:103B10001046194652EA430619D094EA0C0F02D116
:103B200050EA013613D195EA0C0F05D152EA03365B
:103B30001CBF104619460AD181EA030101F0004179
:103B400041F0FE4141F470014FF0000070BD41F0C2
:103B5000FE4141F4780170BD70B54FF0FF0C4CF49C
:103B6000E06C1CEA11541DBF1CEA135594EA0C0FBB
:103B700095EA0C0F00F0A7F8A4EB050481EA030E08
:103B800052EA03354FEA013100F088804FEA0333EF
:103B90004FF0805545EA131343EA12634FEA0222BD
:103BA00045EA111545EA10654FEA00260EF000417E
:103BB0009D4208BF964244F1FD0404F5407402D2D0
:103BC0005B084FEA3202B61A65EB03055B084FEA61
:103BD00032024FF480104FF4002CB6EB020E75EB5E
:103BE000030E22BFB61A754640EA0C005B084FEA86
:103BF0003202B6EB020E75EB030E22BFB61A754603
:103C000040EA5C005B084FEA3202B6EB020E75EB4D
:103C1000030E22BFB61A754640EA9C005B084FEAC5
:103C20003202B6EB020E75EB030E22BFB61A7546D2
:103C300040EADC0055EA060E18D04FEA051545EAC1
:103C400016754FEA06164FEAC30343EA52734FEA6A
:103C5000C2025FEA1C1CC0D111F4801F0BD141EAE3
:103C600000014FF000004FF0004CB6E711F4801F48
:103C700004BF01430020B4F1FD0C88BFBCF5E06F28
:103C80003FF6AFAEB5EB030C04BFB6EB020C5FEA38
:103C9000500C50F1000041EB045170BD0EF0004E8D
:103CA0004EEA113114EB5C04C2BFD4EB0C0541EABF
:103CB000045170BD41F480114FF0000E013C90E6BC
:103CC00045EA060E8DE60CEA135594EA0C0F08BF80
:103CD00095EA0C0F3FF43BAF94EA0C0F0AD150EA7F
:103CE00001347FF434AF95EA0C0F7FF425AF104612
:103CF00019462CE795EA0C0F06D152EA03353FF43A
:103D0000FDAE1046194622E750EA410618BF52EAB6
:103D100043067FF4C5AE50EA41047FF40DAF52EA8A
:103D200043057FF4EBAE12E74FEA410212F50012B1
:103D300015D211D56FF47873B3EB625212D94FEAF2
:103D4000C12343F0004343EA505311F0004F23FADC
:103D500002F018BF404270474FF00000704750EA31
:103D6000013005D111F0004008BF6FF000407047EE
:103D70004FF00000704700BF4FEA4102B2F1E0434C
:103D800024BFB3F5001CDCF1FE5C0DD901F0004C42
:103D90004FEAC0024CEA5070B2F1004F40EB830092
:103DA00008BF20F00100704711F0804F21D113F1BE
:103DB0003872BCBF01F00040704741F480114FEAF7
:103DC0005252C2F11802C2F1200C10FA0CF320FA80
:103DD00002F018BF40F001004FEAC1234FEAD3239D
:103DE00003FA0CFC40EA0C0023FA02F34FEA430307
:103DF000CCE77FEA625307D150EA01331EBF4FF090
:103E0000FE4040F44000704701F0004040F0FE40AA
:103E100040F40000704700BF80F0004002E000BFA7
:103E200081F0004142001FBF5FEA410392EA030FA5
:103E30007FEA226C7FEA236C6AD04FEA1262D2EBEF
:103E40001363C1BFD218414048404140B8BF5B42F4
:103E5000192B88BF704710F0004F40F4000020F08D
:103E60007F4018BF404211F0004F41F4000121F0A3
:103E70007F4118BF494292EA030F3FD0A2F10102ED
:103E800041FA03FC10EB0C00C3F1200301FA03F12B
:103E900000F0004302D5494260EB4000B0F5000F4E
:103EA00013D3B0F1807F06D340084FEA310102F10D
:103EB0000102FE2A51D2B1F1004F40EBC25008BFBF
:103EC00020F0010040EA03007047490040EB000089
:103ED00010F4000FA2F10102EDD1B0FA80FCACF1B8
:103EE000080CB2EB0C0200FA0CF0AABF00EBC250B7
:103EF00052421843BCBFD0401843704792F0000FA5
:103F000081F4000106BF80F400000132013BB5E7F7
:103F10004FEA41037FEA226C18BF7FEA236C21D06D
:103F200092EA030F04D092F0000F08BF08467047D2
:103F300090EA010F1CBF0020704712F07F4F04D1A0
:103F4000400028BF40F00040704712F100723CBFB3
:103F500000F50000704700F0004343F0FE4040F4DD
:103F6000000070477FEA226216BF08467FEA23639B
:103F70000146420206BF5FEA412390EA010F40F486
:103F8000800070474FF0000304E000BF10F00043D2
:103F900048BF40425FEA000C08BF704743F09643B9
:103FA00001464FF000001CE050EA010208BF7047D4
:103FB0004FF000030AE000BF50EA010208BF70475B
:103FC00011F0004302D5404261EB41015FEA010C70
:103FD00002BF84460146002043F0B64308BFA3F168
:103FE0008053A3F50003BCFA8CF2083AA3EBC2534A
:103FF00010DB01FA02FC634400FA02FCC2F1200269
:10400000BCF1004F20FA02F243EB020008BF20F09F
:104010000100704702F1200201FA02FCC2F1200205
:1040200050EA4C0021FA02F243EB020008BF20EAFA
:10403000DC7070474FF0FF0C1CEAD0521EBF1CEA28
:10404000D15392EA0C0F93EA0C0F6FD01A4480EA16
:10405000010C400218BF5FEA41211ED04FF00063FF
:1040600043EA501043EA5111A0FB01310CF000402B
:10407000B1F5000F3EBF490041EAD3715B0040EA51
:10408000010062F17F02FD2A1DD8B3F1004F40EB21
:10409000C25008BF20F00100704790F0000F0CF0F4
:1040A000004C08BF49024CEA502040EA51207F3AB8
:1040B000C2BFD2F1FF0340EAC250704740F4000093
:1040C0004FF00003013A5DDC12F1190FDCBF00F084
:1040D00000407047C2F10002410021FA02F1C2F132
:1040E000200200FA02FC5FEA310040F1000053EACE
:1040F0004C0308BF20EADC70704792F0000F00F01C
:10410000004C02BF400010F4000F013AF9D040EA21
:104110000C0093F0000F01F0004C02BF490011F4B5
:10412000000F013BF9D041EA0C018FE70CEAD153B3
:1041300092EA0C0F18BF93EA0C0F0AD030F0004C33
:1041400018BF31F0004CD8D180EA010000F00040E7
:10415000704790F0000F17BF90F0004F084691F0A5
:10416000000F91F0004F14D092EA0C0F01D14202DF
:104170000FD193EA0C0F03D14B0218BF084608D1A8
:1041800080EA010000F0004040F0FE4040F40000F2
:10419000704740F0FE4040F4400070474FF0FF0C85
:1041A0001CEAD0521EBF1CEAD15392EA0C0F93EACC
:1041B0000C0F69D0A2EB030280EA010C49024FEA1E
:1041C000402037D04FF0805343EA111143EA1013D7
:1041D0000CF000408B4238BF5B0042F17D024FF48F
:1041E000000C8B4224BF5B1A40EA0C00B3EB510F6A
:1041F00024BFA3EB510340EA5C00B3EB910F24BF53
:10420000A3EB910340EA9C00B3EBD10F24BFA3EBD7
:10421000D10340EADC001B0118BF5FEA1C1CE0D19F
:10422000FD2A3FF650AF8B4240EBC25008BF20F052
:10423000010070470CF0004C4CEA50207F32C2BFA6
:10424000D2F1FF0340EAC250704740F400004FF043
:104250000003013A37E792F0000F00F0004C02BF74
:10426000400010F4000F013AF9D040EA0C0093F03E
:10427000000F01F0004C02BF490011F4000F013B98
:10428000F9D041EA0C0195E70CEAD15392EA0C0F00
:1042900008D142027FF47DAF93EA0C0F7FF470AF38
:1042A000084676E793EA0C0F04D14B023FF44CAF7B
:1042B00008466EE730F0004C18BF31F0004CCAD110
:1042C00030F000427FF45CAF31F000437FF43CAF4C
:1042D0005FE700BF4FEA4002B2F1FE4F0FD34FF04D
:1042E0009E03B3EB12620DD94FEA002343F0004363
:1042F00010F0004F23FA02F018BF404270474FF011
:104300000000704712F1610F01D1420205D110F097
:10431000004008BF6FF0004070474FF0000070474A
:104320000A22002100F03CBA10B5054C13462CB10E
:104330000A4601460220AFF3008010BD204610BDA2
:104340000000000008B5401AFFF776FA08BD00002B
:1043500038B5074B05461C68E36B1BB92420FDF7F5
:104360002FFCE063E16B2846BDE8384000F002B85E
:10437000140100202DE9F0410C46804600F016FDA6
:1043800021460746404600F015FD4669044606F200
:104390006C76B30705D1642296FBF2F302FB13633C
:1043A0004BB94FF4C87596FBF5F305FB1365B5FAE9
:1043B00085F35B0900E001235F4A302505FB0325F7
:1043C00000F028FB00F028FB5C4B1B68F3B17B6816
:1043D0009E4205D13968D8F80030FA6941B90AE03F
:1043E000304600F06FFA0028F4D14FF0FF330DE0B3
:1043F000934208DB01E0934207DABA6B9342ACBF09
:104400000023012302E0002300E001232362236A4A
:104410003C20012B0CBFF96B396A4FF4616391FBAF
:10442000F3F603FB161393FBF0F200FB1230616806
:104430002368891AA2681B1A921B3B2B23606160B8
:10444000A26003DD013161603C3B04E0002B03DA34
:10445000013961603C33236063683B2B03DD01322B
:10446000A2603C3B04E0002B03DA013AA2603C333B
:104470006360A368172B22DDE269183B0132E26119
:10448000A269A3600132062AC8BF0022A261E268C5
:1044900023690132E26055F823108A4246DD013378
:1044A0000C2B08BF6369A2EB0102E26005BF013378
:1044B00000222361226104BF6361E26136E0002BC8
:1044C00034DAE2691833013AE261A269A360013A81
:1044D00048BF0622A261E268013AE26032BB23696A
:1044E000013B01D423611DE00B23236163695A1E44
:1044F00012F0030F626103F26B7305D1642193FB29
:10450000F1F201FB12324AB94FF4C87193FBF1F298
:1045100001FB1233B3FA83F35B0900E0012303F5D7
:10452000B673E361236955F82330E36000F073FA52
:104530002046BDE8F08100BFA856080844080020C6
:1045400010B5431E0A44914204D011F8014B03F800
:10455000014FF8E710BD03460244934202D003F82E
:10456000011BFAE77047000038B5124B05461C687E
:10457000A36BD3B91820FDF723FB43F20E33A063DE
:1045800003804AF6CD33438041F2342383804EF2D8
:104590006D63C3804DF6EC630381052343810B23D8
:1045A000838101220023C0E90423A36B00221D6143
:1045B0005A6138BD14010020024610B513461C781C
:1045C0000132002CFAD1013B11F8012B03F8012F25
:1045D000002AF9D110BD10F8012B11F8013B012A76
:1045E00028BF9A42F7D0D01A7047034611F8012B22
:1045F00003F8012B002AF9D170470000024B014655
:10460000186800F003B800BF1401002070B506461A
:1046100008460C4600F00DF8451C29463046FDF7CB
:10462000FFFA064618B12A462146FFF789FF3046B1
:1046300070BD034613F8012B002AFBD1181A01386C
:10464000704730B582B1451E013915F8013F11F8A8
:10465000014FA34206D1EC431444E04201D0002BA9
:10466000F3D11C46181B30BD104630BD034610B5B3
:1046700042B111F8014B013A03F8014B002CF7D17C
:104680001A4400E010BD934202D003F8014BFAE750
:1046900010BD00002DE9F0470F4680463F48D0F896
:1046A00000903D4615F8014B09EB0400407800F0FE
:1046B000080000F0FF0608B12F46F2E72D2C03D1C9
:1046C000BD1C7C78012603E02B2C04BF7C78BD1C2C
:1046D00013B1102B0AD15BE0302C57D1287800F0B1
:1046E000DF0058284DD16C7810230235002E14BFFE
:1046F0004FF0004C6FF0004CBCFBF3FA002738463B
:1047000003FB1ACC09EB040E9EF801E01EF0040F27
:1047100001D0303C0BE01EF0030E1BD0BEF1010FA8
:104720000CBF4FF0370E4FF0570ECEEB0404A342F0
:1047300010DDB7F1FF3F0AD0504506D801D16445DE
:1047400003DC03FB0040012701E04FF0FF3715F8C1
:10475000014BD7E77B1C0CD1002E4FF0220314BF76
:104760004FF000406FF00040C8F800302AB9BDE8B3
:10477000F08706B1404272B107B1691E1160BDE811
:10478000F0873024002BB1D10823AFE70A23ADE72F
:10479000302CA3D0AAE7BDE8F08700BFB00000200E
:1047A00013460A46014602480068FFF773BF00BF80
:1047B000140100202DE9F0470E4680463B48D0F812
:1047C0000090354615F8014B09EB0400407800F0E5
:1047D000080000F0FF0708B12E46F2E72D2C03D1A8
:1047E000B51C7478012703E02B2C04BF7478B51C2A
:1047F00013B1102B0AD153E0302C4FD1287800F0A0
:10480000DF00582845D16C78102302354FF0FF3C6B
:10481000BCFBF3FC03FB0CFA00266FEA0A0A3046E5
:1048200009EB040E9EF801E01EF0040F01D0303CAD
:104830000BE01EF0030E1AD0BEF1010F0CBF4FF0BB
:10484000370E4FF0570ECEEB0404A3420FDD002EBF
:1048500008DB604506D801D1544503DC03FB00406A
:10486000012601E04FF0FF3615F8014BD8E7002E86
:1048700007DA2223C8F800304FF0FF302AB9BDE82C
:10488000F08707B1404272B106B1691E1160BDE800
:10489000F0873024002BB9D10823B7E70A23B5E706
:1048A000302CABD0B2E7BDE8F08700BFB0000020ED
:1048B00013460A46014602480068FFF77BBF00BF67
:1048C000140100202DE9F74F044600F06FFA40F282
:1048D000B1739C4240F3968040F26D156FF4F6631D
:1048E000E318A4F2B2729B1005FB0235A4F26D72BC
:1048F0006FF0630392FBF3F36FF4C8622B44A518C7
:104900004FF4C87294FBF2F795FBF2F502FB1747E0
:104910001D44642394FBF3F6B7FA87FE014603FBBC
:10492000164600F13803019304F0030344604FEA94
:104930005E1E00934FF0070C0B7A4A2B0ED14B6989
:10494000009AEC1802B906B927B93B2BD4BF002353
:10495000012300E000232344013B3FE0442B02D12C
:104960004B692B443AE0009B2BB9002E0CBFF0465C
:104970004FF0010800E0F046A946244B302202FB2C
:104980000838CC68A8F1040A0123A34204DA5AF8D3
:1049900004BF0133D944F8E709F1040393FBFCFB9E
:1049A000CBEBCB0ACAEB030A4B69012CB8BF01243D
:1049B000B3EB0A0A0B6904F1804403F1FF3304F1FD
:1049C000FF3448BF0AF1070AC3EBC30358F8244079
:1049D0005344A34201DB073BFBE74B448C690C4A81
:1049E00002FB03430C6A234441F81C3F019B99429C
:1049F000A2D1C369826B9342ACBF00230123036041
:104A0000012000E0002003B0BDE8F08FA8560808A0
:104A10008051010070477047014B186800F002B8E0
:104A2000140100202DE9F04F8DB0074600F0BEF9CB
:104A3000B0490446384600F0B1F9AF4E054660B9BA
:104A4000AE4BAF4A1860AF4B1860AF4B30681A607E
:104A50005A60FDF7BDF8356048E1316879B93068D2
:104A6000FDF7B6F82846FFF7E4FD411C3846FDF790
:104A7000D7F8306048B12946FFF7B7FD05E0FFF7EA
:104A8000AAFD002800F03281E9E72B780AAE3A2B24
:104A900008BF013533469D4A9D492846FDF7A8F8D1
:104AA000002840F323810A9BEF18EB5C2D2B03D1E8
:104AB00001374FF0FF3503E02B2B08BF01370125ED
:104AC0000DF1200A0DF11E0B4FF000080396CDF8F2
:104AD00008A00196CDF800B0334607AA8D493846A4
:104AE000ADF81E80ADF82080FDF782F8404540F318
:104AF000FD80BDF81E20BDF820303C2101FB0233B3
:104B0000BDF81C204FF4616101FB02335D437F4B14
:104B100025627D4DDFF808922B600A9B4A461F44B0
:104B20007B4933463846FDF763F8404508DC2B687F
:104B3000226A6B60714B1A60724BC3F80080D5E03B
:104B40000A9BC5F80490FD18FB5C2D2B03D10135A1
:104B50004FF0FF3703E02B2B08BF0135012700235F
:104B6000ADF81C30ADF81E30ADF820300A93039636
:104B7000CDF808A00196CDF800B0334607AA6549E4
:104B80002846FDF735F8002804DC236AA3F56163A5
:104B9000E3630EE0BDF81E20BDF820303C2101FB90
:104BA0000233BDF81C204FF4616101FB02335F4307
:104BB000E76327460A9B4FF000091D442B782C2BF6
:104BC00008BF013595F80080B8F14D0F26D10DF1E1
:104BD0002603029309AB00930396019633460DF129
:104BE00022024D492846FDF703F803287ED1BDF87F
:104BF00022104B1E0B2B79D8BDF82420531E042BFA
:104C000074D8BDF82630062B70D887F80880F96074
:104C10003A617B610A9B05EB03082AE0B8F14A0F71
:104C200006BF4346013544230A220BA928460593B3
:104C3000FFF73EFEDDF82C80ADF826004545059BCC
:104C400014D14D23B9F1000F07D123720323E36080
:104C500002232361C4F814900BE084F824300B2362
:104C6000A3620123E3620023236302E080B23B726C
:104C700078610223ADF81C300023ADF81E30ADF88A
:104C800020300A9398F800302F2B0BD10396CDF8E3
:104C900008A00196CDF800B0334607AA1F49404648
:104CA000FCF7A6FFBDF81E20BDF820303C2101FB1B
:104CB0000233BDF81C204FF4616101FB0233BB617C
:104CC0000A9D09F10109B9F1020F454407F11C07DA
:104CD0007FF474AF6068FFF7F5FD226A074B1A6036
:104CE000E36B9B1A074A18BF012313600DB0BDE8A0
:104CF000F08F00BF0857080840080020480800202F
:104D00000B57080844080020180100203308002031
:104D10000F570808325708081E5708083157080867
:104D2000280800202DE9F84F07468B46904600F0F2
:104D3000D7F8194B1D689A463DB15C46234613F8D7
:104D4000012B42B13D2A1C46F8D1384600F0C9F883
:104D50000020BDE8F88FCBEB0404A94659F8040BFA
:104D60000028F2D022465946FFF76BFC88B959F863
:104D7000043C1E191B5D3D2B0BD1DAF80030384680
:104D8000ED1AAD10C8F8005000F0ABF8701CBDE88B
:104D9000F88F4D46E1E700BF6001002007B501AA8A
:104DA000FFF7C0FF03B05DF804FB00000048704748
:104DB000200100200268464BF0B592FBF3F403FBA0
:104DC0001422002ABCBF02F5A83202F5C0724FF4CB
:104DD000616092FBF0F300FB13224FF03C008B600C
:104DE00092FBF0F300FB132204F52F24ACBF04F672
:104DF0006C2404F66B244B600A600723E21C92FBD0
:104E0000F3F3344DC3EBC30394FBF5F5D31A48F623
:104E1000AC6240F2B4578B612F4B304803FB054422
:104E2000B4FBF2F2B4FBF7F3B4FBF0F02244D21A75
:104E300048F69466131A40F26D12B3FBF6F6B3FB14
:104E4000F2F0B3FBF7F33444E31A02FB103303EB45
:104E5000830299240232B2FBF4F25443A61C0524C7
:104E6000B6FBF4F40A2A34BF02266FF00906164492
:104E70004FF4C87202FB05055F1C012E98BF013577
:104E8000B3F5997FA7EB040702D3A3F5997214E059
:104E9000820705D16424B0FBF4F204FB12024AB984
:104EA0004FF4C872B0FBF2F402FB1400B0FA80F2C7
:104EB000520900E001223B331A44A5F26C7500232D
:104EC000CA614D610E61CF600B620846F0BD00BF44
:104ED00080510100B13A02004FC5FDFFB03A020017
:104EE0007047704721000808610008088D00080815
:104EF0009100080800000000000000000000000011
:104F000061020808A502080829010808000000003D
:104F10000000000035010808490108083D14080890
:104F2000E7140808611508083000257320533A2556
:104F3000322E306625252C20513A25322E3066251A
:104F400025200041542B4346554E3D31360D0A0075
:104F5000436F6E74726F6C20506F776572202D20D6
:104F6000004C6F77204C6576656C202D20005075C5
:104F70006D70204F6E202D20005061727469636C3B
:104F80006520506F77657200416C65727473007BA9
:104F900022616C65727456616C7565223A25692CC4
:104FA000202270756D70416D7073223A25692C2036
:104FB0002270756D704D696E73223A25692C20221E
:104FC00062617474657279223A25692C20227465B5
:104FD0006D70223A25692C202272657365747322E4
:104FE0003A25697D004D6F6E69746F72696E675FF7
:104FF0004576656E740050756D70204F6E20526559
:1050000063656976656400537461747573005075E7
:105010006D70204F66662052656365697665640031
:1050200046726F6D20257320746F202573005374B2
:10503000617465205472616E736974696F6E005398
:10504000657420566572626F7365204D6F646500EC
:10505000436C656172656420566572626F7365208A
:105060004D6F6465004E6F20446174610055626944
:10507000646F747320486F6F6B00526573706F6E4E
:105080007365205265636569766564005374617465
:10509000650052756E6E696E67004461696C7920B7
:1050A000436C65616E75700046616C6C734C616B2E
:1050B0006542656176657244616D6E2D46616C6C0A
:1050C000734C616B65332D50756D70436F6E7472E8
:1050D0006F6C0053756273637269626520737563E8
:1050E0006365737366756C00507562537562005327
:1050F0007562736372696265204E6F7420737563A5
:105100006365737366756C005369676E616C0052FA
:1051100065736574436F756E740054656D70657268
:1051200061747572650052656C65617365007374B6
:105130006174654F664368670070756D70416D708E
:10514000730070756D704D696E757465730052658E
:105150007365742D4652414D0052657365742D433D
:105160006F756E747300486172642D526573657457
:105170000053656E642D4E6F7700566572626F73D3
:10518000652D4D6F64650049646C650052657370F0
:105190006F6E73652054696D656F7574204572720A
:1051A0006F72004572726F72205374617465202DA6
:1051B000205265736574004572726F72205374617A
:1051C0007465202D20506F776572204379636C657C
:1051D000004572726F72205374617465202D2046F1
:1051E000756C6C204D6F64656D205265736574003D
:1051F000556E6B6E6F776E004E6F6E650057694629
:10520000690047534D00554D54530043444D4100F0
:105210004C54450049454545383032313534004C11
:1052200054455F4341545F4D31004C54455F434109
:10523000545F4E423100302E343900777269746504
:1052400044617461206661696C656420647572698B
:105250006E67206572617365206672616D4164647A
:10526000723D257500726561642073657420616408
:105270006472657373206661696C656420256400DF
:105280006469646E2774207265636569766520655C
:105290006E6F75676820627974657320636F756ED1
:1052A000743D2575007772697465206661696C6567
:1052B00064202564000000000000000000000000E1
:1052C0005D1308085F1308083D140808E714080870
:1052D0006115080800000000000000000F1D08080C
:1052E000051D0808FB1C08081D020808EF1C08081B
:1052F000E31C0808D71C0808CF1C0808C51C0808B0
:10530000BB1C0808771C0808000000000000000013
:10531000BD1D08083F1E0808BF1D08087D1E08089F
:10532000C51D08084D1E0808E91D08080D1E0808BF
:10533000FCFFFFFF00000000371E0808000000000F
:1053400000000000C51E0808CB1E08080F1F080833
:10535000D91E0808C71E0808000000000000000051
:10536000B5250808FF250808D7250808B725080827
:10537000DF250808E7250808EF250808F7250808AD
:105380000000000000000000FD260808ED260808C7
:10539000EF260808626175640053657269616C00EC
:1053A00055534253657269616C31007479706500C0
:1053B000706172616D00636D6400696400686E64A1
:1053C000007374726D0066696C74006C766C0061B9
:1053D000646448616E646C65720072656D6F7665B9
:1053E00048616E646C657200656E756D48616E64CF
:1053F0006C657273004A534F4E53747265616D4C05
:105400006F6748616E646C65720061707000253072
:1054100031307520005D20002C200028293A200022
:10542000205B00636F6465203D2000256900646592
:105430007461696C73203D200066006C6E00666EBE
:1054400000636F64650064657461696C006E6F6E03
:105450006500747261636500696E666F00776172E2
:105460006E006572726F720070616E696300616CCC
:105470006C00000000000000000000009D270808EC
:10548000A7270808B1270808BB270808C527080868
:10549000D1270808DD270808E9270808F1270808A8
:1054A000FB2708080528080800000000000000008D
:1054B000252A0808272A0808252B3033643A253086
:1054C00032750025592D256D2D25645425483A2522
:1054D0004D3A2553257A0061736374696D65000048
:1054E0000000000000000000052D0808552D0808E8
:1054F000632D080809290808192D08083B2D0808FC
:10550000272D08084F2D0808072D08080B2D08081F
:1055100000000000000000000D2E08085D2E0808A5
:105520006B2E080809290808492E08080F2E0808BC
:10553000252E0808572E08083B2E0808092E0808B3
:105540000020202020202020202028282828282053
:10555000202020202020202020202020202020204B
:1055600020881010101010101010101010101010B3
:1055700010040404040404040404041010101010A3
:10558000101041414141414101010101010101016D
:1055900001010101010101010101010110101010BF
:1055A000101042424242424202020202020202023F
:1055B0000202020202020202020202021010101093
:1055C00020000000000000000000000000000000BB
:1055D00000000000000000000000000000000000CB
:1055E00000000000000000000000000000000000BB
:1055F00000000000000000000000000000000000AB
:10560000000000000000000000000000000000009A
:10561000000000000000000000000000000000008A
:10562000000000000000000000000000000000007A
:10563000000000000000000000000000000000006A
:10564000000000000000000000000000000000005A
:10565000000000000000000000000000000000004A
:10566000000000000000000000000000000000003A
:10567000000000000000000000000000000000002A
:10568000000000000000000000000000000000001A
:10569000000000000000000000000000000000000A
:1056A00000000000430000001F0000001C0000007C
:1056B0001F0000001E0000001F0000001E00000070
:1056C0001F0000001F0000001E0000001F0000005F
:1056D0001E0000001F0000001F0000001D00000051
:1056E0001F0000001E0000001F0000001E00000040
:1056F0001F0000001F0000001E0000001F0000002F
:105700001E0000001F000000545A00474D540025A1
:1057100031305B5E302D392C2B2D5D256E004D25F3
:105720006875256E2E256875256E2E256875256E83
:10573000002F256875256E3A256875256E3A25680F
:1057400075256E00B70008081D1208081316080812
:105750008D1D08088D27080851280808092A0808FF
:10576000E12B0808F12C0808653208089532080872
:1057700005330808C93308084D340808D13408082F
:045780000000000025
:1057840030750000496E697469616C697A6500005E
:1057940000004572726F72000000000000000000FB
:1057A40049646C65000000000000000000005075B2
:1057B4006D70696E67000000000000004C6F772078
:1057C400426174746572790000005265706F72747E
:1057D400696E670000000000526573706F6E736538
:1057E4002057616974000000000000000000000000
:1057F4000000000036520808D00700001E00000018
:10580400C8AF0000F0510808F8510808FD51080815
:1058140002520808065208080B52080810520808D9
:10582400145208081F5208082A520808D7540808B6
:10583400405508080000000044560808645608084B
:10584400845608080000000000000000000000006A
:1058540000000000A456080800000000000000003A
:105864000000000000000000000000000000000034
:105874000000000000000000000000000000000024
:105884000000000000000000000000000000000014
:1058940000000000B40000200B5708080B5708084C
:1058A40001000000000000004A00000000000000A9
:1058B40000000000000000000000000000000000E4
:1058C400000000004A00000000000000000000008A
:1058D40000000000000000000000000000000000C4
:0458E4004C0800204C
:1058E800FFFFFFFF00000102030405060708090A7D
:1058F8000B0C0D0E0F101112131415161718191A78
:085908001B1C1D1E1F202800BE
:04591000785634127F
:0400000508080020C7
:00000001FF
