:020000040808EA
:1000000000000808745E0808000006000A000501E8
:0800100004027E05000000005F
:04001800A0530808E1
:1000200009480A4908B5884205D0094A824202D0E7
:10003000121A04F0E3FC0748074A0021121A04F0E0
:10004000E8FC064808BD00BF00000020E45C08088A
:10005000680100206801002068080020680800206E
:1000600070B503F0C7F9074B074C1E46E41AA40805
:100070000025A54204D056F8253098470135F8E709
:1000800070BD00BFA45C0808E05C080801F048B837
:1000900008B500F0DFFDBDE8084003F06DB901F0E0
:1000A000ABBE01F0B1BE0078B0FA80F040097047F5
:1000B00001230370704701F063BC0000014B002274
:1000C0001A70704779010020014B01221A707047A5
:1000D000B101002003681847012A02D0022A02D089
:1000E00004E0016002E00B6800B10360002070478B
:1000F00008B5044902F04DFE18B1034B05221A70F1
:10010000012008BD455708088C01002008B50449A6
:1001100002F03FFE18B1034801F074FA012008BD57
:100120004557080838020020436913B183690C3031
:100130001847704710B50446024B036001F02AFAD5
:10014000204610BDD053080810B50446FFF7F2FF53
:100150002046102103F07DFA204610BD13B5044659
:100160000021084601F094FB02A90023204641F833
:10017000043D01F0A5FB019C0CB10123237100217A
:10018000012001F085FB2CB1236820469B6898472D
:100190000023237102B010BD38B50949054602F0AD
:1001A000F8FD044618B1074B0120187038BD064908
:1001B000284602F0EEFD10B1024B01201C7038BD44
:1001C0004557080879010020E453080808B5054997
:1001D00002F0DFFD20B10420012103F06CF90120C1
:1001E00008BD00BF4557080808B5002001F0A4FD70
:1001F00028B101F079FD80F00100C0B208BD0120F6
:1002000008BD37B505469DF8184023438DF80030EA
:100210003C2302F001F9284603B030BD002211460C
:10022000406801F0B1BD10B58368044613B10322E4
:1002300001469847204610BD002001F099BB07B544
:100240008068002340B18DE80A001A46022101F0BF
:100250003FFBB0FA80F0400903B05DF804FB0000FA
:1002600038B50F4B0446036083689BB16FF00041C3
:10027000FFF7E5FF0021A06801F03AFB237903F0C6
:10028000FF0513B101F0FCFAF8E72946A06801F078
:100290000FFBA56004F10C00FFF7C5FF204638BD39
:1002A000BC53080810B50446FFF7DAFF20461C21AE
:1002B00003F0CFF9204610BD30B58FB0104904A827
:1002C00001F04EFE04A801F09EFE044604A801F0D1
:1002D000F9FE054604A801F0DDFE03F06BFCCDE954
:1002E0000201284603F066FCCDE90001054B064AF1
:1002F00053F824304021054801F0A6FD0FB030BD71
:100300004802002084000020E6530808E80100208D
:1003100008B50A2003F0FBF803F03AFC14A3D3E974
:10032000002303F09BFC03F0D3FE4FF0665104F072
:100330002DF803F03FFC00220F4B03F0DBFA002204
:100340000E4B03F08BFC03F09BFE03F021FC00221C
:100350000B4B03F083FC00220A4B03F0A9FD0022A3
:10036000094B03F0C9FA03F08BFE084B186008BD77
:100370006666666666660A400000E03F0000594017
:10038000000022400000144000004040AC0100206A
:10039000074B1B68D3F8A820B3F8AC101183D3F82F
:1003A000A820B3F8AC305383024B00221A70704778
:1003B000C0010020B10100202DE9F8432D4D284651
:1003C000FFF72CFF044628BB034602460146686837
:1003D00001F0E2FC234622462146686801F0BCFC9D
:1003E000FFF72AFF0446244E00250027FFF724FFCD
:1003F000001B61EB05018F4208BF864206D31D48F2
:10040000FFF70CFF10B901F057FCEFE71948FFF7B1
:1004100005FFF8B101F094FA184C47F22F5820600C
:1004200001F04AFC01F050FCFFF706FF25460646A6
:1004300000274FF00009FFF7FFFE801B61EB07016B
:10044000894508BF804507D301F04EFC20B901F073
:1004500033FCF0E7002409E001F046FC04460028E4
:10046000F8D001F06DFA286001F026FC2046BDE8C6
:10047000F88300BF480200208F5F0100340700208E
:1004800008B501F031FC80F00100C0B208BD0000E9
:10049000F8B501F021FCFFF7CFFE42F20F760446DB
:1004A00000250027FFF7C8FE001B61EB05018F4206
:1004B00008BF864205D3FFF7E3FF10B901F0FCFB4C
:1004C000F0E70A4CFFF7DCFF00220221606801F030
:1004D00053FC40F6B83001F0DBFC002360681A469C
:1004E000194601F061FC0120F8BD00BF4802002060
:1004F00008B5044802F029FB80F00400C0F3800036
:1005000008BD00BF6C01002010B501F019FA064CBF
:100510002368C01AB0F57A7F04D301F011FA206085
:10052000012010BD002010BD2802002008B5FFF7F3
:10053000EBFF18B1BDE80840FFF7E6BF01F0BCFBD8
:10054000F5E7000010B501F0FBF9074C2368C01A6D
:10055000064B1B68984204D301F0F2F92060012099
:1005600010BD002010BD00BFA401002078000020B5
:1005700037B501F0B1FB01F0E3F943F697250446E6
:1005800001F0B2FB40B101F0DBF9001BA84203D837
:10059000642001F07DFCF3E70021094B47F2305263
:1005A000084601F065F94FF47A7001F071FC054BD3
:1005B0000A221B680121684602F01EFC03B030BD10
:1005C000FF530808B401002038B502F025FD0546A8
:1005D00002F033FD044602F029FD231F062B0ED93D
:1005E000E31E082B0DD801382D1A01D50B2C02E083
:1005F000072D06DD032C14BF0020012038BD01208B
:1006000038BD002038BD38B5046805467CB1636844
:10061000013B63605BB9236820469B689847A368E9
:10062000013BA3601BB923682046DB689847284636
:1006300038BD000010B5174BA4B01C68E00703D507
:10064000154904A804F016FAA10703D5134904A814
:1006500004F010FA620703D5114904A804F00AFA5D
:10066000230603D50F4904A804F004FAFFF75EFF40
:1006700001F03AFB60B10C4B00221B7802A88DF808
:1006800000200A4904AAFFF7BCFD03A8FFF7BBFF3F
:1006900024B010BDA80100200C5408081D540808FF
:1006A0002A540808355408087701002044540808E3
:1006B00000B51A4BC9B01B68194A0493194B4FF483
:1006C00080711B6808A80393174B1B680293174B94
:1006D0001B680193164B1B680093164B1B6801F0B7
:1006E000B3FBFFF723FF144B00221B7813498DF84F
:1006F000002006A808AAFFF784FD07A8FFF783FFDC
:1007000001F01EF90E4B186002F072FC0D4B012235
:1007100018700D4B1A7049B05DF804FBA001002061
:100720004B540808AC0100209C01002098010020D7
:1007300084010020A801002077010020A1540808AE
:1007400088010020B00100203402002010B586B0DE
:1007500008460A2203A904F081FA012804460AD1B6
:100760000E4B1870FFF7E2FE0D4B00221B788DF840
:1007700000200C4A09E078B9084B1870FFF7D6FE44
:10078000074B094A1B788DF8004004A80749FFF77A
:1007900038FD05A8FFF737FF06B010BD790100202E
:1007A00077010020B2540808CA540808C354080846
:1007B00030B5134D13492A780E2303FB0212124C55
:1007C0008FB02078009203FB0013104A282104A860
:1007D00001F03AFB01F088FA70B1FFF7A7FE0C4B6D
:1007E00000221B7802A88DF800200A4904AAFFF70E
:1007F00008FD03A8FFF707FF2B7823700FB030BD6B
:100800008C0100200400002080010020DC54080836
:1008100077010020EA5408080023022201F03CBAC4
:100820000246014801F0D0BC9D21080838B51446A5
:1008300003689D680123A847204638BD38B5144693
:1008400003689D680423A847204638BD38B5144680
:100850000368DD680423A847204638BD1FB50C4651
:1008600039B9FFF763FE1D4B1D4A1B788DF8004018
:100870002BE0084603F0B2FFC83801281DD8194BF9
:100880001B7873B1FFF752FE144B00221B7802A8AD
:100890008DF800201449154AFFF7B3FC03A8FFF7B1
:1008A000B2FE02F09EFB02AA02900E211048FFF752
:1008B000CDFF104B00221A700EE0FFF737FE074BFA
:1008C00000221B788DF80020224602A80A49FFF773
:1008D00098FC03A8FFF797FE04B010BD7701002035
:1008E000FB540808C40100202255080810550808C8
:1008F0003802002034020020035508082DE9FF418A
:10090000504A01215048FFF791FF5048FFF786FCFD
:1009100008B1FFF7D1FCFFF7FBFC4D4801F04AFF9F
:1009200003F0FAFE4B4B4C4E18600C2002F0EFFD2A
:100930004A4B40F6FF7218602023009300231946AB
:1009400001F09AFA3368464F5A1C9042386005DC31
:10095000013B9842ACBF0025012500E00125414C38
:1009600000232360404BDFF8DC801B68D3F8BC22F7
:10097000B3F8C0121269114204BF01222260D3F8F9
:10098000F422B3F8F8321269134202BF236843F02D
:1009900002032360354B1B78C3B1236843F0040383
:1009A000236098F80030990735D402F01AFB304ADA
:1009B0000A2110602448FFF749FF98F8003004AA84
:1009C00043F0020342F8043D012121E098F8003091
:1009D0009A0720D504AA83F0020342F8043D0121BE
:1009E0001948FFF733FF02F0FCFA214BDFF8908043
:1009F000196803F005FF00221E4B03F059FA03F0BB
:100A00003FFB4246D8F8003006211844C8F80000E1
:100A10000D48FFF71BFFFFF76BFD18B1236843F08C
:100A200080032360144B22681978914200D115B1DC
:100A30001249052008701A703B68336004B0BDE8A5
:100A4000F08100BF3502002038020020480200205B
:100A5000900100209C0100207C0100203002002039
:100A600084010020A8010020C0010020790100209D
:100A7000C801002000004E40780100208C010020B9
:100A80009801002037B50F4902F083F90024B0B176
:100A900002AD45F8044D2A4603210B48FFF7D6FE68
:100AA0000A4B2A461C600A4B06211C70094B06485B
:100AB0001C600194FFF7CAFE074B01201C6003B0C5
:100AC00030BD00BF4557080838020020A0010020B3
:100AD0003402002098010020A801002038B51446F7
:100AE0000368DD680123A847204638BD30B5244996
:100AF00085B0044602F04DF90546D0B1214D0124E0
:100B0000214B2A46214621481C70FFF78FFE2B7887
:100B10002A4643F0080321461C482B70FFF7DEFFEE
:100B2000FFF704FD1A4B00221B788DF80020194AAC
:100B30001CE01949204602F02CF9F8B1114C124B77
:100B40002246012111481D70FFF770FE23782246CE
:100B500023F0080301210D482370FFF7BFFFFFF7C3
:100B6000E5FC0B4B0D4A1B788DF800500C4902A890
:100B7000FFF747FB03A8FFF746FD012005B030BD96
:100B80004557080835020020C40100203802002023
:100B90007701002028550808E4530808395508084B
:100BA00049550808F0B5244D85B02A46012123484F
:100BB000FFF73CFEFFF7BAFC214B00241B78214ACB
:100BC000214902A88DF80040FFF71BFB03A8FFF79F
:100BD0001AFD1E4B02AA1C702B78062123F0080375
:100BE0002B701B4B15481C600294FFF72FFE01F081
:100BF0007BF810B1204601F097F8FFF71DFB47F294
:100C00002F56044600250027FFF716FB001B61EB5B
:100C100005018F4208BF864205D3FFF7E5FA10B9F8
:100C200001F04AF8F0E7FFF7DFFA034A0121034831
:100C3000FFF754FF05B0F0BD350200203802002058
:100C4000770100204E55080856550808C4010020B9
:100C50009801002070B5A34C86B02378013B052B8A
:100C600000F2C781DFE813F0E000060046005D00F7
:100C700084009B009C4B1B782BB19C4B1B78022B58
:100C800001D0FFF795FD9A4B1B7883B1FFF74EFC1F
:100C9000984B00221B7898498DF8002004A8974AA9
:100CA000FFF7AFFA05A8FFF7AEFCFFF771FB02F004
:100CB0009FF9934B1B7898421CBF05232370914BDF
:100CC0001A68914B1B689A42DCBF042323708F4B38
:100CD0001B78002B40F054810E2002F005FC002808
:100CE00040F04E81FFF72EFC002800F08281FFF7D4
:100CF00005FE7EE17C4B1B782BB17C4B1B78032BD4
:100D000001D0FFF755FD814B1A781E46002A00F0EE
:100D10003A810E2002F0E8FB0546002800F04B81E6
:100D200031E1714B1B782BB1704B1B78042B01D038
:100D3000FFF73EFD00F0D8FF08B1FFF7A9FB002147
:100D4000072002F0B8FB00210E2002F0B4FB0021C6
:100D50001D2002F0B0FB02F055F96D4BC0F13C00D4
:100D60003C2242431B68012104A802F045F840E1FF
:100D70005D4B1B782BB15D4B1B78052B01D0FFF72A
:100D800017FD00F0B1FF00282FD0624B1B680BB19C
:100D9000FFF750FCFFF78CFC0623237029E1524B30
:100DA0001A781D461ABB5C4B1B783BB300F0C8FD9C
:100DB0005A4B1B68C01A5A4B1B689842C0F01981E5
:100DC00000F0BEFD574B18602B7873B1FFF7AEFBF8
:100DD000484B00221B7804A88DF800204649524A4F
:100DE000FFF70FFA05A8FFF70EFC0123D5E73F4BED
:100DF0001B78062BD7D0FFF7DBFCD4E702F0F8F81E
:100E0000022809D102F0CCF830B1FFF7DDFB002851
:100E100000F0EC8002F092F802F0EAF808B1022348
:100E2000BBE7FFF7BFFEFAE72F4B1B782BB12F4B29
:100E30001B78012B01D0FFF7BBFC03AA0E213B4816
:100E4000FFF7FCFC00F07CFD364B1B68C01A384BEA
:100E50001B689842C0F0CD80364B1B68032B18DC12
:100E6000FFF764FB00F040FF60B1224B00221B78CB
:100E700004A88DF8002020492F4AFFF7C2F905A8E1
:100E8000FFF7C1FB4FF4FA6001F002F801F0B0FF88
:100E9000AFE002F0A6F8039BC01AB0F5E15F4FD9AE
:100EA000FFF744FB00F020FF60B1124B00221B78DB
:100EB00004A88DF800201049204AFFF7A2F905A8E0
:100EC000FFF7A1FB4FF4FA6000F0E2FF002304AA51
:100ED000032116480493FFF7B9FC0121042002F016
:100EE000EAFA86E08C010020C40100208001002085
:100EF000B101002077010020225508086455080838
:100F0000B00100209C0100207C000020790100201D
:100F1000B4010020A8010020340200208801002034
:100F2000800000202C0200207255080838020020A2
:100F300000000020A0010020895508089D550808E0
:100F4000FFF7F4FA00F0D0FE60B12B4B00221B78C3
:100F500004A88DF800202949294AFFF752F905A86D
:100F6000FFF751FB4FF4FA6000F092FF002304AA50
:100F7000032124480493FFF769FCFFF7F9FA38E0EE
:100F800003232370AEE63578002D7FF448AF0E20A2
:100F900002F0AAFA00283FF442AF29460E2002F0E0
:100FA0008AFA2946072002F086FA6FF000411648B7
:100FB000FFF745F933E701210E20134E02F07BFACB
:100FC0000121072002F077FA29463046FFF737F96A
:100FD000B06800283FF423AF6FF000430093019501
:100FE0002B462A46294600F073FC18E701F0B0FFB3
:100FF00012E706B070BD00BF770100202255080837
:10100000B755080838020020CC010020000000007D
:1010100030B5CDB0054601F0E4FF0A22044605A92B
:10102000286803F01BFE03460C33DBB240B2182BDA
:101030008DF813005ED803F055F901F063FF0DF150
:10104000130202213048FFF749FD9DF913302F4A62
:101050004FF480710CA800F0F7FEFFF767FA01F07B
:101060009FFF38B1FFF7B0FA10B101F067FF01E060
:1010700001F06EFF01F038FF054601F0B2FF281ABB
:1010800002F086FD1EA3D3E9002302F011FF204ADF
:10109000CDE900010A211F4800F0D6FE00F024FE31
:1010A00060B11D4B00221B7808A88DF800201B4959
:1010B0000CAAFFF7A6F809A8FFF7A5FAFFF736FA7A
:1010C00000F012FEC0B1214608A801F047FF089BBE
:1010D00000220393104B11491B7806A88DF80020BD
:1010E000039AFFF78EF807A8FFF78DFA08A801F01A
:1010F000DCFD01E0002000E001204DB030BD00BF6C
:10110000000000000020AC4038020020D65508083E
:10111000F05508086D01002077010020FA550808F5
:1011200010B50121A8B00E2002F0B4F900210C2066
:1011300002F0B0F90021192002F0ACF900211B20C7
:1011400002F0A8F90021052002F0A4F901210720EE
:1011500002F0A0F901211D2002F09CF901211D20BF
:1011600002F0A9F90121042002F094F900211120D4
:1011700002F090F9844B00241B680121D3F8A820C9
:10118000B3F8AC300620538302F084F94FF0FF33FC
:1011900001227E490094112001F0A4FB04A800F074
:1011A000ABFD23467D2208A904A801F004FE2346D6
:1011B000224677490194009408A800F0ADFD23462B
:1011C0000194009422467349734800F0A5FD734BC7
:1011D0001B7818B18DF80040714A02E0714A8DF811
:1011E0000000714902A8FFF70CF803A8FFF70BFAFB
:1011F0006E4C6F496F48FFF70FFB002304226E49C6
:101200006E4800F049FD21466D48FFF705FB6D492A
:101210006D48FFF701FB6D490023042209686C4803
:1012200000F03AFD6B496C48FFF7F6FA6B496C48E1
:10123000FFF7F2FA6B496C48FFF7EEFA002304223D
:101240006A496B4800F028FD6A496B48FFF7E8FAE5
:101250006A496B48FFF7E4FA6A496B48FFF7E0FA1E
:101260006A496B48FFF7DCFA6A496B48FFF7D8FA1E
:101270006A496B48FFF7D4FA6A496B48FFF7D0FA1E
:1012800000F022FD694800F0B3F9224603216748C7
:10129000FFF7D4FA0022114602A8029200F040FBA8
:1012A000029B142B07D123682246013303215F4898
:1012B0002360FFF7CBFA5E4C012122465B48FFF723
:1012C000B5FA23785B4AC3F3C00313700621454A7D
:1012D0005648FFF7B3FA23789B0704D5564A0A21EC
:1012E0005248FFF7ABFA02AA02215048FFF79EFAD4
:1012F0009DF808300C33DBB2182B07D9FB2302AA68
:1013000002214A488DF80830FFF7E8FB9DF90800F4
:1013100002F0E8FF01F0F6FD01F0E6FD044601F001
:1013200060FE201A02F034FC15A3D3E9002302F07A
:10133000BFFD424ACDE900010A212C4800F084FD9E
:101340003F4801F037FA03F0E7F9224B18603D4BB4
:101350001B68984201DDFFF72FF86FF000413A4813
:10136000FEF76DFF394B04A81A78012A1CBF022230
:101370001A7001F09AFC28B010BD00BFAFF30080D6
:10138000000000000020AC40C0010020C900080897
:101390005D0808084D070808FF5508087701002078
:1013A0002A560808465608083F560808A00100209B
:1013B000A80100205F560808E80100206A560808C6
:1013C00071560808AC0100207C5608087400002003
:1013D000885608089C0100209056080884010020C7
:1013E0009B56080898010020A45608086D010020AB
:1013F000B05608080D010808BB56080899010808EE
:101400001E560808850A0808C6560808CD010808AF
:10141000D3560808F1000808DE560808ED0A080847
:10142000E756080811100808F4560808380200208A
:1014300035020020C4010020C8010020F055080832
:10144000900100207C000020CC0100208C010020B5
:101450002DE9F0413B4B00241C603B4B88B04FF022
:10146000010883F8008000F08BFA4FF6FF72374BCB
:10147000374D1860374B02201C705C809A8000F05A
:10148000BFFB2146404600F0D3FB4146042000F05C
:1014900037FA314F2146284601F04CF928462F4DA6
:1014A0003A462F4902F0D0F82146284601F005FBC4
:1014B0003A462C49284602F0C7F802F03FF82A4D78
:1014C000234601464FF40052284600F087F8274B88
:1014D0003A46274928462B6002F0B6F8254B02AA67
:1014E000049304AE244D96E80300244B82E80300E5
:1014F0002B6005F10C0393E8030086E8030092E8F3
:10150000030083E803001E4B2C716B61AB69AC6078
:1015100007931C4B1C4AAB611C492B460194CDF828
:10152000008005F10800069400F0BAF93046FEF795
:101530007AFE3A461649284602F086F808B0BDE819
:10154000F08100BFB401002077010020C00100201D
:1015500090010020B8010020680100206C010020EB
:1015600053270808D92A080838020020D053080851
:1015700035010808BD000808CC010020BC5308084C
:10158000D9000808D50008085D01080880EE36007B
:1015900061020808704710B50446102102F059F89E
:1015A000204610BD0368C9B29B6818470EB400B549
:1015B0008CB00DAA52F8041B20238DE8060003927C
:1015C00004930168002304AA1E20059300F008FB81
:1015D0000CB05DF804EB03B07047000030B5034D6C
:1015E000416005608260C36030BD00BFD05708080D
:1015F000406801F041B910B50446006801F068F98F
:10160000204610BD2DE9F041074640688AB00190A0
:1016100001F055F91E22002102A8BE6803F0F9F975
:101620000025DEB1B0463B681E2E28BF4FF01E08D5
:10163000DC6802AA434629463846A047044648B912
:101640002A460A490A48FFF7B1FF01A8FFF7D3FF6E
:10165000204607E0C8EB06064544E2E701A8FFF78D
:10166000CAFF01200AB0BDE8F08100BF4C5708084E
:10167000780200202DE9F347044640680E461746DD
:101680009846019001F01BF9B8F1000F01D1012437
:101690003EE0E168606841F0500101F005F9310A6F
:1016A0006068FFF77FFF31466068FFF77BFF00212E
:1016B000606801F0FCF808B1002429E0C146B8F1E7
:1016C000200FE16828BF4FF0200901234A4641F06E
:1016D0005001606801F0DFF801F030FF03681B691A
:1016E00098478145E8DC3D46C7EB060A01F026FF36
:1016F00003685B69984705F8010BEA1BC5EB080313
:10170000914505EB0A063B44F0D898462F46BBE7C7
:1017100001A8FFF770FF204602B0BDE8F0872DE971
:10172000F347044640680D4690461F46019001F07D
:10173000C6F84FB3E168606841F0500101F0B4F8B9
:10174000290A6068FFF72EFF29466068FFF72AFF25
:10175000464608F11E09C8EB050A606816F8011B29
:10176000036806EB0A059B689847B145B04607F148
:10177000FF3701D0002FF0D10121606801F097F808
:101780000028D6D0002400E0012401A8FFF733FF91
:10179000204602B0BDE8F0872DE9F0430E4615461D
:1017A000804640688BB01C46019001F088F8AE423C
:1017B00023D2264425440CB901243FE027461E2CA1
:1017C00028BF1E27D8F80030F61BD3F8089002AACD
:1017D0003B4631464046ED1BC84708B900242DE082
:1017E000D8F8003002AAD3F80C9029463B46404670
:1017F000C8470028F2D0E41BDDE7DDD9002CDBD0A0
:1018000027461E2CD8F8003028BF1E27D3F8089092
:1018100002AA3B4631464046C8470028DED0D8F8E9
:10182000003002AAD3F80C9029463B464046C847F0
:101830000028D3D03E443D44E41BDFE701A8FFF776
:10184000DAFE20460BB0BDE8F08300F099B8000046
:1018500008B5024B1B68DB6B019308BD200006082E
:1018600008B5024B1B685B6C019308BD200006089D
:1018700008B5024B1B689B6C019308BD200006084D
:1018800008B5024B1B68DB68019308BDD001040852
:1018900008B5024B1B68DB69019308BDD001040841
:1018A00008B5024B1B681B6A019308BDD0010408F0
:1018B00008B5024B1B685B6A019308BDD0010408A0
:1018C00008B5024B1B689B6A019308BDD001040850
:1018D00008B5024B1B68DB6A019308BDD001040800
:1018E00008B5024B1B681B6B019308BDD0010408AF
:1018F00008B5024B1B681B6F019308BDD00104089B
:1019000008B5024B1B685B6E019308BDB801040863
:1019100008B5024B1B689B6E019308BDB801040813
:1019200008B5024B1B68DB6E019308BDB8010408C3
:1019300008B5024B1B685B68019308BD9C01040855
:1019400008B5024B1B685B69019308BD9C01040844
:1019500008B5024B1B68DB69019308BD9C010408B4
:1019600008B5024B1B689B6D019308BD9C010408E0
:1019700008B5024B1B68DB6D019308BD9C01040890
:1019800008B5024B1B681B68019308BDB001040831
:1019900008B5024B1B685B68019308BDB0010408E1
:1019A00008B5024B1B689B68019308BDB001040891
:1019B00008B5024B1B68DB68019308BDB001040841
:1019C00008B5024B1B681B69019308BDB0010408F0
:1019D00008B5024B1B685B69019308BDB0010408A0
:1019E00008B5024B1B689B69019308BDB001040850
:1019F00008B5024B1B68DB69019308BDB001040800
:101A000008B5024B1B681B6B019308BDB0010408AD
:101A100008B5024B1B68DB68019308BDAC010408E4
:101A200008B5024B1B685B69019308BDAC01040853
:101A300008B5024B1B689B69019308BDAC01040803
:101A400008B5024B1B68DB69019308BDAC010408B3
:101A500008B5024B1B681B6A019308BDAC01040862
:101A600008B5024B1B685B6A019308BDAC01040812
:101A700008B5024B1B689B6A019308BDAC010408C2
:101A800008B5024B1B68DB6A019308BDAC01040872
:101A900008B5024B1B681B6B019308BDAC01040821
:101AA00008B5024B1B685B6B019308BDAC010408D1
:101AB00008B5024B1B681B6C019308BDAC01040800
:101AC00008B5024B1B689B6C019308BDAC01040870
:101AD00008B5024B1B68DB6C019308BDAC01040820
:101AE00008B5024B1B68DB69019308BDB40104080B
:101AF00008B5024B1B681B6A019308BDB4010408BA
:101B000008B5024B1B689B69019308BDC40104081A
:101B100008B5024B1B685B6A019308BDC401040849
:101B200008B5024B1B689B6A019308BDC4010408F9
:101B300008B5024B1B68DB6A019308BDC4010408A9
:101B400008B5024B1B681B6B019308BDC401040858
:101B500008B5024B1B685B6B019308BDC401040808
:101B600008B5024B1B689B6B019308BDC4010408B8
:101B700008B5024B1B681B6C019308BDC401040827
:101B800008B5024B1B681B68019308BD1C000608C2
:101B900008B5024B1B681B69019308BD1C000608B1
:101BA00008B5024B1B685B69019308BD1C00060861
:101BB00008B5024B1B689B69019308BD1C00060811
:101BC00008B5024B1B68DB69019308BD1C000608C1
:101BD00008B5024B1B681B6A019308BD1C00060870
:101BE00008B5024B1B685B6D019308BDA00102089C
:101BF00008B5024B1B681B68019308BDA4010408CB
:101C000008B5024B1B685B68019308BDA40104087A
:101C100008B5024B1B685B69019308BDA401040869
:101C200008B5024B1B689B69019308BDA401040819
:101C300008B5024B1B68DB6A019308BDA4010408C8
:101C400008B5024B1B68DB6C019308BDA4010408B6
:101C500008B5024B1B685B6D019308BDA401040825
:101C600008B5024B1B689B6D019308BDA4010408D5
:101C700008B5034B1B68D3F89030019308BD0000F2
:101C8000A401040808B5034B1B68D3F89C300193EA
:101C900008BD0000A401040808B5024B1B681B68BE
:101CA000019308BDCC01040808B5024B1B685B68B2
:101CB000019308BDCC01040808B5024B1B689B6862
:101CC000019308BDCC01040808B5024B1B68DB6812
:101CD000019308BDCC01040808B5024B1B681B69C1
:101CE000019308BDCC01040808B5024B1B685B6971
:101CF000019308BDCC01040808B5024B1B68DB69E1
:101D0000019308BDCC01040808B5024B1B681B6A8F
:101D1000019308BDCC01040808B5024B1B685B6A3F
:101D2000019308BDCC01040808B5024B1B68DB6AAF
:101D3000019308BDCC01040808B5024B1B681B6B5E
:101D4000019308BDCC01040808B5024B1B68DB6B8E
:101D5000019308BDCC01040808B5024B1B685B6801
:101D6000019308BDC801040808B5024B1B689B68B5
:101D7000019308BDC801040808B5024B1B68DB6865
:101D8000019308BDC801040808B5024B1B681B6914
:101D9000019308BDC801040808B5024B1B685B69C4
:101DA000019308BDC801040808B5024B1B689B6974
:101DB000019308BDC801040808B5024B1B68DB6924
:101DC000019308BDC801040808B5024B1B681B6AD3
:101DD000019308BDC801040808B5024B1B681B6BC2
:101DE000019308BDC801040808B5024B1B685B6B72
:101DF000019308BDC801040808B5024B1B681B68A5
:101E0000019308BDA001040808B5024B1B685B687C
:101E1000019308BDA001040808B5024B1B689B682C
:101E2000019308BDA001040808B5024B1B681B699B
:101E3000019308BDA001040808B5024B1B689B690B
:101E4000019308BDA001040808B5024B1B68DB69BB
:101E5000019308BDA001040808B5024B1B68DB6AAA
:101E6000019308BDA001040808B5024B1B681B6B59
:101E7000019308BDA00104088A4230B507D0039D34
:101E8000441AED1A6C43521A94FBF2F4E01830BD78
:101E90000021FFF7BDBE10B5836804460BB901F001
:101EA000DAFBC3689847A3681BB10322214620468A
:101EB00098472046BDE81040102101F0CABB2DE92B
:101EC000FF41002604AC054610468846174644F8F4
:101ED000046D02F00CFE009681B2D8F80430224660
:101EE0003846FFF7B5FC20B13146284600F054FDD6
:101EF00003E02146284600F047FD284604B0BDE82F
:101F0000F081002211464068FFF75EBF00221146B3
:101F10004068FFF769BF00224068FFF75DBF0022FD
:101F200081F001014068FFF747BF00231A461946B8
:101F30004068FFF739BF00231A4619464068FFF78B
:101F40002BBF002211464068FFF70EBF002202217E
:101F50004068FFF711BF00231A464068FFF7FCBE38
:101F6000F0B50F461A4B002503601826283389B0B8
:101F700043608560C560324629460446103002F051
:101F800048FD2A4629467868FFF7FEFE08B9A0609A
:101F90001BE02946324602A80095019502F039FD62
:101FA00002A96846ADF80860FFF75AFC10B101239A
:101FB000A3600AE0009B019AA360E2600BB90223D0
:101FC000A36002A9204600F095F8204609B0F0BDB4
:101FD0002058080838B5084C28252A4600212046F4
:101FE00002F017FD4FF0FF336360044B04225A6088
:101FF000034A25801A6038BD5002002048020020A4
:10200000EC5708087047007D7047000008B5037D55
:102010001BB18069B0F1004F01D1002008BD02F072
:1020200061F9024902F066FA08BD00BF0000C8422B
:1020300008B5037D1BB1006AB0F1004F01D100204B
:1020400008BD02F04FF9024902F054FA08BD00BF82
:102050000000C84270B50D4606460A22816828462F
:1020600000F0EDFD2C210446284600F097FD0A22E1
:102070000444F168284600F0E2FD204470BDA0F160
:102080000400FFF7E7BF10B50446282101F0E1FA8C
:10209000204610BD08B5037D5BB1406A002808DB0F
:1020A00002F020F9044902F025FA044902F06EF921
:1020B00008BD034808BD00BF00FF7F470000C842BD
:1020C000000080BF08B5037D5BB1C069002808DB54
:1020D00002F008F9044902F00DFA044902F056F939
:1020E00008BD034808BD00BF00FF7F470000C8428D
:1020F000000080BF30B50D4600F110040FCD0FC4B5
:1021000095E8030084E80300012030BD70470020FB
:10211000704710B50446102101F09BFA204610BD0F
:1021200008B508B1FFF7F5FF08BD002202604FF6C1
:102130009C72828010B5B1F9044084808A80026864
:102140000C6804600A6010BD10B504460068FFF713
:102150005BFE204610BD38B5C468F4B12378022B6D
:1021600003D104F10C00FFF7EFFF656835B1284695
:10217000FEF759F81021284601F06BFAA56835B131
:102180002846FEF750F81021284601F062FA204652
:10219000BDE83840142101F05CBA38BD10B588B0F4
:1021A0000446684600F0C8FD694604A800F0E6FD54
:1021B00004A8A047044604A800F077FD684600F094
:1021C00074FD204608B010BDF0B507460E46154612
:1021D00085B0102422460021684602F01AFC002235
:1021E00069461046ADF80040029703960195FFF747
:1021F0005BFD05B0F0BD13B5044691E80500002372
:102200004B600B602060626001A801930093FEF7B1
:10221000FAF9204602B010BD0B68036013B15A688A
:1022200001325A607047F7B50C4606460F4654F81F
:10223000043B02AD45F8083D214601A8FFF7ECFF3D
:1022400029463046FFF7D7FF01A8FEF7DCF9204604
:10225000FEF7D9F93846082101F0FBF9304603B002
:10226000F0BD13B50B46044603C88DE8030093E8A0
:10227000030084E803009DE8030083E8030002B044
:1022800010BD000038B500230446036010200D4641
:10229000FDF705FF28B1012343608360024BC56051
:1022A00003602060204638BD54580808826810B585
:1022B0000AB901F0D0F9C368BDE81040184708B565
:1022C000006800F11001FFF7F1FF08BD826810B54A
:1022D0000AB901F0C0F9C368BDE81040184708B555
:1022E000006800F11001FFF7F1FF08BD38B50023C9
:1022F00083608B6804460D462BB102229847EB6839
:10230000E360AB68A360204638BD0000F0B589B03B
:1023100004686846FFF709FF4FF0020200238DF8BA
:102320000830D4E84F3F002B03D1C4E8412F0029E7
:10233000F7D102D08DF8083063E014F10C0503D01A
:1023400069462846FFF7F1FEBFF35F8F01236370F4
:10235000BFF35F8F04F10803002053E8006F43E8E8
:102360000002002AF9D1BFF35F8F002E49D0FFF79A
:1023700067FC20B129463046FFF798FF3AE0314626
:1023800002A8FFF7B3FFE068B4F9105008B102F0FB
:1023900093FB06901020ADF81C50FDF780FE05461B
:1023A000E8B1002787601820FDF779FE044688B160
:1023B0000146876002A8FFF754FF049BA268A36050
:1023C000059B0492E26806A9E36004F110000592FF
:1023D000FFF7ABFE0D4B2C60EB600D4BAB6006A81E
:1023E000FFF7B2FE02A8FDF71EFF002229460948AA
:1023F000FFF72EFC3046FDF716FF1021304601F0A6
:1024000028F96846FFF7A0FE09B0F0BDBF22080812
:1024100035250808971E08082DE9F04F8BB00646B1
:102420000F46904699469DF850A0FFF75DFC07AD1A
:10243000834630BB4FF62E73059005A92846ADF8AC
:102440001830FFF772FE1420FDF729FE044658B13C
:102450000223037001234370C0F804B0C0F808B031
:1024600029460C30FFF761FE3046214640F8044B08
:10247000FFF708FF2846FFF767FE05A8FFF764FE91
:1024800052E000240C2314206C60AC600793FDF72D
:1024900006FE014618B1047044704460846004A8CC
:1024A0000391FFF7EFFE224B08200893FDF7F7FD9D
:1024B000044628B1039B04A940F8043BFFF7ACFE97
:1024C00000955FFA8AF34A46414638460994FFF779
:1024D0001BFC20B9039B5B7803F0FF0283B1039BD5
:1024E00004A906A80593FFF797FE05A93046FFF754
:1024F00082FE06A8FEF787F804A8FEF784F813E02A
:102500004FF69C7305A903A80592ADF81830FFF7A4
:10251000FDFE05A8FFF718FE05A80999FFF783FE41
:1025200006A8FEF770F8DAE730460BB0BDE8F08F8A
:10253000A5260808022AF8B5044606D0032A17D0B3
:10254000012A22D10B6803601FE018200E68FDF7F6
:10255000A6FD054650B13146FFF7C8FE3069B6F911
:10256000147008B102F0A8FA2861AF8225600CE06F
:10257000046854B104F11000FFF7E6FD2046FDF7B2
:1025800052FE1821204601F064F80020F8BD38B54D
:10259000002383608B6804460D462BB102229847C6
:1025A000EB68E360AB68A360204638BD022A70B5D3
:1025B000044606D0032A11D0012A18D10B68036003
:1025C00015E014200E68FDF76AFD054620B131467E
:1025D000FFF7DDFF337C2B74256008E0046834B11D
:1025E0002046FDF720FE1421204601F032F800209D
:1025F00070BD0000F0B50C46BFF35F8F87B00023BD
:1026000050E8006F40E80032002AF9D1BFF35F8F35
:10261000002E3FD01846FFF713FB074620B1214696
:102620003046FFF753FE2EE0314601A8FFF7AFFF1B
:10263000237810208DF81430FDF731FD0546D0B118
:1026400087601420FDF72BFD044678B187600146B2
:1026500001A8FFF706FE039BA268A360049B0392F8
:10266000E268E3609DF81430049223740A4B2C60F6
:10267000EB600A4BAB6001A8FDF7D5FD00222946AF
:102680000748FFF7E5FA3046FDF7CDFD102130464B
:1026900000F0DFFF07B0F0BDDF220808AD25080815
:1026A000971E080830B5044685B00D4668461146A9
:1026B000FFF7B9FD7CB124B228460DB102F0FCF958
:1026C000029002A96846ADF80C40FFF71FFE02A871
:1026D000FFF73AFD1DE04FF0010200988DF8084029
:1026E000D0E84F3FA34203D1C0E8412F0029F7D1E2
:1026F00002D08DF808300CE010F10C014FF001030E
:1027000018BF0373BFF35F8F043000F8033CFFF77B
:1027100071FF01A8FDF777FF05B030BD006800F03C
:10272000CEB810B50446016002710AB1FFF7F6FF9A
:10273000204610BD38B504460D4600F01FFF2A465E
:1027400001462046FFF7EDFF204638BD006800F047
:10275000BFB810B5037904460BB1FFF7F7FF204669
:1027600010BDF8B504460F4616461D46FFF7D6FFC6
:102770002068362100F098F82068394603689B6885
:1027800098470121206800F092F8022236210123A7
:10279000206800F080F8206803685B699847307013
:1027A000206803685B69984728702046BDE8F840B8
:1027B000FFF7CCBF13B5002202AB03F8012D8DF853
:1027C000062004210DF10602FFF7CBFF9DF807005C
:1027D00001F0DEF90022084B01F040FA01F078FC2C
:1027E00004469DF8060001F07DFD0146204601F0FB
:1027F000C5FC02B010BD00BF0000703F7047F8B5C7
:10280000064615460C468F18BC4206D0336814F8AD
:10281000011B9B6830469847F6E72846F8BD002222
:10282000007CFFF715B90021007CFFF719B90021E2
:10283000007CFFF71DB90021007CFFF721B90021C2
:10284000007CFFF725B910B50446142100F001FF04
:10285000204610BD10B5044608464FF47A73A360B5
:10286000044B0021207461602360FFF721F92046AA
:1028700010BD00BF7058080800231A461946007C96
:10288000FFF7C6B813B50024007C0094FFF7C8F822
:10289000C0B202B010BDDBB2D2B2C9B2FFF7F2BF14
:1028A0000022007CFFF7C4B8C9B2FFF7F9BF0022CD
:1028B000007CFFF7C5B80021007CFFF7F1B808B530
:1028C0000021007CFFF7FCF8B0FA80F0400908BD59
:1028D00008B50021007CFFF7FBF8B0FA80F0400952
:1028E00008BD0047F0B51C4685B00E4617460546A4
:1028F000FFF77EF8002084424FF0040303908DF828
:102900000C30B4BF03469DF828303246A4BF8DF882
:102910000E3003AB009306493B462846A8BF8DF80E
:102920000D40FFF75DF8B0FA80F0400905B0F0BD4A
:10293000E3280808704710B50446082100F089FE16
:10294000204610BDF8B50F4600F10806051D00240D
:1029500016F8011D0A22384600F04DF9AE42044433
:1029600007D0002CF4D02E21384600F017F904448B
:10297000EEE72046F8BD0000024A026000224260F5
:10298000704700BF98580808024A02600A6842600F
:10299000704700BF98580808014A416002607047BC
:1029A0009858080810B59DF8084044EA032343EA04
:1029B000024242EA0161416010BD000037B5044D9A
:1029C00005609DF818500095FFF7ECFF03B030BD8F
:1029D00098580808014A024B1A6070471A590808AB
:1029E0007802002000231A464068FFF7B5B900229C
:1029F00002214068FFF7C0B9002211464068FFF786
:102A0000B3B9002211464068FFF7BEB900231A4649
:102A100019464068FFF7C0B900231A4619464068B6
:102A2000FFF7C2B9002281F001014068FFF7C4B985
:102A300000224068FFF7D0B9002211464068FFF736
:102A4000D3B9002211464068FFF7BEB9F0B517466A
:102A500087B0054604A8FFF78FFF002606AC38466E
:102A600044F80C6D02F043F80A4B009681B25B68A3
:102A700022463846FEF7ECFE20B131462846FFF7E5
:102A80008BFF03E021462846FFF77EFF284607B06C
:102A9000F0BD00BF48020020024B034A1A6000222A
:102AA0005A6070477C0200208859080808B500F079
:102AB00065FDBDE80840FFF702BF10B50446017090
:102AC00009B1FFF7F3FF204610BD08B500F056FD31
:102AD000BDE80840FFF7FCBE10B5037804460BB113
:102AE000FFF7F3FF204610BD10B504460068FFF75E
:102AF000ECFF204610BD37B502AC0D4644F8040D7E
:102B0000FFF7D4FF00F03AFD6B21FFF7CDFE00F098
:102B100035FD036829469B68984700F02FFD012189
:102B2000FFF7C5FE00F02AFD01231A466B21FFF7CF
:102B3000B2FE00F023FD03685B6998470546204616
:102B4000FFF7D2FFE8B203B030BD0821FFF7D3BFD3
:102B5000F8B506460D468F180024BD420CD03368E8
:102B600015F8011B9B6830469847002801DB044498
:102B7000F3E7002C08BF04462046F8BD70B50546B3
:102B80000C46084649B101F0B2FF2B6802462146C7
:102B90002846BDE87040DB68184770BD03689B6835
:102BA0001847012A98BF0A2230B50B468BB0002186
:102BB0008DF824100DF12304B3FBF2F505FB12335D
:102BC000DBB2092B94BF30333733DBB2214604F834
:102BD00001392B46002DEFD1FFF7D0FF0BB030BDF0
:102BE00010B422B90368C9B29B6810BC1847D2B2AE
:102BF00010BCFFF7D6BFFFF7F3BF2DE9F041074642
:102C00000E4615462AB9BDE8F0410368C9B29B6873
:102C100018470A2A02D1002901DA04E0D2B2BDE83D
:102C2000F041FFF7BEBF2D21FFF7B8FF2A4604464B
:102C300071423846FFF7B5FF2044BDE8F081FFF749
:102C4000DCBF10B50446FDF7EEFA204610BD0000CB
:102C5000034800238360034A034900F0F5BC00BF2A
:102C60008402002068010020432C0808704710B53A
:102C70000446102100F0EDFC204610BD70B504465E
:102C80000E46074B0025036040F80C5FFEF728FE58
:102C900030462671FEF724FFA560204670BD00BFB8
:102CA000BC5908080079FEF723BF10B50446006838
:102CB000FFF7AAF8204610BD10B50446006808B119
:102CC000FFF7A2F800232360A360636010BD38B54E
:102CD00004460D4600680131FFF79EF810B184E804
:102CE0002100012038BD10B50368044613B14368C4
:102CF0008B4207D22046FFF7EAFF20B1A3680BB949
:102D000022681370012010BD70B50E4611460446AE
:102D10001546FFF7E8FF18B92046FFF7CDFF09E099
:102D20002A463146A560206801F068FE2268A36843
:102D30000021D154204670BD38B5002304460360FD
:102D40004360836003730D4639B1084601F0CFFE3E
:102D5000294602462046FFF7D7FF204638BD884265
:102D600010B50B46044607D0096819B19A68FFF7F9
:102D7000CBFF01E0FFF7A0FF204610BD10B50446D1
:102D800000230360436083600373FFF7E8FF20467E
:102D900010BD08B582680B4612B919B9012008BDEB
:102DA00011B90368187802E0006801F072FEB0FA09
:102DB00080F0400908BD70B50E469AB191B18568A2
:102DC0009D4202D800230B7070BD541EED1AAC4218
:102DD00028BF2C46016822461944304601F0A4FE63
:102DE0000023335570BD014600228C20FEF790BDB4
:102DF0000020FFF7F8BF000010B504460846114652
:102E00001A460023FEF70CFF064B00221A704FF6FD
:102E1000FF7258809A801A689B882260A38020469F
:102E200010BD00BF940200204FF6FF72034B00203C
:102E3000187058809A80FEF7E3BE00BF940200200D
:102E4000F0B5144B144F1E68144B064418683B68C9
:102E500006449E428BB01BD00AA840F8286D01F0B2
:102E6000D5FC0446436901AD03F26C7343610FCC9A
:102E70000FC50FCC0FC5D4F800E0094CC5F800E031
:102E800001AD0FCD0FC40FCD0FC43E60C4F800E0FC
:102E90000BB0F0BDCC020020C8020020C40200200C
:102EA0009C02002008B50020FEF746FF28B1FEF77F
:102EB0001BFF80F00100C0B208BD012008BD00006A
:102EC00008B5FFF7BDFF024B9869013008BD00BF90
:102ED0009C02002008B5FFF7B3FF024B18690130D0
:102EE00008BD00BF9C02002008B5FEF731FD034B72
:102EF0001B681844024B1B68184408BDCC02002014
:102F0000C402002010B50949044601F0DDFB60B998
:102F10000749204601F0F6FB38B90649204601F082
:102F200035FA01F0F9FB044B186010BD000040C1F8
:102F30000000604100006145CC020020024B1A688D
:102F4000024B1A60704700BFAC000020C402002092
:102F5000014B00221A607047C402002037B50E4BA7
:102F600004461B6802A819440C4B1B68194440F81E
:102F7000041D01F04BFC01F0F5FB054601F0B7FD27
:102F80000023284400F8013C29462046FFF7D4FEE0
:102F9000204603B030BD00BFCC020020C402002098
:102FA00010B50020FEF7DCFC044668B9FEF720FEF1
:102FB00001280BD12046FEF753FE38B9FFF772FF08
:102FC00030B9FEF779FEF9E7012010BD002010BDF1
:102FD000FFF768FF0020FEF7C3FC003018BF012098
:102FE00010BD08B5FFF7DCFFBDE80840FEF7B0BC38
:102FF00008B5FFF7F6FFFFF723FF014B986808BD00
:103000009C02002008B5FFF7ECFFFFF719FF014B0A
:10301000586808BD9C02002008B5FFF7E2FFFFF7E3
:103020000FFF014BD86808BD9C02002008B5FFF7D0
:10303000D8FFBDE80840FFF743BF08B5FFF7D1FF51
:10304000BDE80840FFF746BF024B1A68024B1A6002
:10305000704700BFB0000020C002002070474174DC
:10306000704708B5007CFEF783FD20EAE07008BDDC
:1030700008B5007CFEF754FD20EAE07008BD08B5F5
:10308000007CFEF75DFD30EA200028BF4FF0FF30E6
:1030900008BD08B5007CFEF74BFD30EA200028BFD4
:1030A0004FF0FF3008BD007CFEF752BD10B504465E
:1030B000142100F0CEFA204610BD70B5457C0446C0
:1030C0000E4625B9007CFEF753FD002805DD31468C
:1030D000207CBDE87040FEF71BBD284670BD000097
:1030E00010B5044608461146002262604FF47A7219
:1030F000A260054A20742260012262741A46FEF71B
:10310000FFFC204610BD00BFF4590808007CFEF704
:1031100027BD000038B50C4D296811F0010411D10C
:103120002846FCF7C0FF68B1084A2146084B094809
:10313000FFF7D6FF2846FCF7BBFF074A07490548BB
:1031400000F082FA034838BD680300206C030020B9
:10315000E4020020D0020020680100205D30080851
:1031600041747047704708B50021007CFEF720FDD0
:1031700030EA200028BF4FF0FF3008BD08B501211C
:10318000007CFEF715FD30EA200028BF4FF0FF302D
:1031900008BD08B5007CFEF703FD20EAE07008BD1D
:1031A00008B5007CFEF7F4FC20EAE07008BD007C66
:1031B000FEF70EBD10B50446142100F04AFA204671
:1031C00010BD38B50446007C0D46FEF7E9FC00282A
:1031D00001DC607C28B12946207CFEF7F1FC20EA66
:1031E000E07038BD10B50446002363604FF47A7375
:1031F000A360054B084623600123217463741146C4
:10320000FEF7BEFC204610BD245A080810B504463F
:103210001422002101F0FDFB054B20466360054BA5
:10322000E36040F2011323818123238210BD00BF9C
:1032300075040020F403002030B50E4D87B001A8BE
:10324000FFF7E4FF296811F0010410D12846FCF7CC
:103250002AFF60B101AA21460748FFF7C3FF2846AD
:10326000FCF726FF054A0649034800F0EDF902483D
:1032700007B030BDF0030020780500206801002071
:103280006531080810B504461422002101F0C1FB85
:10329000054B20466360054BE36040F20113238138
:1032A0008123238210BD00BF280600209005002046
:1032B00010B50E4C86B001A8FFF7E4FF2368DB07CA
:1032C00010D42046FCF7EFFE60B101AA01210848A6
:1032D000FFF788FF2046FCF7EBFE064A0649044844
:1032E00000F0B2F9024806B010BD00BF8C05002006
:1032F00014060020680100206531080808B5184B45
:1033000033B1FFF799FF03681B69984700281EDC5B
:10331000144B33B1FFF7FEFE03681B699847002882
:1033200018DC114B0BB1AFF30080104B0BB1AFF3B6
:1033300000800F4B0BB1AFF300800E4B7BB1FFF75A
:10334000B7FF03681B699847002806DC08BDAFF388
:103350000080DDE7AFF30080E3E7AFF3008008BD56
:10336000000000000000000000000000000000005D
:10337000000000000000000008B5FFF7BFFFFEF7E7
:10338000DFFA014B186008BD340700200248034AE9
:103390000349121A01F032BB0040024004400240CF
:1033A000E05C080807B5002300931A466FF0770128
:1033B000FEF768FC03B05DF804FB000007B5438826
:1033C0000A2B08D0502B09D1094B1B683BB103B025
:1033D0005DF804EB1847FFF7E5FF06E000230093D4
:1033E0001A466FF07701FEF74DFC03B05DF804FB61
:1033F0002C07002038B5104C104D2368AB42104B01
:103400000CBF012200221A7002D0FFF7BFFF256017
:10341000FEF78EFA044601F005FB0A4B13B1204675
:10342000AFF3008000210748FEF78EFCBDE838406E
:1034300000210548FEF71CBC004002401E1C279AD4
:103440003007002000000000BD33080810B5044616
:103450000F48FFF727FC28B1A4F10D03022B01D878
:10346000002010BD00F06AF8FFF725FA08B1012C22
:10347000F6D9FFF74FFEFFF749FE18B1A4F112038A
:10348000012BEDD92E2C8CBF0020012010BD00BFD8
:10349000700700202E2838B504460D460AD8FF29AB
:1034A00008D0FFF7D3FF28B129462046BDE83840B1
:1034B000FEF776BA38BD38B504460D46FEF778FA01
:1034C000FF2810D0062804D84D2323FA00F0C307A4
:1034D00009D42046FFF7BAFF28B129462046BDE8A7
:1034E0003840FEF76DBA38BD10B50446FEF760FAF5
:1034F0000438C0B2012808D92046FFF7A7FF20B141
:103500002046BDE81040FEF763BA002010BD10B59C
:10351000044609289CBF0A34A4B22046FFF796FF50
:1035200050B103212046FEF733FA032804D1204688
:10353000BDE81040FEF764BA002010BD38B50B4D51
:10354000296811F001040FD12846FCF7ACFD58B1F1
:1035500021460748FFF77EF92846FCF7A9FD054AF2
:103560000549034800F070F8014838BD38070020CD
:103570005007002068010020FD27080810B50B4CFB
:103580002368DB070FD42046FCF78DFD58B10221DC
:103590000748FFF75FF92046FCF78AFD054A064910
:1035A000034800F051F8024810BD00BF6407002036
:1035B0003C07002068010020FD27080813B5084CCF
:1035C00000231A46194600932046FFF7F7F92046D4
:1035D000044A054902B0BDE8104000F035B800BF0C
:1035E00068070020680100203529080870B5114ED1
:1035F000114D124C00213046FFF740FB3046104E73
:103600002A46214600F020F801213046FFF736FB1C
:1036100030460C4E2A46214600F016F8022130466C
:10362000FFF72CFB2A4621463046BDE8704000F0EB
:103630000BB800BF70070020680100206D2C08083F
:1036400080070020900700200B460146184601F035
:10365000C9B8FCF726BD08B5FEF7FEFB244B1A6877
:10366000D0075CBF01221A60224B1A68D1075CBFE9
:1036700001221A60204B1A68D2075CBF01221A602F
:103680001E4B1A68D0075CBF01221A601C4B1A68D7
:10369000D1075CBF01221A601A4B1A68D2075CBFBF
:1036A00001221A60184B1A68D0075CBF01221A6009
:1036B000164B1A68D1075CBF01221A60144B1A68B6
:1036C000D2075CBF01221A60124B1A68D0075CBF98
:1036D00001221A60104B1A68D1075CBF01221A60E0
:1036E0000E4B1A68D2075CBF01221A60704700BFF8
:1036F000CC070020C8070020C4070020C007002016
:10370000BC070020B8070020B4070020B007002045
:10371000AC070020A8070020A4070020A007002075
:10372000184B1A68D1075CBF01221A60164B1A6841
:10373000D2075CBF01221A60144B1A68D0075CBF25
:1037400001221A60124B1A68D1075CBF01221A606D
:10375000104B1A68D2075CBF01221A600E4B1A6820
:10376000D0075CBF01221A600C4B1A68D1075CBFFE
:1037700001221A600A4B1A68D2075CBF01221A6044
:10378000704700BFEC070020E8070020E407002096
:10379000E0070020DC070020D8070020D407002025
:1037A000D0070020184B1A68D1075CBF01221A60AD
:1037B000164B1A68D2075CBF01221A60144B1A68B4
:1037C000D0075CBF01221A60124B1A68D1075CBF98
:1037D00001221A60104B1A68D2075CBF01221A60DE
:1037E0000E4B1A68D0075CBF01221A600C4B1A6896
:1037F000D1075CBF01221A600A4B1A68D2075CBF6E
:1038000001221A60704700BF0C0800200808002041
:103810000408002000080020FC070020F807002012
:10382000F4070020F0070020244B1A68D0075CBF83
:1038300001221A60224B1A68D1075CBF01221A606C
:10384000204B1A68D2075CBF01221A601E4B1A680F
:10385000D0075CBF01221A601C4B1A68D1075CBFFD
:1038600001221A601A4B1A68D2075CBF01221A6043
:10387000184B1A68D0075CBF01221A60164B1A68F1
:10388000D1075CBF01221A60144B1A68D2075CBFD3
:1038900001221A60124B1A68D0075CBF01221A601D
:1038A000104B1A68D1075CBF01221A600E4B1A68D0
:1038B000D2075CBF01221A60704700BF3C0800209D
:1038C0003808002034080020300800202C08002090
:1038D0002808002024080020200800201C080020C0
:1038E00018080020140800201008002081F0004172
:1038F00002E000BF83F0004330B54FEA41044FEAD5
:10390000430594EA050F08BF90EA020F1FBF54EA6F
:10391000000C55EA020C7FEA645C7FEA655C00F00B
:10392000E2804FEA5454D4EB5555B8BF6D420CDDDC
:103930002C4480EA020281EA030382EA000083EA5F
:10394000010180EA020281EA0303362D88BF30BDFF
:1039500011F0004F4FEA01314FF4801C4CEA113155
:1039600002D0404261EB410113F0004F4FEA0333B4
:103970004CEA133302D0524263EB430394EA050F3F
:1039800000F0A780A4F10104D5F1200E0DDB02FAAE
:103990000EFC22FA05F2801841F1000103FA0EF242
:1039A000801843FA05F359410EE0A5F120050EF108
:1039B000200E012A03FA0EFC28BF4CF0020C43FA39
:1039C00005F3C01851EBE37101F0004507D54FF046
:1039D000000EDCF1000C7EEB00006EEB0101B1F596
:1039E000801F1BD3B1F5001F0CD349085FEA3000DC
:1039F0004FEA3C0C04F101044FEA445212F5800FE7
:103A000080F09A80BCF1004F08BF5FEA500C50F183
:103A1000000041EB045141EA050130BD5FEA4C0C66
:103A2000404141EB010111F4801FA4F10104E9D1EF
:103A300091F0000F04BF01460020B1FA81F308BFE6
:103A40002033A3F10B03B3F120020CDA0C3208DDB2
:103A500002F1140CC2F10C0201FA0CF021FA02F18D
:103A60000CE002F11402D8BFC2F1200C01FA02F1FD
:103A700020FA0CFCDCBF41EA0C019040E41AA2BF22
:103A800001EB0451294330BD6FEA04041F3C1CDAEA
:103A90000C340EDC04F11404C4F1200220FA04F00A
:103AA00001FA02F340EA030021FA04F345EA0301B4
:103AB00030BDC4F10C04C4F1200220FA02F001FA76
:103AC00004F340EA0300294630BD21FA04F02946F8
:103AD00030BD94F0000F83F4801306BF81F4801191
:103AE0000134013D4EE77FEA645C18BF7FEA655C04
:103AF00029D094EA050F08BF90EA020F05D054EAD6
:103B0000000C04BF1946104630BD91EA030F1EBFDA
:103B10000021002030BD5FEA545C05D140004941DE
:103B200028BF41F0004130BD14F580043CBF01F5D1
:103B3000801130BD01F0004545F0FE4141F47001B7
:103B40004FF0000030BD7FEA645C1ABF1946104692
:103B50007FEA655C1CBF0B46024650EA013406BF93
:103B600052EA033591EA030F41F4002130BD00BF52
:103B700090F0000F04BF0021704730B54FF480640F
:103B800004F132044FF000054FF0000150E700BF90
:103B900090F0000F04BF0021704730B54FF48064EF
:103BA00004F1320410F0004548BF40424FF00001DC
:103BB0003EE700BF42004FEAE2014FEA31014FEA1F
:103BC00002701FBF12F07F4393F07F4F81F060516E
:103BD000704792F0000F14BF93F07F4F704730B5DD
:103BE0004FF4607401F0004521F0004120E700BF70
:103BF00050EA010208BF704730B54FF000050AE0F7
:103C000050EA010208BF704730B511F0004502D5F7
:103C1000404261EB41014FF4806404F132045FEAF9
:103C2000915C3FF4DCAE4FF003025FEADC0C18BF9E
:103C300003325FEADC0C18BF033202EBDC02C2F194
:103C4000200300FA03FC20FA02F001FA03FE40EA26
:103C50000E0021FA02F11444C1E600BF70B54FF026
:103C6000FF0C4CF4E06C1CEA11541DBF1CEA135508
:103C700094EA0C0F95EA0C0F00F0DEF82C4481EA70
:103C8000030621EA4C5123EA4C5350EA013518BF90
:103C900052EA033541F4801143F4801338D0A0FB7D
:103CA00002CE4FF00005E1FB02E506F00042E0FB2A
:103CB00003E54FF00006E1FB03569CF0000F18BF30
:103CC0004EF0010EA4F1FF04B6F5007F64F54074D8
:103CD00004D25FEA4E0E6D4146EB060642EAC6216B
:103CE00041EA55514FEAC52040EA5E504FEACE2ED8
:103CF000B4F1FD0C88BFBCF5E06F1ED8BEF1004FDB
:103D000008BF5FEA500E50F1000041EB045170BD56
:103D100006F0004646EA010140EA020081EA03019A
:103D2000B4EB5C04C2BFD4EB0C0541EA045170BD96
:103D300041F480114FF0000E013C00F3AB8014F110
:103D4000360FDEBF002001F0004170BDC4F1000459
:103D5000203C35DA0C341BDC04F11404C4F12005DA
:103D600000FA05F320FA04F001FA05F240EA020035
:103D700001F0004221F0004110EBD37021FA04F66B
:103D800042EB06015EEA430E08BF20EAD37070BD25
:103D9000C4F10C04C4F1200500FA04F320FA05F084
:103DA00001FA04F240EA020001F0004110EBD37086
:103DB00041F100015EEA430E08BF20EAD37070BDF6
:103DC000C4F1200500FA05F24EEA020E20FA04F3CF
:103DD00001FA05F243EA020321FA04F001F000417E
:103DE00021FA04F220EA020000EBD3705EEA430EEF
:103DF00008BF20EAD37070BD94F0000F0FD101F01E
:103E00000046400041EB010111F4801F08BF013C56
:103E1000F7D041EA060195F0000F18BF704703F094
:103E20000046520043EB030313F4801F08BF013D1B
:103E3000F7D043EA0603704794EA0C0F0CEA1355D7
:103E400018BF95EA0C0F0CD050EA410618BF52EA91
:103E50004306D1D181EA030101F000414FF0000097
:103E600070BD50EA410606BF1046194652EA4306A5
:103E700019D094EA0C0F02D150EA013613D195EA19
:103E80000C0F05D152EA03361CBF104619460AD161
:103E900081EA030101F0004141F0FE4141F470016B
:103EA0004FF0000070BD41F0FE4141F4780170BD5B
:103EB00070B54FF0FF0C4CF4E06C1CEA11541DBFC0
:103EC0001CEA135594EA0C0F95EA0C0F00F0A7F8C2
:103ED000A4EB050481EA030E52EA03354FEA0131EF
:103EE00000F088804FEA03334FF0805545EA131302
:103EF00043EA12634FEA022245EA111545EA1065CA
:103F00004FEA00260EF000419D4208BF964244F160
:103F1000FD0404F5407402D25B084FEA3202B61A7F
:103F200065EB03055B084FEA32024FF480104FF453
:103F3000002CB6EB020E75EB030E22BFB61A7546C7
:103F400040EA0C005B084FEA3202B6EB020E75EB5A
:103F5000030E22BFB61A754640EA5C005B084FEAC2
:103F60003202B6EB020E75EB030E22BFB61A75468F
:103F700040EA9C005B084FEA3202B6EB020E75EB9A
:103F8000030E22BFB61A754640EADC0055EA060E5B
:103F900018D04FEA051545EA16754FEA06164FEA9E
:103FA000C30343EA52734FEAC2025FEA1C1CC0D14A
:103FB00011F4801F0BD141EA00014FF000004FF0D7
:103FC000004CB6E711F4801F04BF01430020B4F198
:103FD000FD0C88BFBCF5E06F3FF6AFAEB5EB030C50
:103FE00004BFB6EB020C5FEA500C50F1000041EB4D
:103FF000045170BD0EF0004E4EEA113114EB5C041A
:10400000C2BFD4EB0C0541EA045170BD41F48011EC
:104010004FF0000E013C90E645EA060E8DE60CEAF4
:10402000135594EA0C0F08BF95EA0C0F3FF43BAF11
:1040300094EA0C0F0AD150EA01347FF434AF95EAC8
:104040000C0F7FF425AF104619462CE795EA0C0FAC
:1040500006D152EA03353FF4FDAE1046194622E779
:1040600050EA410618BF52EA43067FF4C5AE50EA53
:1040700041047FF40DAF52EA43057FF4EBAE12E743
:104080004FEA410212F5001215D211D56FF4787380
:10409000B3EB625212D94FEAC12343F0004343EA23
:1040A000505311F0004F23FA02F018BF40427047FE
:1040B0004FF00000704750EA013005D111F0004088
:1040C00008BF6FF0004070474FF00000704700BF1E
:1040D0004FEA4102B2F1E04324BFB3F5001CDCF12A
:1040E000FE5C0DD901F0004C4FEAC0024CEA507062
:1040F000B2F1004F40EB830008BF20F00100704791
:1041000011F0804F21D113F13872BCBF01F0004093
:10411000704741F480114FEA5252C2F11802C2F1C5
:10412000200C10FA0CF320FA02F018BF40F0010046
:104130004FEAC1234FEAD32303FA0CFC40EA0C00F8
:1041400023FA02F34FEA4303CCE77FEA625307D135
:1041500050EA01331EBF4FF0FE4040F4400070476C
:1041600001F0004040F0FE4040F40000704700BF06
:1041700080F0004002E000BF81F0004142001FBF1C
:104180005FEA410392EA030F7FEA226C7FEA236C25
:104190006AD04FEA1262D2EB1363C1BFD21841401A
:1041A00048404140B8BF5B42192B88BF704710F0B0
:1041B000004F40F4000020F07F4018BF404211F053
:1041C000004F41F4000121F07F4118BF494292EABB
:1041D000030F3FD0A2F1010241FA03FC10EB0C00E7
:1041E000C3F1200301FA03F100F0004302D5494274
:1041F00060EB4000B0F5000F13D3B0F1807F06D321
:1042000040084FEA310102F10102FE2A51D2B1F118
:10421000004F40EBC25008BF20F0010040EA03000D
:104220007047490040EB000010F4000FA2F10102BA
:10423000EDD1B0FA80FCACF1080CB2EB0C0200FA44
:104240000CF0AABF00EBC25052421843BCBFD04092
:104250001843704792F0000F81F4000106BF80F40C
:1042600000000132013BB5E74FEA41037FEA226CCF
:1042700018BF7FEA236C21D092EA030F04D092F09A
:10428000000F08BF0846704790EA010F1CBF0020CE
:10429000704712F07F4F04D1400028BF40F000402B
:1042A000704712F100723CBF00F50000704700F04B
:1042B000004343F0FE4040F4000070477FEA226272
:1042C00016BF08467FEA23630146420206BF5FEA43
:1042D000412390EA010F40F4800070474FF0000343
:1042E00004E000BF10F0004348BF40425FEA000C0A
:1042F00008BF704743F0964301464FF000001CE0B2
:1043000050EA010208BF70474FF000030AE000BF07
:1043100050EA010208BF704711F0004302D5404245
:1043200061EB41015FEA010C02BF844601460020B7
:1043300043F0B64308BFA3F18053A3F50003BCFAD2
:104340008CF2083AA3EBC25310DB01FA02FC63447F
:1043500000FA02FCC2F12002BCF1004F20FA02F286
:1043600043EB020008BF20F00100704702F1200279
:1043700001FA02FCC2F1200250EA4C0021FA02F2DA
:1043800043EB020008BF20EADC7070474FF0FF0CDF
:104390001CEAD0521EBF1CEAD15392EA0C0F93EADA
:1043A0000C0F6FD01A4480EA010C400218BF5FEA7C
:1043B00041211ED04FF0006343EA501043EA5111EF
:1043C000A0FB01310CF00040B1F5000F3EBF4900E9
:1043D00041EAD3715B0040EA010062F17F02FD2AED
:1043E0001DD8B3F1004F40EBC25008BF20F00100D0
:1043F000704790F0000F0CF0004C08BF49024CEAE7
:10440000502040EA51207F3AC2BFD2F1FF0340EA78
:10441000C250704740F400004FF00003013A5DDCE9
:1044200012F1190FDCBF00F000407047C2F100022A
:10443000410021FA02F1C2F1200200FA02FC5FEA17
:10444000310040F1000053EA4C0308BF20EADC7061
:10445000704792F0000F00F0004C02BF400010F4D3
:10446000000F013AF9D040EA0C0093F0000F01F080
:10447000004C02BF490011F4000F013BF9D041EAA2
:104480000C018FE70CEAD15392EA0C0F18BF93EAA4
:104490000C0F0AD030F0004C18BF31F0004CD8D1CE
:1044A00080EA010000F00040704790F0000F17BF55
:1044B00090F0004F084691F0000F91F0004F14D09B
:1044C00092EA0C0F01D142020FD193EA0C0F03D1F3
:1044D0004B0218BF084608D180EA010000F00040F6
:1044E00040F0FE4040F40000704740F0FE4040F4D1
:1044F000400070474FF0FF0C1CEAD0521EBF1CEA70
:10450000D15392EA0C0F93EA0C0F69D0A2EB03028D
:1045100080EA010C49024FEA402037D04FF0805327
:1045200043EA111143EA10130CF000408B4238BFEC
:104530005B0042F17D024FF4000C8B4224BF5B1AFA
:1045400040EA0C00B3EB510F24BFA3EB510340EA48
:104550005C00B3EB910F24BFA3EB910340EA9C00F6
:10456000B3EBD10F24BFA3EBD10340EADC001B0166
:1045700018BF5FEA1C1CE0D1FD2A3FF650AF8B420A
:1045800040EBC25008BF20F0010070470CF0004C17
:104590004CEA50207F32C2BFD2F1FF0340EAC25042
:1045A000704740F400004FF00003013A37E792F003
:1045B000000F00F0004C02BF400010F4000F013A61
:1045C000F9D040EA0C0093F0000F01F0004C02BF5C
:1045D000490011F4000F013BF9D041EA0C0195E7C5
:1045E0000CEAD15392EA0C0F08D142027FF47DAF5E
:1045F00093EA0C0F7FF470AF084676E793EA0C0F4E
:1046000004D14B023FF44CAF08466EE730F0004C4B
:1046100018BF31F0004CCAD130F000427FF45CAFDB
:1046200031F000437FF43CAF5FE700BF4FF0FF3C49
:1046300006E000BF4FF0010C02E000BF4FF0010C9C
:104640004DF804CD4FEA40024FEA41037FEA226C65
:1046500018BF7FEA236C11D001B052EA530C18BF87
:1046600090EA010F58BFB2EB030088BFC81738BFEC
:104670006FEAE17018BF40F0010070477FEA226CDA
:1046800002D15FEA402C05D17FEA236CE4D15FEAD6
:10469000412CE1D05DF8040B704700BF844608460A
:1046A0006146FFE70FB5FFF7C9FF002848BF10F1CB
:1046B000000F0FBD4DF808EDFFF7F4FF0CBF012010
:1046C00000205DF808FB00BF4DF808EDFFF7EAFF9A
:1046D00034BF012000205DF808FB00BF4DF808ED55
:1046E000FFF7E0FF94BF012000205DF808FB00BF4A
:1046F0004DF808EDFFF7D2FF94BF012000205DF8D0
:1047000008FB00BF4DF808EDFFF7C8FF34BF0120DC
:1047100000205DF808FB00BF4FEA4002B2F1FE4FF7
:104720000FD34FF09E03B3EB12620DD94FEA002373
:1047300043F0004310F0004F23FA02F018BF40424C
:1047400070474FF00000704712F1610F01D1420233
:1047500005D110F0004008BF6FF0004070474FF0E7
:1047600000007047094B70B51C680646256C3DB9C2
:104770001A20FDF741FB1A222064294600F049F96E
:10478000216C3046BDE8704000F002B818010020EE
:1047900010B50C46416986B001F26C7103698269FB
:1047A0000491016803EB43030391416802EB420269
:1047B000029181680191C1682046009104490B442F
:1047C00004490A440449FDF72FFB204606B010BDFA
:1047D000615A08084C5A0808855A08080A2200211C
:1047E00000F03CBA10B5054C13462CB10A46014600
:1047F0000220AFF3008010BD204610BD0000000075
:1048000008B5401AFFF7C4F908BD000038B5074BDA
:1048100005461C68E36B1BB92420FDF7EDFAE06345
:10482000E16B2846BDE8384000F002B818010020CE
:104830002DE9F0410C46804600F016FD2146074662
:10484000404600F015FD4669044606F26C76B30753
:1048500005D1642296FBF2F302FB13634BB94FF4CC
:10486000C87596FBF5F305FB1365B5FA85F35B098F
:1048700000E001235F4A302505FB032500F028FBFB
:1048800000F028FB5C4B1B68F3B17B689E4205D1AE
:104890003968D8F80030FA6941B90AE0304600F0CA
:1048A0006FFA0028F4D14FF0FF330DE0934208DB9C
:1048B00001E0934207DABA6B9342ACBF00230123B5
:1048C00002E0002300E001232362236A3C20012B45
:1048D0000CBFF96B396A4FF4616391FBF3F603FB8C
:1048E000161393FBF0F200FB123061682368891AFB
:1048F000A2681B1A921B3B2B23606160A26003DD40
:10490000013161603C3B04E0002B03DA0139616056
:104910003C33236063683B2B03DD0132A2603C3BE8
:1049200004E0002B03DA013AA2603C336360A36821
:10493000172B22DDE269183B0132E261A269A36014
:104940000132062AC8BF0022A261E268236901324F
:10495000E26055F823108A4246DD01330C2B08BF74
:104960006369A2EB0102E26005BF0133002223610B
:10497000226104BF6361E26136E0002B34DAE26950
:104980001833013AE261A269A360013A48BF0622E6
:10499000A261E268013AE26032BB2369013B01D4C3
:1049A00023611DE00B23236163695A1E12F0030F7C
:1049B000626103F26B7305D1642193FBF1F201FB99
:1049C00012324AB94FF4C87193FBF1F201FB123372
:1049D000B3FA83F35B0900E0012303F5B673E361E7
:1049E000236955F82330E36000F073FA2046BDE8F0
:1049F000F08100BF085C08085C08002010B5431E69
:104A00000A44914204D011F8014B03F8014FF8E732
:104A100010BD03460244934202D003F8011BFAE79B
:104A20007047000038B5124B05461C68A36BD3B91C
:104A30001820FDF7E1F943F20E33A06303804AF634
:104A4000CD33438041F2342383804EF26D63C380C3
:104A50004DF6EC630381052343810B2383810122FF
:104A60000023C0E90423A36B00221D615A6138BDF5
:104A700018010020024610B513461C780132002CA4
:104A8000FAD1013B11F8012B03F8012F002AF9D1CB
:104A900010BD10F8012B11F8013B012A28BF9A42E2
:104AA000F7D0D01A7047034611F8012B03F8012BF9
:104AB000002AF9D170470000024B0146186800F047
:104AC00003B800BF1801002070B5064608460C4622
:104AD00000F00DF8451C29463046FDF7C5F906469D
:104AE00018B12A462146FFF789FF304670BD0346BC
:104AF00013F8012B002AFBD1181A0138704730B582
:104B000082B1451E013915F8013F11F8014FA3424A
:104B100006D1EC431444E04201D0002BF3D11C46F3
:104B2000181B30BD104630BD034610B542B111F818
:104B3000014B013A03F8014B002CF7D11A4400E075
:104B400010BD934202D003F8014BFAE710BD0000FC
:104B50002DE9F0470F4680463F48D0F800903D468B
:104B600015F8014B09EB0400407800F0080000F054
:104B7000FF0608B12F46F2E72D2C03D1BD1C7C782F
:104B8000012603E02B2C04BF7C78BD1C13B1102B35
:104B90000AD15BE0302C57D1287800F0DF0058288C
:104BA0004DD16C7810230235002E14BF4FF0004C0D
:104BB0006FF0004CBCFBF3FA0027384603FB1ACC1D
:104BC00009EB040E9EF801E01EF0040F01D0303C0A
:104BD0000BE01EF0030E1BD0BEF1010F0CBF4FF017
:104BE000370E4FF0570ECEEB0404A34210DDB7F1A1
:104BF000FF3F0AD0504506D801D1644503DC03FBD2
:104C00000040012701E04FF0FF3715F8014BD7E7CF
:104C10007B1C0CD1002E4FF0220314BF4FF000403C
:104C20006FF00040C8F800302AB9BDE8F08706B13F
:104C3000404272B107B1691E1160BDE8F0873024AF
:104C4000002BB1D10823AFE70A23ADE7302CA3D066
:104C5000AAE7BDE8F08700BFB400002013460A466B
:104C6000014602480068FFF773BF00BF180100202B
:104C70002DE9F0470E4680463B48D0F80090354677
:104C800015F8014B09EB0400407800F0080000F033
:104C9000FF0708B12E46F2E72D2C03D1B51C74781E
:104CA000012703E02B2C04BF7478B51C13B1102B23
:104CB0000AD153E0302C4FD1287800F0DF0058287B
:104CC00045D16C78102302354FF0FF3CBCFBF3FC60
:104CD00003FB0CFA00266FEA0A0A304609EB040EC1
:104CE0009EF801E01EF0040F01D0303C0BE01EF0F6
:104CF000030E1AD0BEF1010F0CBF4FF0370E4FF06C
:104D0000570ECEEB0404A3420FDD002E08DB6045F6
:104D100006D801D1544503DC03FB0040012601E025
:104D20004FF0FF3615F8014BD8E7002E07DA2223A3
:104D3000C8F800304FF0FF302AB9BDE8F08707B15E
:104D4000404272B106B1691E1160BDE8F08730249F
:104D5000002BB9D10823B7E70A23B5E7302CABD035
:104D6000B2E7BDE8F08700BFB400002013460A4652
:104D7000014602480068FFF77BBF00BF1801002012
:104D80002DE9F74F044600F06FFA40F2B1739C42F0
:104D900040F3968040F26D156FF4F663E318A4F2C9
:104DA000B2729B1005FB0235A4F26D726FF06303C3
:104DB00092FBF3F36FF4C8622B44A5184FF4C8724A
:104DC00094FBF2F795FBF2F502FB17471D446423B1
:104DD00094FBF3F6B7FA87FE014603FB164600F193
:104DE0003803019304F0030344604FEA5E1E00930E
:104DF0004FF0070C0B7A4A2B0ED14B69009AEC1836
:104E000002B906B927B93B2BD4BF0023012300E028
:104E100000232344013B3FE0442B02D14B692B4448
:104E20003AE0009B2BB9002E0CBFF0464FF0010872
:104E300000E0F046A946244B302202FB0838CC683B
:104E4000A8F1040A0123A34204DA5AF804BF01338B
:104E5000D944F8E709F1040393FBFCFBCBEBCB0A45
:104E6000CAEB030A4B69012CB8BF0124B3EB0A0A51
:104E70000B6904F1804403F1FF3304F1FF3448BFB0
:104E80000AF1070AC3EBC30358F824405344A34272
:104E900001DB073BFBE74B448C690C4A02FB0343F5
:104EA0000C6A234441F81C3F019B9942A2D1C3697B
:104EB000826B9342ACBF002301230360012000E01A
:104EC000002003B0BDE8F08F085C080880510100A5
:104ED00070477047014B186800F002B818010020B5
:104EE0002DE9F04F8DB0074600F0BEF9B0490446F9
:104EF000384600F0B1F9AF4E054660B9AE4BAF4A47
:104F00001860AF4B1860AF4B30681A605A60FCF7FE
:104F10007BFF356048E1316879B93068FCF774FF90
:104F20002846FFF7E4FD411C3846FCF79DFF306042
:104F300048B12946FFF7B7FD05E0FFF7AAFD0028B5
:104F400000F03281E9E72B780AAE3A2B08BF013531
:104F500033469D4A9D492846FCF76EFF002840F3E2
:104F600023810A9BEF18EB5C2D2B03D101374FF007
:104F7000FF3503E02B2B08BF013701250DF1200A77
:104F80000DF11E0B4FF000080396CDF808A0019616
:104F9000CDF800B0334607AA8D493846ADF81E80DB
:104FA000ADF82080FCF748FF404540F3FD80BDF898
:104FB0001E20BDF820303C2101FB0233BDF81C202F
:104FC0004FF4616101FB02335D437F4B25627D4DF0
:104FD000DFF808922B600A9B4A461F447B49334600
:104FE0003846FCF729FF404508DC2B68226A6B60D5
:104FF000714B1A60724BC3F80080D5E00A9BC5F86C
:105000000490FD18FB5C2D2B03D101354FF0FF37C9
:1050100003E02B2B08BF013501270023ADF81C301E
:10502000ADF81E30ADF820300A930396CDF808A0F5
:105030000196CDF800B0334607AA65492846FCF72B
:10504000FBFE002804DC236AA3F56163E3630EE042
:10505000BDF81E20BDF820303C2101FB0233BDF815
:105060001C204FF4616101FB02335F43E763274675
:105070000A9B4FF000091D442B782C2B08BF0135EB
:1050800095F80080B8F14D0F26D10DF1260302935B
:1050900009AB00930396019633460DF122024D4968
:1050A0002846FCF7C9FE03287ED1BDF822104B1E0E
:1050B0000B2B79D8BDF82420531E042B74D8BDF8CF
:1050C0002630062B70D887F80880F9603A617B613A
:1050D0000A9B05EB03082AE0B8F14A0F06BF4346D6
:1050E000013544230A220BA928460593FFF73EFE0B
:1050F000DDF82C80ADF826004545059B14D14D23E5
:10510000B9F1000F07D123720323E3600223236167
:10511000C4F814900BE084F824300B23A36201231D
:10512000E3620023236302E080B23B7278610223D2
:10513000ADF81C300023ADF81E30ADF820300A93D6
:1051400098F800302F2B0BD10396CDF808A00196CC
:10515000CDF800B0334607AA1F494046FCF76CFE65
:10516000BDF81E20BDF820303C2101FB0233BDF804
:105170001C204FF4616101FB0233BB610A9D09F100
:105180000109B9F1020F454407F11C077FF474AF20
:105190006068FFF7F5FD226A074B1A60E36B9B1A04
:1051A000074A18BF012313600DB0BDE8F08F00BFA0
:1051B000685C080858080020600800206B5C08083C
:1051C0005C0800201C0100204B0800206F5C0808D0
:1051D000925C08087E5C0808915C08084008002082
:1051E0002DE9F84F07468B46904600F0D7F8194B4B
:1051F0001D689A463DB15C46234613F8012B42B127
:105200003D2A1C46F8D1384600F0C9F80020BDE818
:10521000F88FCBEB0404A94659F8040B0028F2D010
:1052200022465946FFF76BFC88B959F8043C1E1911
:105230001B5D3D2B0BD1DAF800303846ED1AAD106E
:10524000C8F8005000F0ABF8701CBDE8F88F4D4670
:10525000E1E700BF6401002007B501AAFFF7C0FF26
:1052600003B05DF804FB00000048704724010020F3
:105270000268464BF0B592FBF3F403FB1422002ABC
:10528000BCBF02F5A83202F5C0724FF4616092FB18
:10529000F0F300FB13224FF03C008B6092FBF0F325
:1052A00000FB132204F52F24ACBF04F66C2404F693
:1052B0006B244B600A600723E21C92FBF3F3344D2E
:1052C000C3EBC30394FBF5F5D31A48F6AC6240F286
:1052D000B4578B612F4B304803FB0544B4FBF2F20B
:1052E000B4FBF7F3B4FBF0F02244D21A48F694660C
:1052F000131A40F26D12B3FBF6F6B3FBF2F0B3FBF8
:10530000F7F33444E31A02FB103303EB83029924CE
:105310000232B2FBF4F25443A61C0524B6FBF4F4AB
:105320000A2A34BF02266FF0090616444FF4C872E9
:1053300002FB05055F1C012E98BF0135B3F5997F6F
:10534000A7EB040702D3A3F5997214E0820705D1F5
:105350006424B0FBF4F204FB12024AB94FF4C872A1
:10536000B0FBF2F402FB1400B0FA80F2520900E044
:1053700001223B331A44A5F26C750023CA614D61CA
:105380000E61CF600B620846F0BD00BF8051010086
:10539000B13A02004FC5FDFFB03A020070477047B6
:1053A00021000808610008088D000808910008081D
:1053B000000000000000000000000000610208087A
:1053C000A5020808290108080000000000000000EC
:1053D0003501080849010808751608081F1708084C
:1053E000991708083000257320533A25322E30666D
:1053F00025252C20513A25322E30662525200041C6
:10540000542B4346554E3D31360D0A00436F6E74A2
:10541000726F6C20506F776572202D20004C6F7773
:10542000204C6576656C202D200050756D70204FE6
:105430006E202D20005061727469636C6520506F7E
:1054400077657200416C65727473007B22616C65D4
:10545000727456616C7565223A25692C202270752C
:105460006D70416D7073223A25692C202270756D24
:10547000704D696E73223A25692C20226261747422
:10548000657279223A25692C202274656D70223A62
:1054900025692C2022726573657473223A25697D13
:1054A000004D6F6E69746F72696E675F4576656EE9
:1054B000740050756D70204F6E205265636569767B
:1054C0006564005374617475730050756D70204F7E
:1054D00066662052656365697665640046726F6D25
:1054E00020257320746F2025730053746174652028
:1054F0005472616E736974696F6E004E6F204461FF
:10550000746100556269646F747320486F6F6B003B
:10551000526573706F6E7365205265636569766559
:10552000640053746174650053657420566572623B
:105530006F7365204D6F646500436C6561726564CF
:1055400020566572626F7365204D6F6465005275F9
:105550006E6E696E67004461696C7920436C6561A9
:105560006E7570005761746368646F6720666C6164
:105570006700526573706F6E73652054696D656F57
:105580007574204572726F72004572726F7220538B
:1055900074617465202D20526573657400457272C4
:1055A0006F72205374617465202D20506F7765727F
:1055B000204379636C65004572726F722053746189
:1055C0007465202D2046756C6C204D6F64656D20D0
:1055D00052657365740054696D652062617365205E
:1055E00074696D65207A6F6E652069732025690086
:1055F00025322E3166205554430054696D650046AE
:10560000616C6C734C616B65426561766572446177
:105610006D6E2D46616C6C734C616B65332D5075EE
:105620006D70436F6E74726F6C005375627363724A
:10563000696265207375636365737366756C00508A
:105640007562537562005375627363726962652097
:105650004E6F74207375636365737366756C004178
:105660006C65727456616C7565005369676E616C28
:10567000005265736574436F756E740054656D7088
:10568000657261747572650052656C656173650061
:1056900073746174654F664368670070756D70411F
:1056A0006D70730070756D704D696E757465730003
:1056B00054696D654F6666736574005265736574F1
:1056C0002D4652414D0052657365742D436F756EC2
:1056D000747300486172642D52657365740053657C
:1056E0006E642D4E6F7700566572626F73652D4D37
:1056F0006F6465005365742D54696D657A6F6E65CE
:1057000000556E6B6E6F776E004E6F6E6500576959
:1057100046690047534D00554D54530043444D4195
:10572000004C544500494545453830323135340048
:105730004C54455F4341545F4D31004C54455F43E9
:1057400041545F4E423100312E3534007772697416
:105750006544617461206661696C6564206475727A
:10576000696E67206572617365206672616D416460
:1057700064723D25750072656164207365742061F3
:10578000646472657373206661696C656420256466
:10579000006469646E2774207265636569766520AC
:1057A000656E6F75676820627974657320636F75C5
:1057B0006E743D2575007772697465206661696C49
:1057C0006564202564000000000000000000000067
:1057D0009515080897150808751608081F17080872
:1057E000991708080000000000000000571F080873
:1057F0004D1F0808431F08081D020808371F080826
:105800002B1F08081F1F0808171F08080D1F08086E
:10581000031F0808BF1E0808000000000000000069
:10582000052008088720080807200808C520080860
:105830000D20080895200808312008085520080880
:10584000FCFFFFFF000000007F20080800000000B0
:10585000000000000D21080813210808572108083E
:10586000212108080F2108080000000000000000A6
:10587000FD270808472808081F280808FF270808E8
:10588000272808082F280808372808083F2808086C
:10589000000000000000000045290808352908081C
:1058A00037290808626175640053657269616C008C
:1058B00055534253657269616C31007479706500AB
:1058C000706172616D00636D6400696400686E648C
:1058D000007374726D0066696C74006C766C0061A4
:1058E000646448616E646C65720072656D6F7665A4
:1058F00048616E646C657200656E756D48616E64BA
:105900006C657273004A534F4E53747265616D4CEF
:105910006F6748616E646C6572006170700025305D
:1059200031307520005D20002C200028293A20000D
:10593000205B00636F6465203D20006465746169CD
:105940006C73203D200066006C6E00666E00636F15
:1059500064650064657461696C006E6F6E650074E7
:105960007261636500696E666F007761726E0065D3
:1059700072726F720070616E696300616C6C00001E
:105980000000000000000000E5290808EF290808D1
:10599000F9290808032A08080D2A0808192A0808FE
:1059A000252A0808312A0808392A0808432A08083D
:1059B0004D2A080800000000000000006D2C0808B7
:1059C0006F2C0808252B3033643A253032750025BA
:1059D000592D256D2D25645425483A254D3A2553DA
:1059E000257A0061736374696D6500000000000032
:1059F000000000005D300808AD300808BB30080822
:105A0000512B080871300808933008087F300808C7
:105A1000A73008085F30080863300808000000005D
:105A20000000000065310808B5310808C3310808D6
:105A3000512B0808A1310808673108087D31080892
:105A4000AF310808933108086131080853756E4D6D
:105A50006F6E547565576564546875467269536115
:105A6000744A616E4665624D61724170724D617932
:105A70004A756E4A756C4175675365704F63744E15
:105A80006F76446563252E337320252E33732533BB
:105A90006420252E32643A252E32643A252E326453
:105AA0002025640A000020202020202020202028FB
:105AB00028282828202020202020202020202020C6
:105AC00020202020202088101010101010101010FE
:105AD000101010101010040404040404040404043E
