:020000040808EA
:1000000000000808B8570808000006000A000501AB
:0800100004027C050000000061
:04001800C04E0808C6
:1000200009480A4908B5884205D0094A824202D0E7
:10003000121A04F073FA0748074A0021121A04F052
:1000400078FA064808BD00BF000000209456080852
:10005000FC000020FC000020E8070020E80700204A
:1000600070B502F069FF074B074C1E46E41AA4085E
:100070000025A54204D056F8253098470135F8E709
:1000800070BD00BF4C5608088456080800F0CABF6F
:1000900008B500F047FDBDE8084002F00FBF01F0D1
:1000A00075BC01F07BBC0078B0FA80F04009704765
:1000B0000123037070470368C9B29B681847002288
:1000C0004270704770B506460C46154602F0C6FFF2
:1000D000317802F0B7F902F0C1FF210AFFF7EBFF18
:1000E00002F0BCFFE1B2FFF7E6FF02F0B7FF0368E2
:1000F00029469B68984702F0B1FFBDE8704002F0C6
:10010000ACB938B504460D4602F0A8FF217802F0DC
:1001100099F902F0A3FF290AFFF7CDFF02F09EFF35
:10012000E9B2FFF7C8FF02F099FF02F096F902F07A
:1001300095FF0122217802F078F902F08FFF036821
:100140005B699847C0B238BDF8B5044616460F46FD
:1001500002F084FF7C2102F079F902F07FFF217820
:100160004900FFF7A8FF02F079FF002102F071F9C2
:1001700002F074FF03227C2102F05AF902F06EFFB4
:1001800003685B699847054602F068FF03685B698E
:100190009847044602F062FF03685B699847C4F31E
:1001A00003122402EBB204F47064C0B202EB031336
:1001B00004443B803480F8BD13B50446017002F05E
:1001C0004DFF02F023F90DF1060201A92046FFF7C9
:1001D000BBFFBDF804300A2B07D1BDF80630B3F5DC
:1001E000A26F02D10120607000E0002002B010BDBB
:1001F00001F0A0B9014B00221A70704710010020D5
:1002000003681847012A02D0022A02D004E00160E4
:1002100002E00B6800B103600020704708B5044994
:1002200002F0A3FB18B1034B05221A70012008BD90
:100230007D51080818010020436913B183690C300F
:100240001847704713B504460021084601F0FAF834
:1002500002A90023204641F8043D01F00BF9019C5E
:100260000CB1012323710021012001F0EBF82CB126
:10027000236820469B6898470023237102B010BD75
:1002800008B5074B1B784BB10121062002F0B5FEE3
:10029000BDE808400021062002F0AFBE08BD00BF47
:1002A0000800002038B50949054602F05EFB044607
:1002B00018B1074B0120187038BD0649284602F0D6
:1002C00054FB10B1024B01201C7038BD7D51080851
:1002D00010010020E84E080808B5054902F045FB6A
:1002E00020B10420012102F088FE012008BD00BFDA
:1002F0007D51080837B505469DF8184023438DF811
:1003000000303C2301F052FE284603B030BD0022ED
:100310001146406801F002BB10B58368044613B172
:10032000032201469847204610BD07B58068002388
:1003300040B18DE80A001A46022101F0A3F8B0FA94
:1003400080F0400903B05DF804FB000038B50F4BA6
:100350000446036083689BB16FF00041FFF7E5FF3F
:100360000021A06801F09EF8237903F0FF0513B186
:1003700001F060F8F8E72946A06801F073F8A5607D
:1003800004F10C00FFF7C8FF204638BDDC4E08081A
:1003900010B50446FFF7DAFF20461C2102F0E9FE03
:1003A000204610BD81B20148FFF7ABBE0801002016
:1003B0000A4681B20148FFF785BE00BF0801002050
:1003C00070B5074D84B221462846FFF79AFE611C9E
:1003D000064689B22846FFF794FE06EB002070BD62
:1003E0000801002070B50E46074D84B2CAB22846F7
:1003F0002146FFF767FE611CC6F307222846BDE8C9
:10040000704089B2FFF75EBE0801002008B50A49B6
:1004100002F0ABFA70B100210220FFF7C9FF074BD1
:1004200000211960064B14201970064B1960FFF764
:10043000D9FF012008BD00BF7D510808240100201C
:10044000BC0100201C0100202DE9F0410F4E84B2B8
:1004500021463046FFF755FE611C054689B23046FD
:10046000FFF74FFEA11C804689B23046FFF749FED8
:10047000E11C074689B23046FFF743FE05EB08252D
:1004800005EB074505EB0060BDE8F08108010020A1
:1004900070B50E460E4D84B2CAB228462146FFF70B
:1004A00011FE611CC6F30722284689B2FFF70AFE37
:1004B000A11CC6F30742284689B2FFF703FEE11CE0
:1004C000320E2846BDE8704089B2FFF7FBBD00BF81
:1004D0000801002030B58FB0104904A801F00AFBD4
:1004E00004A801F05AFB044604A801F0B5FB054638
:1004F00004A801F099FB03F0EDF8CDE902012846CC
:1005000003F0E8F8CDE90001054B064A53F8243022
:100510004021054801F062FA0FB030BDC80100204B
:100520001C000020EA4E08086C01002000000000BA
:1005300008B50A2002F07AFD03F0BAF814A3D3E953
:10054000002303F01BF903F053FB4FF0665103F057
:10055000ADFC03F0BFF800220F4B02F05BFF00225E
:100560000E4B03F00BF903F01BFB03F0A1F8002284
:100570000B4B03F003F900220A4B03F029FA002287
:10058000094B02F049FF03F00BFB084B186008BD54
:100590006666666666660A400000E03F00005940F5
:1005A0000000224000001440000040402C010020C8
:1005B0002DE9F8432F4D2846FFF7A9FE044638BB26
:1005C000034602460146686801F0B0F92346224618
:1005D0002146686801F08AF9204600F0A3FF04462E
:1005E000254E00250027002000F09CFF001B61EB3A
:1005F00005018F4208BF864206D31E48FFF787FEDB
:1006000010B901F023F9EEE71A48FFF780FE08B3AE
:1006100000F070FF194C47F22F58206001F016F9D6
:1006200001F01CF9002000F07DFF2546064600275A
:100630004FF00009002000F075FF801B61EB0701FF
:10064000894508BF804507D301F018F920B901F0AA
:10065000FDF8EFE7002409E001F010F90446002856
:10066000F8D000F047FF286001F0F0F82046BDE820
:10067000F88300BFC80100208F5F0100B40600208E
:1006800008B501F0FBF880F00100C0B208BD000021
:10069000F8B501F0EBF8002000F044FF42F20F76CD
:1006A000044600250027002000F03CFF001B61EB02
:1006B00005018F4208BF864205D3FFF7E1FF10B95D
:1006C00001F0C4F8EFE70A4CFFF7DAFF002202213D
:1006D000606801F01BF940F6B83001F0A3F900237F
:1006E00060681A46194601F029F90120F8BD00BFDB
:1006F000C801002008B5044801F0FDFF80F00400A7
:10070000C0F3800008BD00BF000100202DE9F743C1
:1007100000F0F0FE504B514C18600720FFF742FEEE
:100720004F4F94F800804F4B4F4E3870C3F8008005
:100730004E48002335682370FFF7E9FD08B1FFF745
:10074000C9FEFFF7F5FE4A4801F0FEFD03F074FD17
:10075000484B1860484B1A68D2F8BC32B2F8C01245
:100760001B69194208BF2378B2F8F81204BF43F09E
:1007700001032370D2F8F4321B69194202BF2378B7
:1007800043F002032370D2F8D8321969B2F8DC3290
:1007900013EA01092ED123780C2043F004032370BF
:1007A00002F044FC354B40F6FF72186020230093A2
:1007B00049464B4601F02AF96B1C9842306005DC33
:1007C000013DA842ACBF0025012500E001253B7892
:1007D0009B0730D402F0BFF9294B014618600E2068
:1007E000FFF756FE1E4B0720197841F00201FFF774
:1007F000DFFD20E0397801F0020303F0FF05CBB103
:1008000081F002010720FFF7D3FD02F0A4F91C4B91
:100810000025196803F084FD00221A4B03F0D8F874
:1008200003F0BEF9184B1968014414201960FFF752
:10083000D9FD00E03560FFF75DFF18B1237863F064
:100840007F0323702378434500D115B10F4B052258
:100850001A7003B0BDE8F0834C010020280100208D
:10086000BD0100203401002014010020C801002037
:10087000AC0100202001002040010020B801002030
:100880004801002000004E401C01002018010020FB
:1008900008B500F02FFE054B1B68C01A044B1B68FF
:1008A000984234BF0020012008BD00BFC0010020D5
:1008B0000C00002008B5FFF7EBFF18B1BDE80840B9
:1008C000FFF7E6BF00F0C2FFF5E7000037B500F024
:1008D000CDFF00F00FFE43F69725044600F0CEFF53
:1008E00040B100F007FE001BA84203D8642001F0CD
:1008F00099F8F3E70021094B47F23052084600F01F
:1009000091FD4FF47A7001F08DF8054B0A221B68B7
:100910000121684602F05CF803B030BD034F0808BF
:10092000C401002038B5046805467CB16368013B0A
:1009300063605BB9236820469B689847A368013BC6
:10094000A3601BB923682046DB689847284638BD5A
:1009500030B5072085B0FFF725FD1F4B00221B781F
:100960001E498DF8002005461D4A02A8FFF7C2FC6B
:1009700003A8FFF7D7FF082400212046FFF718FD42
:10098000B4F5005F03D102F0F9F9164914E0B4F5AB
:10099000804F03D102F0F2F913490DE0B4F5C04FD6
:1009A00003D102F0EBF9114906E047F6FF739C42D0
:1009B00004D102F0E3F90E4901F0D5FE0134B4F59B
:1009C000004FD9D129460720FFF7F2FC092100206A
:1009D000FFF7EEFC05B030BD0A010020ED5008081D
:1009E000104F0808264F08082F4F0808384F0808EE
:1009F000414F080808B5044901F0B7FF10B1FFF7EF
:100A0000A7FF012008BD00BF7D51080810B5A4B0A4
:100A100000217C2205A8049103F08BFD184B1C7863
:100A2000E00703D5174904A803F0B4FDA10703D5D7
:100A3000154904A803F0AEFD620703D5134904A8C5
:100A400003F0A8FD230603D5114904A803F0A2FD75
:100A5000FFF730FF0F4B1B7863B10F4B00221B7861
:100A600002A88DF800200D4904AAFFF743FC03A853
:100A7000FFF758FF00F03EFD094B186024B010BD91
:100A800028010020464F0808574F0808644F0808FF
:100A90006F4F0808440100200A0100207E4F08081B
:100AA000C001002000B5154A154B1268C9B01B786B
:100AB0000492144A4FF48071126808A80392124AF3
:100AC00012680292114A12680192114A1268009249
:100AD000104A00F083FF104B00221B780F498DF85D
:100AE000002006A808AAFFF705FC07A8FFF71AFFD1
:100AF0000B4B01221A7049B05DF804FB2401002061
:100B0000280100202C010020200100201C010020D1
:100B100014010020854F08080A010020DB4F080857
:100B2000BC0100207FB5984C2378013B052B00F2D7
:100B30002881DFE813F0FC000600370070008F000A
:100B4000C90000F0D7FC914B1B68C01A904B1B6882
:100B5000984201D3FFF7DAFD02F004F88D4B1B78C1
:100B6000984211D00523237001F0FCFF054658B9C7
:100B7000894B014618601420FFF734FC00F07EFE1C
:100B800010B1284600F09AFE844B1B780BB103236A
:100B90002370834B1A68834B1B689A4200F3F180E1
:100BA000042327E07D4B1D7835B37F4B1B68D3F8BA
:100BB0008821B3F88C3115691D4040F0E280012195
:100BC0000E207A4E02F019FA0121072002F015FAE0
:100BD000FFF79CFD29463046FFF7A7FBB06840B100
:100BE0006FF00043009301952B462A46294600F0FA
:100BF00049FC05232370C4E029460E2002F0FDF9CC
:100C00002946072002F0F9F96FF000416748FFF725
:100C10008CFB0223EEE700F031FE08B1FFF738FD50
:100C2000634B0024214607201C7002F0E6F92146A0
:100C30001D2002F0E2F9FFF723FB01F09DFF5D4B61
:100C4000C0F13C003C2242431B68012102A801F094
:100C5000BFFE96E0584DFFF713FB00232B7000F00A
:100C60000DFE40B9FFF7A4FC28B900F043FC534B3C
:100C700018600123BEE7524B1B780BB1FFF7C6FE8D
:100C8000FFF710FF00F036FC4E4B186001F06AFFD2
:100C9000404B1870FFF70EFE01232B704A4B1B7858
:100CA00063B14A4B00221B7802A88DF80020484906
:100CB000484AFFF71FFB03A8FFF734FE00F01AFCB9
:100CC000454B1860062395E7444B1D78BDB90223B8
:100CD0002370FFF7EFFD3C4B1B785BB13B4B404A69
:100CE0001B788DF8005002A83949FFF703FB03A8D1
:100CF000FFF718FE00F0FEFB374B186041E000F0F4
:100D0000F9FB304B1B68C01A364B1B68984238D32E
:100D100000F0F0FB294B186001232370FFF7CAFD98
:100D20002A4B00221B788DF800202F4ADBE700F0C9
:100D3000E1FB224B1B68C01A2C4B1B68984220D346
:100D4000214B1B7863B1214B00221B7802A88DF840
:100D500000201F49264AFFF7CDFA03A8FFF7E2FD5E
:100D60004FF4FA6000F05EFE224B1B68032B02DC9E
:100D700001F02AFE05E000210220FFF719FBFFF732
:100D8000A5FD04B070BD00BF180100204C0100207B
:100D900010000020300100201C0100201001002064
:100DA00020010020140000204001002050010020FC
:100DB00011010020C401002008000020B40100201F
:100DC0002801002004010020440100200A01002025
:100DD00001500808EC4F0808C0010020BC010020A9
:100DE00007500808180000200C50080800000020D8
:100DF00023500808240100201FB50C4691B9FFF7C5
:100E000059FD204B204A1B78204902A88DF800404C
:100E1000FFF770FA03A8FFF785FD00F06BFB1C4B92
:100E200018602CE0084603F069FAC838012819D880
:100E3000FFF740FD174B1B7863B1124B00221B7864
:100E400002A88DF800201449144AFFF753FA03A8AA
:100E5000FFF768FD00F04EFB0D4B00221860104BB1
:100E60001A700CE0074B00221B7802A88DF80020B6
:100E700006492246FFF73EFA03A8FFF753FD04B0E8
:100E800010BD00BF0A0100203B500808435008086D
:100E9000C0010020440100200150080850500808FB
:100EA000BC01002030B5224985B0054601F05DFD4A
:100EB0000446B0B11F4B012407201C70FFF772FAE3
:100EC0001D4B0720197841F008011970FFF770FADF
:100ED000FFF7F0FC194B00221B788DF80020184A10
:100EE00018E01849284601F040FDF8B1114B0720E1
:100EF0001C70FFF757FA104B0720197801F0F70123
:100F00001970FFF755FAFFF7D5FC0C4B0E4A1B780A
:100F10008DF800400D4902A8FFF7ECF903A8FFF790
:100F200001FD00F0E7FA0A4B1860012005B030BD62
:100F30007D51080844010020BD0100200A01002065
:100F400062500808E84E08087350080883500808E3
:100F5000C0010020F0B5CDB00A2205A9006803F059
:100F60000DFCC5B205F10C03DBB2182B42D844B21C
:100F7000204602F047FF01F08FFD29460420FFF7CD
:100F800017FA01F0E8FD1D4F1D4E23461D4A4FF490
:100F90008071386000250CA800F020FDFFF78AFC66
:100FA00033780CAA184908A88DF80050FFF7A2F969
:100FB00009A8FFF7B7FC00F09DFA144C2060FFF77A
:100FC00079FC396808A801F083FD089B0E4903935A
:100FD000039A337806A88DF80050FFF78BF907A81D
:100FE000FFF7A0FC08A801F04CFC00F083FA206099
:100FF000012000E000204DB0F0BD00BF0C0100203A
:101000000A010020885008089C500808C0010020F0
:101010000023022200F00ABC0246014800F09EBEF6
:10102000311D080830B50121A9B00E2001F0D4FF10
:1010300000210C2001F0D0FF0021192001F0CCFF8D
:1010400000211A2001F0C8FF00211B2001F0C4FF7D
:101050000021112001F0C0FF0021052001F0BCFF9C
:101060000121072001F0B8FF01211D2001F0B4FF8C
:1010700001211D2001F0C1FF0121062001F0ACFF7C
:10108000FFF7FEF80121042001F0A6FF04A80024C8
:1010900000F0FCFB00237D2208A904A801F077FCE6
:1010A0002346224666490194009408A800F0FEFBFE
:1010B00064496548FFF7ACFF23460422634964484E
:1010C00000F0B4FB63496448FFF7A2FF634964483A
:1010D000FFF79EFF6349234604220968624800F037
:1010E000A5FB62496248FFF793FF62496248FFF738
:1010F0008FFF62496248FFF78BFF62496248FFF742
:101100008BFF62496248FFF787FF62496248FFF739
:1011100083FF62496248FFF77FFF62496248FFF739
:101120007BFF62496248FFF777FF62496248FFF739
:1011300073FF50216148FFF73FF8614D58B12046D9
:10114000FFF730F9092811D0FFF702FC2046FFF71E
:1011500029F9092806D000F0CDF95A4B186001236F
:101160002B7003E021460720FFF722F90220FFF74A
:1011700019F9384C0022206028A840F8942D114617
:1011800000F0A8F9039B142B06D12168022001313D
:101190002160C9B2FFF70CF92368052B05DD042196
:1011A0000220FFF705F9FFF791FB0420FFF7FAF89B
:1011B00000F10B03DBB2162B03D840B202F022FE83
:1011C00000E0414801F068FC0720FFF7EBF83F4CD6
:1011D0003F4B2070C0F3C00018701420FFF7F0F8E8
:1011E000264B186023789B0704D50E20FFF72CF9B7
:1011F000384B1860384801F0A7F803F01DF81B4B76
:101200001860364B1B68984201DDFFF7D1F90023C7
:101210000122009332494FF0FF33112001F038F9D9
:101220006FF000412F48FFF780F82B7804A8012BBE
:101230001EBF234B02221A7001F023FB29B030BDE0
:10124000F90D0808340100207E4F08086C010020C9
:10125000A150080824010020A85008082C010020F3
:10126000B350080804000020BF50080820010020E7
:10127000C750080814010020D25008081C010020A3
:10128000DB500808F5090808E7500808A502080817
:10129000F25008080D040808FE500808D902080892
:1012A0000B5108081D02080816510808A50E080869
:1012B0001F510808550F08082C5108080801002084
:1012C00018010020B40100200000A0C0BD010020D2
:1012D0004401002048010020AC010020140000203F
:1012E00081020808500100202DE9F041334B002510
:1012F0001D60334B88B001271F7000F01BF9314B84
:10130000314C18603148FEF7DAFE4FF6FF72304B71
:1013100002201D705D809A8000F03CFA2946384614
:1013200000F050FA3946042000F0C4F8DFF8D0800D
:101330002946204600F0C8FF2046264C4246264952
:1013400001F012FF2946204601F08DF9424623495B
:10135000204601F009FF224B02AA049304AE214C5F
:1013600096E80300204B82E80300236004F10C039D
:1013700093E8030086E8030092E8030083E8030093
:101380001A4B25716361A369A5600793184B194A2D
:10139000A361194923460195009704F108000695B9
:1013A00000F058F83046FEF7B7FF42461349204692
:1013B00001F0DAFE08B0BDE8F08100BFC4010020F2
:1013C0000A01002040010020AC010020080100209B
:1013D0003801002000010020E722080885260808BF
:1013E000F501080850010020DC4E08080502080835
:1013F000010208084502080880EE36004D0308087F
:10140000FC00002008B5024B1B68DB6B019308BD94
:101410002000060808B5024B1B685B6C019308BDF1
:101420002000060808B5024B1B689B6C019308BDA1
:101430002000060808B5024B1B68DB68019308BD55
:10144000D001040808B5024B1B68DB69019308BD95
:10145000D001040808B5024B1B681B6A019308BD44
:10146000D001040808B5024B1B685B6A019308BDF4
:10147000D001040808B5024B1B689B6A019308BDA4
:10148000D001040808B5024B1B68DB6A019308BD54
:10149000D001040808B5024B1B681B6B019308BD03
:1014A000D001040808B5024B1B681B6F019308BDEF
:1014B000D001040808B5024B1B685B6E019308BDA0
:1014C000B801040808B5024B1B689B6E019308BD68
:1014D000B801040808B5024B1B68DB6E019308BD18
:1014E000B801040808B5024B1B685B68019308BD8E
:1014F0009C01040808B5024B1B685B69019308BD99
:101500009C01040808B5024B1B68DB69019308BD08
:101510009C01040808B5024B1B689B6D019308BD34
:101520009C01040808B5024B1B68DB6D019308BDE4
:101530009C01040808B5024B1B681B68019308BD99
:10154000B001040808B5024B1B685B68019308BD35
:10155000B001040808B5024B1B689B68019308BDE5
:10156000B001040808B5024B1B68DB68019308BD95
:10157000B001040808B5024B1B681B69019308BD44
:10158000B001040808B5024B1B689B69019308BDB4
:10159000B001040808B5024B1B68DB69019308BD64
:1015A000B001040808B5024B1B681B6B019308BD12
:1015B000B001040808B5024B1B68DB68019308BD45
:1015C000AC01040808B5024B1B685B69019308BDB8
:1015D000AC01040808B5024B1B689B69019308BD68
:1015E000AC01040808B5024B1B68DB69019308BD18
:1015F000AC01040808B5024B1B681B6A019308BDC7
:10160000AC01040808B5024B1B685B6A019308BD76
:10161000AC01040808B5024B1B689B6A019308BD26
:10162000AC01040808B5024B1B68DB6A019308BDD6
:10163000AC01040808B5024B1B681B6B019308BD85
:10164000AC01040808B5024B1B685B6B019308BD35
:10165000AC01040808B5024B1B681B6C019308BD64
:10166000AC01040808B5024B1B689B6C019308BDD4
:10167000AC01040808B5024B1B68DB6C019308BD84
:10168000AC01040808B5024B1B68DB69019308BD77
:10169000B401040808B5024B1B681B6A019308BD1E
:1016A000B401040808B5024B1B689B69019308BD8F
:1016B000C401040808B5024B1B685B6A019308BDAE
:1016C000C401040808B5024B1B689B6A019308BD5E
:1016D000C401040808B5024B1B68DB6A019308BD0E
:1016E000C401040808B5024B1B681B6B019308BDBD
:1016F000C401040808B5024B1B685B6B019308BD6D
:10170000C401040808B5024B1B689B6B019308BD1C
:10171000C401040808B5024B1B681B6C019308BD8B
:10172000C401040808B5024B1B681B68019308BD7F
:101730001C00060808B5024B1B681B69019308BD15
:101740001C00060808B5024B1B685B69019308BDC5
:101750001C00060808B5024B1B689B69019308BD75
:101760001C00060808B5024B1B68DB69019308BD25
:101770001C00060808B5024B1B681B6A019308BDD4
:101780001C00060808B5024B1B681B68019308BDC6
:10179000A401040808B5024B1B685B68019308BDEF
:1017A000A401040808B5024B1B685B69019308BDDE
:1017B000A401040808B5024B1B689B69019308BD8E
:1017C000A401040808B5024B1B68DB6A019308BD3D
:1017D000A401040808B5024B1B68DB6C019308BD2B
:1017E000A401040808B5024B1B685B6D019308BD9A
:1017F000A401040808B5024B1B689B6D019308BD4A
:10180000A401040808B5034B1B68D3F8903001937A
:1018100008BD0000A401040808B5034B1B68D3F8F9
:101820009C30019308BD0000A401040808B5024BD8
:101830001B681B68019308BDCC01040808B5024B66
:101840001B685B68019308BDCC01040808B5024B16
:101850001B689B68019308BDCC01040808B5024BC6
:101860001B68DB68019308BDCC01040808B5024B76
:101870001B681B69019308BDCC01040808B5024B25
:101880001B685B69019308BDCC01040808B5024BD5
:101890001B68DB69019308BDCC01040808B5024B45
:1018A0001B681B6A019308BDCC01040808B5024BF4
:1018B0001B685B6A019308BDCC01040808B5024BA4
:1018C0001B68DB6A019308BDCC01040808B5024B14
:1018D0001B681B6B019308BDCC01040808B5024BC3
:1018E0001B68DB6B019308BDCC01040808B5024BF3
:1018F0001B685B68019308BDC801040808B5024B6A
:101900001B689B68019308BDC801040808B5024B19
:101910001B68DB68019308BDC801040808B5024BC9
:101920001B681B69019308BDC801040808B5024B78
:101930001B685B69019308BDC801040808B5024B28
:101940001B689B69019308BDC801040808B5024BD8
:101950001B68DB69019308BDC801040808B5024B88
:101960001B681B6A019308BDC801040808B5024B37
:101970001B681B6B019308BDC801040808B5024B26
:101980001B685B6B019308BDC801040808B5024BD6
:101990001B681B68019308BDA001040808B5024B31
:1019A0001B685B68019308BDA001040808B5024BE1
:1019B0001B689B68019308BDA001040808B5024B91
:1019C0001B681B69019308BDA001040808B5024B00
:1019D0001B689B69019308BDA001040808B5024B70
:1019E0001B68DB69019308BDA001040808B5024B20
:1019F0001B68DB6A019308BDA001040808B5024B0F
:101A00001B681B6B019308BDA00104088A4230B516
:101A100007D0039D441AED1A6C43521A94FBF2F45A
:101A2000E01830BD0021FFF7BDBE10B58368044645
:101A30000BB901F0A0FBC3689847A3681BB1032250
:101A40002146204698472046BDE81040102101F06D
:101A500090BB2DE9FF41002604AC054610468846A0
:101A6000174644F8046D02F0D2FD009681B2D8F812
:101A7000043022463846FFF7C5FC20B131462846DF
:101A800000F060FD03E02146284600F053FD2846A3
:101A900004B0BDE8F081002211464068FFF75EBF48
:101AA000002211464068FFF769BF00224068FFF737
:101AB0005DBF002281F001014068FFF747BF0023AE
:101AC0001A4619464068FFF739BF00231A461946DF
:101AD0004068FFF72BBF002211464068FFF70EBF9A
:101AE000002202214068FFF711BF00231A46406818
:101AF000FFF7FCBEF0B50F461A4B00250360182611
:101B0000283389B043608560C56032462946044663
:101B1000103002F00EFD2A4629467868FFF7FEFED7
:101B200008B9A0601BE02946324602A8009501953D
:101B300002F0FFFC02A96846ADF80860FFF76AFCF6
:101B400010B10123A3600AE0009B019AA360E26048
:101B50000BB90223A36002A9204600F095F82046A5
:101B600009B0F0BDC051080838B5084C28252A46F0
:101B70000021204602F0DDFC4FF0FF336360044B90
:101B800004225A60034A25801A6038BDD001002023
:101B9000C80100208C5108087047007D7047000084
:101BA00008B5037D1BB18069B0F1004F01D1002061
:101BB00008BD02F027F9024902F02CFA08BD00BF67
:101BC0000000C84208B5037D1BB1006AB0F1004FA8
:101BD00001D1002008BD02F015F9024902F01AFAFD
:101BE00008BD00BF0000C84270B50D4606460A2277
:101BF0008168284600F00FFE2C210446284600F09C
:101C0000A3FD0A220444F168284600F004FE2044A3
:101C100070BDA0F10400FFF7E7BF10B5044628210E
:101C200001F0A7FA204610BD08B5037D5BB1406AFC
:101C3000002808DB02F0E6F8044902F0EBF9044959
:101C400002F034F908BD034808BD00BF00FF7F471C
:101C50000000C842000080BF08B5037D5BB1C069C9
:101C6000002808DB02F0CEF8044902F0D3F9044959
:101C700002F01CF908BD034808BD00BF00FF7F4704
:101C80000000C842000080BF30B50D4600F11004CE
:101C90000FCD0FC495E8030084E80300012030BD98
:101CA00070470020704710B50446102101F061FA1A
:101CB000204610BD08B508B1FFF7F5FF08BD0022AA
:101CC00002604FF69C72828010B5B1F904408480A6
:101CD0008A8002680C6804600A6010BD10B5044672
:101CE0000068FFF75BFE204610BD38B5C468F4B14C
:101CF0002378022B03D104F10C00FFF7EFFF656896
:101D000035B12846FEF708FB1021284601F031FACC
:101D1000A56835B12846FEF7FFFA1021284601F0E4
:101D200028FA2046BDE83840142101F022BA38BD17
:101D300010B588B00446684600F0EAFD694604A87C
:101D400000F008FE04A8A047044604A800F099FD8E
:101D5000684600F096FD204608B010BDF0B5074675
:101D60000E46154685B0102422460021684602F032
:101D7000E0FB002269461046ADF80040029703964A
:101D80000195FFF75BFD05B0F0BD13B5044691E882
:101D9000050000234B600B602060626001A8019386
:101DA0000093FEF7BFFD204602B010BD0B68036034
:101DB00013B15A6801325A607047F7B50C460646AF
:101DC0000F4654F8043B02AD45F8083D214601A8F2
:101DD000FFF7ECFF29463046FFF7D7FF01A8FEF7D3
:101DE000A1FD2046FEF79EFD3846082101F0C1F90D
:101DF000304603B0F0BD13B50B46044603C88DE86A
:101E0000030093E8030084E803009DE8030083E8EF
:101E1000030002B010BD000038B500230446036083
:101E200010200D46FEF73BF928B101234360836083
:101E3000024BC56003602060204638BDF45108089D
:101E4000826810B50AB901F096F9C368BDE8104080
:101E5000184708B5006800F11001FFF7F1FF08BD51
:101E6000826810B50AB901F086F9C368BDE8104070
:101E7000184708B5006800F11001FFF7F1FF08BD31
:101E800038B5002383608B6804460D462BB10222CF
:101E90009847EB68E360AB68A360204638BD00005C
:101EA000F0B589B004686846FFF709FF4FF00202F9
:101EB00000238DF80830D4E84F3F002B03D1C4E84D
:101EC000412F0029F7D102D08DF8083063E014F1DA
:101ED0000C0503D069462846FFF7F1FEBFF35F8F7C
:101EE00001236370BFF35F8F04F10803002053E800
:101EF000006F43E80002002AF9D1BFF35F8F002E84
:101F000049D0FFF767FC20B129463046FFF798FF1C
:101F10003AE0314602A8FFF7B3FFE068B4F9105089
:101F200008B102F059FB06901020ADF81C50FEF7E6
:101F3000B6F80546E8B1002787601820FEF7AFF82D
:101F4000044688B10146876002A8FFF754FF049B4E
:101F5000A268A360059B0492E26806A9E36004F10D
:101F600010000592FFF7ABFE0D4B2C60EB600D4BA4
:101F7000AB6006A8FFF7B2FE02A8FEF7CDF900227B
:101F800029460948FFF72EFC3046FEF7C5F9102117
:101F9000304601F0EEF86846FFF7A0FE09B0F0BD4C
:101FA000531E0808C92008082B1A08082DE9F04F0D
:101FB0008BB006460F46904699469DF850A0FFF715
:101FC0005DFC07AD834630BB4FF62E73059005A927
:101FD0002846ADF81830FFF772FE1420FEF75FF8C0
:101FE000044658B10223037001234370C0F804B0C3
:101FF000C0F808B029460C30FFF761FE3046214694
:1020000040F8044BFFF708FF2846FFF767FE05A8D6
:10201000FFF764FE52E000240C2314206C60AC60D7
:102020000793FEF73CF8014618B104704470446011
:10203000846004A80391FFF7EFFE224B0820089369
:10204000FEF72DF8044628B1039B04A940F8043B91
:10205000FFF7ACFE00955FFA8AF34A4641463846E0
:102060000994FFF71BFC20B9039B5B7803F0FF0288
:1020700083B1039B04A906A80593FFF797FE05A962
:102080003046FFF782FE06A8FEF74CFC04A8FEF7D8
:1020900049FC13E04FF69C7305A903A80592ADF81F
:1020A0001830FFF7FDFE05A8FFF718FE05A80999EF
:1020B000FFF783FE06A8FEF735FCDAE730460BB0E3
:1020C000BDE8F08F39220808022AF8B5044606D088
:1020D000032A17D0012A22D10B6803601FE01820C1
:1020E0000E68FDF7DCFF054650B13146FFF7C8FE2C
:1020F0003069B6F9147008B102F06EFA2861AF8247
:1021000025600CE0046854B104F11000FFF7E6FD0F
:102110002046FEF701F91821204601F02AF8002098
:10212000F8BD38B5002383608B6804460D462BB19B
:1021300002229847EB68E360AB68A360204638BD95
:10214000022A70B5044606D0032A11D0012A18D1FC
:102150000B68036015E014200E68FDF7A0FF05462C
:1021600020B13146FFF7DDFF337C2B74256008E09A
:10217000046834B12046FEF7CFF81421204600F061
:10218000F8FF002070BD0000F0B50C46BFF35F8F74
:1021900087B0002350E8006F40E80032002AF9D1F0
:1021A000BFF35F8F002E3FD01846FFF713FB0746A3
:1021B00020B121463046FFF753FE2EE0314601A8FC
:1021C000FFF7AFFF237810208DF81430FDF767FF7D
:1021D0000546D0B187601420FDF761FF044678B151
:1021E0008760014601A8FFF706FE039BA268A36073
:1021F000049B0392E268E3609DF814300492237418
:102200000A4B2C60EB600A4BAB6001A8FEF784F828
:10221000002229460748FFF7E5FA3046FEF77CF82A
:102220001021304600F0A5FF07B0F0BD731E08086E
:10223000412108082B1A080830B5044685B00D4620
:1022400068461146FFF7B9FD7CB124B228460DB1AE
:1022500002F0C2F9029002A96846ADF80C40FFF7FF
:102260001FFE02A8FFF73AFD1DE04FF001020098A3
:102270008DF80840D0E84F3FA34203D1C0E8412F7A
:102280000029F7D102D08DF808300CE010F10C01D4
:102290004FF0010318BF0373BFF35F8F043000F8E2
:1022A000033CFFF771FF01A8FEF73CFB05B030BD12
:1022B000006800F0D9B810B50446016002710AB197
:1022C000FFF7F6FF204610BD38B504460D4600F076
:1022D000E5FE2A4601462046FFF7EDFF204638BDC1
:1022E000006800F0CAB810B5037904460BB1FFF7D7
:1022F000F7FF204610BDF8B504460F4616461D46AA
:10230000FFF7D6FF2068362100F0A0F82068394694
:1023100003689B6898470121206800F09AF8022220
:1023200036210123206800F088F8206803685B6983
:1023300098473070206803685B699847287020468A
:10234000BDE8F840FFF7CCBF13B5002202AB03F89D
:10235000012D8DF8062004210DF10602FFF7CBFFB9
:102360009DF8070001F0A4F90022084B01F006FADD
:1023700001F03EFC04469DF8060001F043FD0146D5
:10238000204601F08BFC02B010BD00BF0000703F82
:102390007047F8B5064615460C468F18BC4206D065
:1023A000336814F8011B9B6830469847F6E72846C7
:1023B000F8BD0022007CFFF71DB90021007CFFF76B
:1023C00021B90021007CFFF725B90021007CFFF72F
:1023D00029B90021007CFFF72DB910B5044614215E
:1023E00000F0C7FE204610BD10B5044608464FF465
:1023F0007A73A360044B0021207461602360FFF7AF
:1024000029F9204610BD00BF1052080800231A46C3
:102410001946007CFFF7CEB813B50024007C009469
:10242000FFF7D0F8C0B202B010BD0123FFF7F4BF30
:102430000123D2B2C9B2FFF7EFBFDBB2D2B2C9B249
:10244000FFF7EABF0022007CFFF7C4B8C9B2FFF76C
:10245000F9BF0022007CFFF7C5B80121FFF7F9BFE3
:102460000021007CFFF7EEB808B50021007CFFF7E3
:10247000F9F8B0FA80F0400908BD08B50021007CE9
:10248000FFF7F8F8B0FA80F0400908BD00470000F7
:10249000F0B51C4685B00E4617460546FFF77AF89C
:1024A000002084424FF0040303908DF80C30B4BF39
:1024B00003469DF828303246A4BF8DF80E3003AB9A
:1024C000009306493B462846A8BF8DF80D40FFF70C
:1024D00059F8B0FA80F0400905B0F0BD8D24080825
:1024E000704710B50446082100F043FE204610BD99
:1024F000F8B50F4600F10806051D002416F8011D69
:102500000A22384600F063F9AE42044407D0002C9A
:10251000F4D02E21384600F017F90444EEE72046A7
:10252000F8BD0000024A026000224260704700BF0E
:1025300038520808024A02600A684260704700BFC9
:1025400038520808014A4160026070473852080852
:1025500010B59DF8084044EA032343EA024242EAE8
:102560000161416010BD000037B5044D05609DF864
:1025700018500095FFF7ECFF03B030BD3852080843
:10258000014A024B1A607047BA520808F80100204D
:1025900000231A464068FFF7A9B9002202214068CB
:1025A000FFF7B4B9002211464068FFF7A7B900222F
:1025B00011464068FFF7B2B900231A461946406831
:1025C000FFF7B4B900231A4619464068FFF7B6B9B9
:1025D000002281F001014068FFF7B8B9002240688D
:1025E000FFF7C4B9002211464068FFF7C7B90022BF
:1025F00011464068FFF7B2B9F0B5174687B00546F7
:1026000004A8FFF78FFF002606AC384644F80C6D8F
:1026100001F0FDFF0A4B009681B25B682246384606
:10262000FEF7F0FE20B131462846FFF78BFF03E0AE
:1026300021462846FFF77EFF284607B0F0BD00BFC1
:10264000C8010020024B034A1A6000225A607047FA
:10265000FC0100202C53080808B500F01FFDBDE860
:102660000840FFF701BF10B50446017009B1FFF73C
:10267000F3FF204610BD08B500F010FDBDE808408E
:10268000FFF7FBBE10B5037804460BB1FFF7F3FF6D
:10269000204610BD10B504460068FFF7ECFF204649
:1026A00010BD37B502AC0D4644F8040DFFF7D4FF5A
:1026B00000F0F4FC6B21FFF7C9FE00F0EFFC0368AB
:1026C00029469B68984700F0E9FC0121FFF7C1FE0D
:1026D00000F0E4FC01231A466B21FFF7AEFE00F088
:1026E000DDFC03685B69984705462046FFF7D2FF8B
:1026F000E8B203B030BD0821FFF7D3BFF8B50646F6
:102700000D468F180024BD420CD0336815F8011B0C
:102710009B6830469847002801DB0444F3E7002C0F
:1027200008BF04462046F8BD70B505460C4608466D
:1027300049B101F06CFF2B68024621462846BDE8EE
:102740007040DB68184770BD03689B68184738B550
:102750000D210546FFF7F8FF0A2104462846FFF73A
:10276000F3FF204438BD38B50546FFF7DDFF0446CA
:102770002846FFF7ECFF204438BD012A98BF0A2203
:1027800030B50B468BB000218DF824100DF12304D9
:10279000B3FBF2F505FB1233DBB2092B94BF3033E8
:1027A0003733DBB2214604F801392B46002DEFD137
:1027B000FFF7BAFF0BB030BD10B422B90368C9B23D
:1027C0009B6810BC1847D2B210BCFFF7D6BFFFF70A
:1027D000F3BF2DE9F04107460E4615462AB9BDE87C
:1027E000F0410368C9B29B6818470A2A02D1002940
:1027F00001DA04E0D2B2BDE8F041FFF7BEBF2D21FF
:10280000FFF7A2FF2A46044671423846FFF7B5FF9C
:102810002044BDE8F081FFF7DCBF10B50446FDF7AA
:102820007BFD204610BD0000034800238360034A5F
:10283000034900F099BC00BF04020020FC00002006
:102840001B280808704710B50446102100F091FCC1
:10285000204610BD70B504460E46074B00250360A8
:1028600040F80C5FFEF716FE30462671FEF70AFFB1
:10287000A560204670BD00BF605308080079FEF7D0
:1028800009BF10B504460068FFF788F8204610BD60
:1028900010B50446006808B1FFF780F800232360F4
:1028A000A360636010BD38B504460D460068013171
:1028B000FFF77CF810B184E82100012038BD10B585
:1028C0000368044613B143688B4207D22046FFF7E2
:1028D000EAFF20B1A3680BB922681370012010BD74
:1028E00070B50E46114604461546FFF7E8FF18B9C5
:1028F0002046FFF7CDFF09E02A463146A560206853
:1029000001F00CFE2268A3680021D154204670BD5E
:1029100038B50023044603604360836003730D46AB
:1029200039B1084601F073FE294602462046FFF7FA
:10293000D7FF204638BD884210B50B46044607D065
:10294000096819B19A68FFF7CBFF01E0FFF7A0FF14
:10295000204610BD10B50446002303604360836029
:102960000373FFF7E8FF204610BD08B582680B46E9
:1029700012B919B9012008BD11B90368187802E02D
:10298000006801F016FEB0FA80F0400908BD70B58D
:102990000E469AB191B185689D4202D800230B7012
:1029A00070BD541EED1AAC4228BF2C460168224669
:1029B0001944304601F048FE0023335570BD0146EE
:1029C00000228C20FEF77EBD0020FFF7F8BF00003C
:1029D00010B50446084611461A460023FEF7EAFEE3
:1029E000064B00221A704FF6FF7258809A801A68C0
:1029F0009B882260A380204610BD00BF14020020E7
:102A00004FF6FF72034B0020187058809A80FEF733
:102A1000C1BE00BF14020020F0B5144B144F1E6855
:102A2000144B064418683B6806449E428BB01BD08A
:102A30000AA840F8286D01F079FC0446436901AD0D
:102A400003F26C7343610FCC0FC50FCC0FC5D4F8E4
:102A500000E0094CC5F800E001AD0FCD0FC40FCD6B
:102A60000FC43E60C4F800E00BB0F0BD4C02002083
:102A700048020020440200201C02002008B500206B
:102A8000FEF724FF28B1FEF7F9FE80F00100C0B286
:102A900008BD012008BD000010B50949044601F039
:102AA000A3FB60B90749204601F0BCFB38B90649D1
:102AB000204601F0FBF901F0BFFB044B186010BD8C
:102AC000000040C100006041000061454C02002050
:102AD00037B50E4B04461B6802A819440C4B1B6803
:102AE000194440F8041D01F021FC01F0CBFB054620
:102AF00001F08DFD0023284400F8013C29462046C2
:102B0000FFF706FF204603B030BD00BF4C02002097
:102B10004402002010B50020FEF7FCFC044668B912
:102B2000FEF730FE01280BD12046FEF763FE38B9D0
:102B3000FFF7A4FF30B9FEF789FEF9E7012010BDC9
:102B4000002010BDFFF79AFF0020FEF7E3FC0030E5
:102B500018BF012010BD08B5FFF7DCFFBDE8084035
:102B6000FEF7D0BC08B5FFF7F6FFFFF755FF014BA6
:102B7000986808BD1C02002008B5FFF7ECFFFFF7BE
:102B80004BFF014B586808BD1C020020024B1A681D
:102B9000024B1A60704700BF440000204002002032
:102BA00070474174704708B5007CFEF7B3FD20EA1A
:102BB000E07008BD08B5007CFEF784FD20EAE070F7
:102BC00008BD08B5007CFEF78DFD30EA200028BF67
:102BD0004FF0FF3008BD08B5007CFEF77BFD30EA02
:102BE000200028BF4FF0FF3008BD007CFEF782BDFB
:102BF00010B50446142100F0BCFA204610BD70B593
:102C0000457C04460E4625B9007CFEF783FD00286E
:102C100005DD3146207CBDE87040FEF74BBD2846FF
:102C200070BD000010B504460846114600226260DF
:102C30004FF47A72A260054A207422600122627405
:102C40001A46FEF72FFD204610BD00BF9853080816
:102C5000007CFEF757BD000038B50C4D296811F017
:102C6000010411D12846FDF71EFA68B1084A214631
:102C7000084B0948FFF7D6FF2846FDF719FA074A1F
:102C80000749054800F070FA034838BDE802002003
:102C9000EC0200206402002050020020FC00002012
:102CA000A12B080841747047704708B50021007CCB
:102CB000FEF750FD30EA200028BF4FF0FF3008BD7E
:102CC00008B50121007CFEF745FD30EA200028BF51
:102CD0004FF0FF3008BD08B5007CFEF733FD20EA59
:102CE000E07008BD08B5007CFEF724FD20EAE07026
:102CF00008BD007CFEF73EBD10B50446142100F06F
:102D000038FA204610BD38B50446007C0D46FEF763
:102D100019FD002801DC607C28B12946207CFEF7E3
:102D200021FD20EAE07038BD10B504460023636041
:102D30004FF47A73A360054B084623600123217486
:102D400063741146FEF7EEFC204610BDC853080818
:102D500010B504461422002101F0EBFB054B204680
:102D60006360054BE36040F20113238181232382DA
:102D700010BD00BFF50300207403002030B50E4DD8
:102D800087B001A8FFF7E4FF296811F0010410D112
:102D90002846FDF788F960B101AA21460748FFF7E8
:102DA000C3FF2846FDF784F9054A0649034800F0A9
:102DB000DBF9024807B030BD70030020F8040020A2
:102DC000FC000020A92C080810B50446142200219C
:102DD00001F0AFFB054B20466360054BE36040F21A
:102DE000011323818123238210BD00BFA805002089
:102DF0001005002010B50E4C86B001A8FFF7E4FFC7
:102E00002368DB0710D42046FDF74DF960B101AA15
:102E100001210848FFF788FF2046FDF749F9064AD7
:102E20000649044800F0A0F9024806B010BD00BFF2
:102E30000C05002094050020FC000020A92C0808A7
:102E400008B5184B33B1FFF799FF03681B69984722
:102E500000281EDC144B33B1FFF7FEFE03681B692C
:102E60009847002818DC114B0BB1AFF30080104BD2
:102E70000BB1AFF300800F4B0BB1AFF300800E4BE3
:102E80007BB1FFF7B7FF03681B699847002806DC92
:102E900008BDAFF30080DDE7AFF30080E3E7AFF3F9
:102EA000008008BD000000000000000000000000DD
:102EB00000000000000000000000000008B5FFF75F
:102EC000BFFFFEF717FB014B186008BDB4060020DA
:102ED0000248034A0349121A01F020BB0040024095
:102EE000044002409056080807B5002300931A4694
:102EF0006FF07701FEF790FC03B05DF804FB000073
:102F000007B543880A2B08D0502B09D1094B1B6801
:102F10003BB103B05DF804EB1847FFF7E5FF06E0AF
:102F2000002300931A466FF07701FEF775FC03B09B
:102F30005DF804FBAC06002038B5104C104D23683A
:102F4000AB42104B0CBF012200221A7002D0FFF7D7
:102F5000BFFF2560FEF7C6FA044601F0F3FA0A4BFC
:102F600013B12046AFF3008000210748FEF7B6FCFE
:102F7000BDE8384000210548FEF744BC004002404F
:102F80001E1C279AB006002000000000012F080830
:102F900010B504460F48FFF771FC28B1A4F10D03EA
:102FA000022B01D8002010BD00F058F8FFF758FAA6
:102FB00008B1012CF6D9FFF74FFEFFF749FE18B113
:102FC000A4F11203012BEDD92E2C8CBF002001207F
:102FD00010BD00BFF00600202E2838B504460D466F
:102FE0000AD8FF2908D0FFF7D3FF28B12946204689
:102FF000BDE83840FEF7AEBA38BD38B504460D46D8
:10300000FEF7B0FAFF2810D0062804D84D2323FA83
:1030100000F0C30709D42046FFF7BAFF28B12946BC
:103020002046BDE83840FEF7A5BA38BD10B50446C5
:1030300009289CBF0A34A4B22046FFF7A9FF50B16B
:1030400003212046FEF77EFA032804D12046BDE87E
:103050001040FEF7A7BA002010BD000038B50B4D98
:10306000296811F001040FD12846FDF71CF858B16A
:1030700021460748FFF7B8F92846FDF719F8054A31
:103080000549034800F070F8014838BDB806002033
:10309000D0060020FC0000209123080810B50B4C3E
:1030A0002368DB070FD42046FCF7FDFF58B102214F
:1030B0000748FFF799F92046FCF7FAFF054A064949
:1030C000034800F051F8024810BD00BFE40600209C
:1030D000BC060020FC0000209123080813B5084C12
:1030E00000231A46194600932046FFF73DFA204672
:1030F000044A054902B0BDE8104000F035B800BFF1
:10310000E8060020FC000020E124080870B5114EFC
:10311000114D124C00213046FFF79CFB3046104EFB
:103120002A46214600F020F801213046FFF792FBA5
:1031300030460C4E2A46214600F016F80221304651
:10314000FFF788FB2A4621463046BDE8704000F074
:103150000BB800BFF0060020FC000020452808083E
:1031600000070020100700200B460146184601F01A
:10317000C9B8FCF796BF08B5FEF738FC244B1A68AF
:10318000D0075CBF01221A60224B1A68D1075CBFCE
:1031900001221A60204B1A68D2075CBF01221A6014
:1031A0001E4B1A68D0075CBF01221A601C4B1A68BC
:1031B000D1075CBF01221A601A4B1A68D2075CBFA4
:1031C00001221A60184B1A68D0075CBF01221A60EE
:1031D000164B1A68D1075CBF01221A60144B1A689B
:1031E000D2075CBF01221A60124B1A68D0075CBF7D
:1031F00001221A60104B1A68D1075CBF01221A60C5
:103200000E4B1A68D2075CBF01221A60704700BFDC
:103210004C070020480700204407002040070020FA
:103220003C0700203807002034070020300700202A
:103230002C0700202807002024070020200700205A
:10324000184B1A68D1075CBF01221A60164B1A6826
:10325000D2075CBF01221A60144B1A68D0075CBF0A
:1032600001221A60124B1A68D1075CBF01221A6052
:10327000104B1A68D2075CBF01221A600E4B1A6805
:10328000D0075CBF01221A600C4B1A68D1075CBFE3
:1032900001221A600A4B1A68D2075CBF01221A6029
:1032A000704700BF6C0700206807002064070020FB
:1032B000600700205C07002058070020540700200A
:1032C00050070020184B1A68D1075CBF01221A6012
:1032D000164B1A68D2075CBF01221A60144B1A6899
:1032E000D0075CBF01221A60124B1A68D1075CBF7D
:1032F00001221A60104B1A68D2075CBF01221A60C3
:103300000E4B1A68D0075CBF01221A600C4B1A687A
:10331000D1075CBF01221A600A4B1A68D2075CBF52
:1033200001221A60704700BF8C0700208807002028
:1033300084070020800700207C07002078070020F9
:103340007407002070070020244B1A68D0075CBF68
:1033500001221A60224B1A68D1075CBF01221A6051
:10336000204B1A68D2075CBF01221A601E4B1A68F4
:10337000D0075CBF01221A601C4B1A68D1075CBFE2
:1033800001221A601A4B1A68D2075CBF01221A6028
:10339000184B1A68D0075CBF01221A60164B1A68D6
:1033A000D1075CBF01221A60144B1A68D2075CBFB8
:1033B00001221A60124B1A68D0075CBF01221A6002
:1033C000104B1A68D1075CBF01221A600E4B1A68B5
:1033D000D2075CBF01221A60704700BFBC07002003
:1033E000B8070020B4070020B0070020AC07002079
:1033F000A8070020A4070020A00700209C070020A9
:1034000098070020940700209007002081F00041D9
:1034100002E000BF83F0004330B54FEA41044FEAB9
:10342000430594EA050F08BF90EA020F1FBF54EA54
:10343000000C55EA020C7FEA645C7FEA655C00F0F0
:10344000E2804FEA5454D4EB5555B8BF6D420CDDC1
:103450002C4480EA020281EA030382EA000083EA44
:10346000010180EA020281EA0303362D88BF30BDE4
:1034700011F0004F4FEA01314FF4801C4CEA11313A
:1034800002D0404261EB410113F0004F4FEA033399
:103490004CEA133302D0524263EB430394EA050F24
:1034A00000F0A780A4F10104D5F1200E0DDB02FA93
:1034B0000EFC22FA05F2801841F1000103FA0EF227
:1034C000801843FA05F359410EE0A5F120050EF1ED
:1034D000200E012A03FA0EFC28BF4CF0020C43FA1E
:1034E00005F3C01851EBE37101F0004507D54FF02B
:1034F000000EDCF1000C7EEB00006EEB0101B1F57B
:10350000801F1BD3B1F5001F0CD349085FEA3000C0
:103510004FEA3C0C04F101044FEA445212F5800FCB
:1035200080F09A80BCF1004F08BF5FEA500C50F168
:10353000000041EB045141EA050130BD5FEA4C0C4B
:10354000404141EB010111F4801FA4F10104E9D1D4
:1035500091F0000F04BF01460020B1FA81F308BFCB
:103560002033A3F10B03B3F120020CDA0C3208DD97
:1035700002F1140CC2F10C0201FA0CF021FA02F172
:103580000CE002F11402D8BFC2F1200C01FA02F1E2
:1035900020FA0CFCDCBF41EA0C019040E41AA2BF07
:1035A00001EB0451294330BD6FEA04041F3C1CDACF
:1035B0000C340EDC04F11404C4F1200220FA04F0EF
:1035C00001FA02F340EA030021FA04F345EA030199
:1035D00030BDC4F10C04C4F1200220FA02F001FA5B
:1035E00004F340EA0300294630BD21FA04F02946DD
:1035F00030BD94F0000F83F4801306BF81F4801176
:103600000134013D4EE77FEA645C18BF7FEA655CE8
:1036100029D094EA050F08BF90EA020F05D054EABA
:10362000000C04BF1946104630BD91EA030F1EBFBF
:103630000021002030BD5FEA545C05D140004941C3
:1036400028BF41F0004130BD14F580043CBF01F5B6
:10365000801130BD01F0004545F0FE4141F470019C
:103660004FF0000030BD7FEA645C1ABF1946104677
:103670007FEA655C1CBF0B46024650EA013406BF78
:1036800052EA033591EA030F41F4002130BD00BF37
:1036900090F0000F04BF0021704730B54FF48064F4
:1036A00004F132044FF000054FF0000150E700BF75
:1036B00090F0000F04BF0021704730B54FF48064D4
:1036C00004F1320410F0004548BF40424FF00001C1
:1036D0003EE700BF42004FEAE2014FEA31014FEA04
:1036E00002701FBF12F07F4393F07F4F81F0605153
:1036F000704792F0000F14BF93F07F4F704730B5C2
:103700004FF4607401F0004521F0004120E700BF54
:1037100050EA010208BF704730B54FF000050AE0DB
:1037200050EA010208BF704730B511F0004502D5DC
:10373000404261EB41014FF4806404F132045FEADE
:10374000915C3FF4DCAE4FF003025FEADC0C18BF83
:1037500003325FEADC0C18BF033202EBDC02C2F179
:10376000200300FA03FC20FA02F001FA03FE40EA0B
:103770000E0021FA02F11444C1E600BF70B54FF00B
:10378000FF0C4CF4E06C1CEA11541DBF1CEA1355ED
:1037900094EA0C0F95EA0C0F00F0DEF82C4481EA55
:1037A000030621EA4C5123EA4C5350EA013518BF75
:1037B00052EA033541F4801143F4801338D0A0FB62
:1037C00002CE4FF00005E1FB02E506F00042E0FB0F
:1037D00003E54FF00006E1FB03569CF0000F18BF15
:1037E0004EF0010EA4F1FF04B6F5007F64F54074BD
:1037F00004D25FEA4E0E6D4146EB060642EAC62150
:1038000041EA55514FEAC52040EA5E504FEACE2EBC
:10381000B4F1FD0C88BFBCF5E06F1ED8BEF1004FBF
:1038200008BF5FEA500E50F1000041EB045170BD3B
:1038300006F0004646EA010140EA020081EA03017F
:10384000B4EB5C04C2BFD4EB0C0541EA045170BD7B
:1038500041F480114FF0000E013C00F3AB8014F1F5
:10386000360FDEBF002001F0004170BDC4F100043E
:10387000203C35DA0C341BDC04F11404C4F12005BF
:1038800000FA05F320FA04F001FA05F240EA02001A
:1038900001F0004221F0004110EBD37021FA04F650
:1038A00042EB06015EEA430E08BF20EAD37070BD0A
:1038B000C4F10C04C4F1200500FA04F320FA05F069
:1038C00001FA04F240EA020001F0004110EBD3706B
:1038D00041F100015EEA430E08BF20EAD37070BDDB
:1038E000C4F1200500FA05F24EEA020E20FA04F3B4
:1038F00001FA05F243EA020321FA04F001F0004163
:1039000021FA04F220EA020000EBD3705EEA430ED3
:1039100008BF20EAD37070BD94F0000F0FD101F002
:103920000046400041EB010111F4801F08BF013C3B
:10393000F7D041EA060195F0000F18BF704703F079
:103940000046520043EB030313F4801F08BF013D00
:10395000F7D043EA0603704794EA0C0F0CEA1355BC
:1039600018BF95EA0C0F0CD050EA410618BF52EA76
:103970004306D1D181EA030101F000414FF000007C
:1039800070BD50EA410606BF1046194652EA43068A
:1039900019D094EA0C0F02D150EA013613D195EAFE
:1039A0000C0F05D152EA03361CBF104619460AD146
:1039B00081EA030101F0004141F0FE4141F4700150
:1039C0004FF0000070BD41F0FE4141F4780170BD40
:1039D00070B54FF0FF0C4CF4E06C1CEA11541DBFA5
:1039E0001CEA135594EA0C0F95EA0C0F00F0A7F8A7
:1039F000A4EB050481EA030E52EA03354FEA0131D4
:103A000000F088804FEA03334FF0805545EA1313E6
:103A100043EA12634FEA022245EA111545EA1065AE
:103A20004FEA00260EF000419D4208BF964244F145
:103A3000FD0404F5407402D25B084FEA3202B61A64
:103A400065EB03055B084FEA32024FF480104FF438
:103A5000002CB6EB020E75EB030E22BFB61A7546AC
:103A600040EA0C005B084FEA3202B6EB020E75EB3F
:103A7000030E22BFB61A754640EA5C005B084FEAA7
:103A80003202B6EB020E75EB030E22BFB61A754674
:103A900040EA9C005B084FEA3202B6EB020E75EB7F
:103AA000030E22BFB61A754640EADC0055EA060E40
:103AB00018D04FEA051545EA16754FEA06164FEA83
:103AC000C30343EA52734FEAC2025FEA1C1CC0D12F
:103AD00011F4801F0BD141EA00014FF000004FF0BC
:103AE000004CB6E711F4801F04BF01430020B4F17D
:103AF000FD0C88BFBCF5E06F3FF6AFAEB5EB030C35
:103B000004BFB6EB020C5FEA500C50F1000041EB31
:103B1000045170BD0EF0004E4EEA113114EB5C04FE
:103B2000C2BFD4EB0C0541EA045170BD41F48011D1
:103B30004FF0000E013C90E645EA060E8DE60CEAD9
:103B4000135594EA0C0F08BF95EA0C0F3FF43BAFF6
:103B500094EA0C0F0AD150EA01347FF434AF95EAAD
:103B60000C0F7FF425AF104619462CE795EA0C0F91
:103B700006D152EA03353FF4FDAE1046194622E75E
:103B800050EA410618BF52EA43067FF4C5AE50EA38
:103B900041047FF40DAF52EA43057FF4EBAE12E728
:103BA0004FEA410212F5001215D211D56FF4787365
:103BB000B3EB625212D94FEAC12343F0004343EA08
:103BC000505311F0004F23FA02F018BF40427047E3
:103BD0004FF00000704750EA013005D111F000406D
:103BE00008BF6FF0004070474FF00000704700BF03
:103BF0004FEA4102B2F1E04324BFB3F5001CDCF10F
:103C0000FE5C0DD901F0004C4FEAC0024CEA507046
:103C1000B2F1004F40EB830008BF20F00100704775
:103C200011F0804F21D113F13872BCBF01F0004078
:103C3000704741F480114FEA5252C2F11802C2F1AA
:103C4000200C10FA0CF320FA02F018BF40F001002B
:103C50004FEAC1234FEAD32303FA0CFC40EA0C00DD
:103C600023FA02F34FEA4303CCE77FEA625307D11A
:103C700050EA01331EBF4FF0FE4040F44000704751
:103C800001F0004040F0FE4040F40000704700BFEB
:103C900080F0004002E000BF81F0004142001FBF01
:103CA0005FEA410392EA030F7FEA226C7FEA236C0A
:103CB0006AD04FEA1262D2EB1363C1BFD2184140FF
:103CC00048404140B8BF5B42192B88BF704710F095
:103CD000004F40F4000020F07F4018BF404211F038
:103CE000004F41F4000121F07F4118BF494292EAA0
:103CF000030F3FD0A2F1010241FA03FC10EB0C00CC
:103D0000C3F1200301FA03F100F0004302D5494258
:103D100060EB4000B0F5000F13D3B0F1807F06D305
:103D200040084FEA310102F10102FE2A51D2B1F1FD
:103D3000004F40EBC25008BF20F0010040EA0300F2
:103D40007047490040EB000010F4000FA2F101029F
:103D5000EDD1B0FA80FCACF1080CB2EB0C0200FA29
:103D60000CF0AABF00EBC25052421843BCBFD04077
:103D70001843704792F0000F81F4000106BF80F4F1
:103D800000000132013BB5E74FEA41037FEA226CB4
:103D900018BF7FEA236C21D092EA030F04D092F07F
:103DA000000F08BF0846704790EA010F1CBF0020B3
:103DB000704712F07F4F04D1400028BF40F0004010
:103DC000704712F100723CBF00F50000704700F030
:103DD000004343F0FE4040F4000070477FEA226257
:103DE00016BF08467FEA23630146420206BF5FEA28
:103DF000412390EA010F40F4800070474FF0000328
:103E000004E000BF10F0004348BF40425FEA000CEE
:103E100008BF704743F0964301464FF000001CE096
:103E200050EA010208BF70474FF000030AE000BFEC
:103E300050EA010208BF704711F0004302D540422A
:103E400061EB41015FEA010C02BF8446014600209C
:103E500043F0B64308BFA3F18053A3F50003BCFAB7
:103E60008CF2083AA3EBC25310DB01FA02FC634464
:103E700000FA02FCC2F12002BCF1004F20FA02F26B
:103E800043EB020008BF20F00100704702F120025E
:103E900001FA02FCC2F1200250EA4C0021FA02F2BF
:103EA00043EB020008BF20EADC7070474FF0FF0CC4
:103EB0001CEAD0521EBF1CEAD15392EA0C0F93EABF
:103EC0000C0F6FD01A4480EA010C400218BF5FEA61
:103ED00041211ED04FF0006343EA501043EA5111D4
:103EE000A0FB01310CF00040B1F5000F3EBF4900CE
:103EF00041EAD3715B0040EA010062F17F02FD2AD2
:103F00001DD8B3F1004F40EBC25008BF20F00100B4
:103F1000704790F0000F0CF0004C08BF49024CEACB
:103F2000502040EA51207F3AC2BFD2F1FF0340EA5D
:103F3000C250704740F400004FF00003013A5DDCCE
:103F400012F1190FDCBF00F000407047C2F100020F
:103F5000410021FA02F1C2F1200200FA02FC5FEAFC
:103F6000310040F1000053EA4C0308BF20EADC7046
:103F7000704792F0000F00F0004C02BF400010F4B8
:103F8000000F013AF9D040EA0C0093F0000F01F065
:103F9000004C02BF490011F4000F013BF9D041EA87
:103FA0000C018FE70CEAD15392EA0C0F18BF93EA89
:103FB0000C0F0AD030F0004C18BF31F0004CD8D1B3
:103FC00080EA010000F00040704790F0000F17BF3A
:103FD00090F0004F084691F0000F91F0004F14D080
:103FE00092EA0C0F01D142020FD193EA0C0F03D1D8
:103FF0004B0218BF084608D180EA010000F00040DB
:1040000040F0FE4040F40000704740F0FE4040F4B5
:10401000400070474FF0FF0C1CEAD0521EBF1CEA54
:10402000D15392EA0C0F93EA0C0F69D0A2EB030272
:1040300080EA010C49024FEA402037D04FF080530C
:1040400043EA111143EA10130CF000408B4238BFD1
:104050005B0042F17D024FF4000C8B4224BF5B1ADF
:1040600040EA0C00B3EB510F24BFA3EB510340EA2D
:104070005C00B3EB910F24BFA3EB910340EA9C00DB
:10408000B3EBD10F24BFA3EBD10340EADC001B014B
:1040900018BF5FEA1C1CE0D1FD2A3FF650AF8B42EF
:1040A00040EBC25008BF20F0010070470CF0004CFC
:1040B0004CEA50207F32C2BFD2F1FF0340EAC25027
:1040C000704740F400004FF00003013A37E792F0E8
:1040D000000F00F0004C02BF400010F4000F013A46
:1040E000F9D040EA0C0093F0000F01F0004C02BF41
:1040F000490011F4000F013BF9D041EA0C0195E7AA
:104100000CEAD15392EA0C0F08D142027FF47DAF42
:1041100093EA0C0F7FF470AF084676E793EA0C0F32
:1041200004D14B023FF44CAF08466EE730F0004C30
:1041300018BF31F0004CCAD130F000427FF45CAFC0
:1041400031F000437FF43CAF5FE700BF4FF0FF3C2E
:1041500006E000BF4FF0010C02E000BF4FF0010C81
:104160004DF804CD4FEA40024FEA41037FEA226C4A
:1041700018BF7FEA236C11D001B052EA530C18BF6C
:1041800090EA010F58BFB2EB030088BFC81738BFD1
:104190006FEAE17018BF40F0010070477FEA226CBF
:1041A00002D15FEA402C05D17FEA236CE4D15FEABB
:1041B000412CE1D05DF8040B704700BF84460846EF
:1041C0006146FFE70FB5FFF7C9FF002848BF10F1B0
:1041D000000F0FBD4DF808EDFFF7F4FF0CBF0120F5
:1041E00000205DF808FB00BF4DF808EDFFF7EAFF7F
:1041F00034BF012000205DF808FB00BF4DF808ED3A
:10420000FFF7E0FF94BF012000205DF808FB00BF2E
:104210004DF808EDFFF7D2FF94BF012000205DF8B4
:1042200008FB00BF4DF808EDFFF7C8FF34BF0120C1
:1042300000205DF808FB00BF4FEA4002B2F1FE4FDC
:104240000FD34FF09E03B3EB12620DD94FEA002358
:1042500043F0004310F0004F23FA02F018BF404231
:1042600070474FF00000704712F1610F01D1420218
:1042700005D110F0004008BF6FF0004070474FF0CC
:1042800000007047094B70B51C680646256C3DB9A7
:104290001A20FDF77BFB1A222064294600F049F919
:1042A000216C3046BDE8704000F002B8AC00002040
:1042B00010B50C46416986B001F26C7103698269E0
:1042C0000491016803EB43030391416802EB42024E
:1042D000029181680191C1682046009104490B4414
:1042E00004490A440449FDF769FB204606B010BDA5
:1042F00005540808F0530808295408080A22002128
:1043000000F03CBA10B5054C13462CB10A460146E4
:104310000220AFF3008010BD204610BD0000000059
:1043200008B5401AFFF7C4F908BD000038B5074BBF
:1043300005461C68E36B1BB92420FDF727FBE063EF
:10434000E16B2846BDE8384000F002B8AC00002020
:104350002DE9F0410C46804600F016FD2146074647
:10436000404600F015FD4669044606F26C76B30738
:1043700005D1642296FBF2F302FB13634BB94FF4B1
:10438000C87596FBF5F305FB1365B5FA85F35B0974
:1043900000E001235F4A302505FB032500F028FBE0
:1043A00000F028FB5C4B1B68F3B17B689E4205D193
:1043B0003968D8F80030FA6941B90AE0304600F0AF
:1043C0006FFA0028F4D14FF0FF330DE0934208DB81
:1043D00001E0934207DABA6B9342ACBF002301239A
:1043E00002E0002300E001232362236A3C20012B2A
:1043F0000CBFF96B396A4FF4616391FBF3F603FB71
:10440000161393FBF0F200FB123061682368891ADF
:10441000A2681B1A921B3B2B23606160A26003DD24
:10442000013161603C3B04E0002B03DA013961603B
:104430003C33236063683B2B03DD0132A2603C3BCD
:1044400004E0002B03DA013AA2603C336360A36806
:10445000172B22DDE269183B0132E261A269A360F9
:104460000132062AC8BF0022A261E2682369013234
:10447000E26055F823108A4246DD01330C2B08BF59
:104480006369A2EB0102E26005BF013300222361F0
:10449000226104BF6361E26136E0002B34DAE26935
:1044A0001833013AE261A269A360013A48BF0622CB
:1044B000A261E268013AE26032BB2369013B01D4A8
:1044C00023611DE00B23236163695A1E12F0030F61
:1044D000626103F26B7305D1642193FBF1F201FB7E
:1044E00012324AB94FF4C87193FBF1F201FB123357
:1044F000B3FA83F35B0900E0012303F5B673E361CC
:10450000236955F82330E36000F073FA2046BDE8D4
:10451000F08100BFB0550808DC07002010B5431E2D
:104520000A44914204D011F8014B03F8014FF8E717
:1045300010BD03460244934202D003F8011BFAE780
:104540007047000038B5124B05461C68A36BD3B901
:104550001820FDF71BFA43F20E33A06303804AF6DE
:10456000CD33438041F2342383804EF26D63C380A8
:104570004DF6EC630381052343810B2383810122E4
:104580000023C0E90423A36B00221D615A6138BDDA
:10459000AC000020024610B513461C780132002CF6
:1045A000FAD1013B11F8012B03F8012F002AF9D1B0
:1045B00010BD10F8012B11F8013B012A28BF9A42C7
:1045C000F7D0D01A7047034611F8012B03F8012BDE
:1045D000002AF9D170470000024B0146186800F02C
:1045E00003B800BFAC00002070B5064608460C4674
:1045F00000F00DF8451C29463046FDF7FFF9064648
:1046000018B12A462146FFF789FF304670BD0346A0
:1046100013F8012B002AFBD1181A0138704730B566
:1046200082B1451E013915F8013F11F8014FA3422F
:1046300006D1EC431444E04201D0002BF3D11C46D8
:10464000181B30BD104630BD034610B542B111F8FD
:10465000014B013A03F8014B002CF7D11A4400E05A
:1046600010BD934202D003F8014BFAE710BD0000E1
:104670002DE9F0470F4680463F48D0F800903D4670
:1046800015F8014B09EB0400407800F0080000F039
:10469000FF0608B12F46F2E72D2C03D1BD1C7C7814
:1046A000012603E02B2C04BF7C78BD1C13B1102B1A
:1046B0000AD15BE0302C57D1287800F0DF00582871
:1046C0004DD16C7810230235002E14BF4FF0004CF2
:1046D0006FF0004CBCFBF3FA0027384603FB1ACC02
:1046E00009EB040E9EF801E01EF0040F01D0303CEF
:1046F0000BE01EF0030E1BD0BEF1010F0CBF4FF0FC
:10470000370E4FF0570ECEEB0404A34210DDB7F185
:10471000FF3F0AD0504506D801D1644503DC03FBB6
:104720000040012701E04FF0FF3715F8014BD7E7B4
:104730007B1C0CD1002E4FF0220314BF4FF0004021
:104740006FF00040C8F800302AB9BDE8F08706B124
:10475000404272B107B1691E1160BDE8F087302494
:10476000002BB1D10823AFE70A23ADE7302CA3D04B
:10477000AAE7BDE8F08700BF4800002013460A46BC
:10478000014602480068FFF773BF00BFAC0000207D
:104790002DE9F0470E4680463B48D0F8009035465C
:1047A00015F8014B09EB0400407800F0080000F018
:1047B000FF0708B12E46F2E72D2C03D1B51C747803
:1047C000012703E02B2C04BF7478B51C13B1102B08
:1047D0000AD153E0302C4FD1287800F0DF00582860
:1047E00045D16C78102302354FF0FF3CBCFBF3FC45
:1047F00003FB0CFA00266FEA0A0A304609EB040EA6
:104800009EF801E01EF0040F01D0303C0BE01EF0DA
:10481000030E1AD0BEF1010F0CBF4FF0370E4FF050
:10482000570ECEEB0404A3420FDD002E08DB6045DB
:1048300006D801D1544503DC03FB0040012601E00A
:104840004FF0FF3615F8014BD8E7002E07DA222388
:10485000C8F800304FF0FF302AB9BDE8F08707B143
:10486000404272B106B1691E1160BDE8F087302484
:10487000002BB9D10823B7E70A23B5E7302CABD01A
:10488000B2E7BDE8F08700BF4800002013460A46A3
:10489000014602480068FFF77BBF00BFAC00002064
:1048A0002DE9F74F044600F06FFA40F2B1739C42D5
:1048B00040F3968040F26D156FF4F663E318A4F2AE
:1048C000B2729B1005FB0235A4F26D726FF06303A8
:1048D00092FBF3F36FF4C8622B44A5184FF4C8722F
:1048E00094FBF2F795FBF2F502FB17471D44642396
:1048F00094FBF3F6B7FA87FE014603FB164600F178
:104900003803019304F0030344604FEA5E1E0093F2
:104910004FF0070C0B7A4A2B0ED14B69009AEC181A
:1049200002B906B927B93B2BD4BF0023012300E00D
:1049300000232344013B3FE0442B02D14B692B442D
:104940003AE0009B2BB9002E0CBFF0464FF0010857
:1049500000E0F046A946244B302202FB0838CC6820
:10496000A8F1040A0123A34204DA5AF804BF013370
:10497000D944F8E709F1040393FBFCFBCBEBCB0A2A
:10498000CAEB030A4B69012CB8BF0124B3EB0A0A36
:104990000B6904F1804403F1FF3304F1FF3448BF95
:1049A0000AF1070AC3EBC30358F824405344A34257
:1049B00001DB073BFBE74B448C690C4A02FB0343DA
:1049C0000C6A234441F81C3F019B9942A2D1C36960
:1049D000826B9342ACBF002301230360012000E0FF
:1049E000002003B0BDE8F08FB055080880510100E9
:1049F00070477047014B186800F002B8AC00002007
:104A00002DE9F04F8DB0074600F0BEF9B0490446DD
:104A1000384600F0B1F9AF4E054660B9AE4BAF4A2B
:104A20001860AF4B1860AF4B30681A605A60FCF7E3
:104A3000B5FF356048E1316879B93068FCF7AEFF01
:104A40002846FFF7E4FD411C3846FCF7D7FF3060ED
:104A500048B12946FFF7B7FD05E0FFF7AAFD00289A
:104A600000F03281E9E72B780AAE3A2B08BF013516
:104A700033469D4A9D492846FCF7A8FF002840F38D
:104A800023810A9BEF18EB5C2D2B03D101374FF0EC
:104A9000FF3503E02B2B08BF013701250DF1200A5C
:104AA0000DF11E0B4FF000080396CDF808A00196FB
:104AB000CDF800B0334607AA8D493846ADF81E80C0
:104AC000ADF82080FCF782FF404540F3FD80BDF843
:104AD0001E20BDF820303C2101FB0233BDF81C2014
:104AE0004FF4616101FB02335D437F4B25627D4DD5
:104AF000DFF808922B600A9B4A461F447B493346E5
:104B00003846FCF763FF404508DC2B68226A6B607F
:104B1000714B1A60724BC3F80080D5E00A9BC5F850
:104B20000490FD18FB5C2D2B03D101354FF0FF37AE
:104B300003E02B2B08BF013501270023ADF81C3003
:104B4000ADF81E30ADF820300A930396CDF808A0DA
:104B50000196CDF800B0334607AA65492846FCF710
:104B600035FF002804DC236AA3F56163E3630EE0EC
:104B7000BDF81E20BDF820303C2101FB0233BDF8FA
:104B80001C204FF4616101FB02335F43E76327465A
:104B90000A9B4FF000091D442B782C2B08BF0135D0
:104BA00095F80080B8F14D0F26D10DF12603029340
:104BB00009AB00930396019633460DF122024D494D
:104BC0002846FCF703FF03287ED1BDF822104B1EB8
:104BD0000B2B79D8BDF82420531E042B74D8BDF8B4
:104BE0002630062B70D887F80880F9603A617B611F
:104BF0000A9B05EB03082AE0B8F14A0F06BF4346BB
:104C0000013544230A220BA928460593FFF73EFEEF
:104C1000DDF82C80ADF826004545059B14D14D23C9
:104C2000B9F1000F07D123720323E360022323614C
:104C3000C4F814900BE084F824300B23A362012302
:104C4000E3620023236302E080B23B7278610223B7
:104C5000ADF81C300023ADF81E30ADF820300A93BB
:104C600098F800302F2B0BD10396CDF808A00196B1
:104C7000CDF800B0334607AA1F494046FCF7A6FE10
:104C8000BDF81E20BDF820303C2101FB0233BDF8E9
:104C90001C204FF4616101FB0233BB610A9D09F1E5
:104CA0000109B9F1020F454407F11C077FF474AF05
:104CB0006068FFF7F5FD226A074B1A60E36B9B1AE9
:104CC000074A18BF012313600DB0BDE8F08F00BF85
:104CD00010560808D8070020E007002013560808DF
:104CE000DC070020B0000020CB0700201756080882
:104CF0003A5608082656080839560808C007002002
:104D00002DE9F84F07468B46904600F0D7F8194B2F
:104D10001D689A463DB15C46234613F8012B42B10B
:104D20003D2A1C46F8D1384600F0C9F80020BDE8FD
:104D3000F88FCBEB0404A94659F8040B0028F2D0F5
:104D400022465946FFF76BFC88B959F8043C1E19F6
:104D50001B5D3D2B0BD1DAF800303846ED1AAD1053
:104D6000C8F8005000F0ABF8701CBDE8F88F4D4655
:104D7000E1E700BFF800002007B501AAFFF7C0FF78
:104D800003B05DF804FB000000487047B800002045
:104D90000268464BF0B592FBF3F403FB1422002AA1
:104DA000BCBF02F5A83202F5C0724FF4616092FBFD
:104DB000F0F300FB13224FF03C008B6092FBF0F30A
:104DC00000FB132204F52F24ACBF04F66C2404F678
:104DD0006B244B600A600723E21C92FBF3F3344D13
:104DE000C3EBC30394FBF5F5D31A48F6AC6240F26B
:104DF000B4578B612F4B304803FB0544B4FBF2F2F0
:104E0000B4FBF7F3B4FBF0F02244D21A48F69466F0
:104E1000131A40F26D12B3FBF6F6B3FBF2F0B3FBDC
:104E2000F7F33444E31A02FB103303EB83029924B3
:104E30000232B2FBF4F25443A61C0524B6FBF4F490
:104E40000A2A34BF02266FF0090616444FF4C872CE
:104E500002FB05055F1C012E98BF0135B3F5997F54
:104E6000A7EB040702D3A3F5997214E0820705D1DA
:104E70006424B0FBF4F204FB12024AB94FF4C87286
:104E8000B0FBF2F402FB1400B0FA80F2520900E029
:104E900001223B331A44A5F26C750023CA614D61AF
:104EA0000E61CF600B620846F0BD00BF805101006B
:104EB000B13A02004FC5FDFFB03A0200704770479B
:104EC00021000808610008088D0008089100080802
:104ED0000000000000000000000000004D03080872
:104EE00091030808390208083000257320533A2539
:104EF000322E306625252C20513A25322E3066255B
:104F000025200041542B4346554E3D31360D0A00B5
:104F1000526573657474696E6720696E2070726F74
:104F200067726573730032352520646F6E650035D6
:104F3000302520646F6E650037352520646F6E65FF
:104F400000446F6E6500436F6E74726F6C20506F1B
:104F5000776572202D20004C6F77204C6576656C4C
:104F6000202D200050756D70204F6E202D20005098
:104F700061727469636C6520506F77657200416C73
:104F800065727473007B22616C65727456616C7516
:104F900065223A25692C202270756D70416D707301
:104FA000223A25692C202270756D704D696E73222E
:104FB0003A25692C202262617474657279223A253F
:104FC000692C202274656D70223A25692C2022728A
:104FD0006573657473223A25697D004D6F6E69743F
:104FE0006F72696E675F4576656E740057616974AC
:104FF000696E6720666F7220526573706F6E73659D
:105000000053746174650049646C65005265737087
:105010006F6E73652054696D656F7574204572728B
:105020006F72004552524F525F5354415445202DE8
:1050300020526573657474696E67004E6F20446119
:10504000746100556269646F747320486F6F6B0000
:10505000526573706F6E736520526563656976651E
:10506000640053657420566572626F7365204D6FDE
:10507000646500436C656172656420566572626F99
:105080007365204D6F64650054696D65207A6F6E9D
:1050900065206F66667365742025690054696D65C7
:1050A000005369676E616C005265736574436F7578
:1050B0006E740054656D706572617475726500522E
:1050C000656C656173650073746174654F664368F0
:1050D000670070756D70416D70730070756D704D07
:1050E000696E757465730052657365742D4652411F
:1050F0004D0050756D70436F6E74726F6C00526529
:105100007365742D436F756E747300486172642DFE
:1051100052657365740053656E642D4E6F7700564B
:105120006572626F73652D4D6F6465005365742DF4
:1051300054696D657A6F6E6500556E6B6E6F776E34
:10514000004E6F6E6500576946690047534D005524
:105150004D54530043444D41004C5445004945458E
:1051600045383032313534004C54455F4341545F4B
:105170004D31004C54455F4341545F4E4231003045
:105180002E3438000000000000000000EB1A080870
:10519000E11A0808D71A08080F030808CB1A0808EC
:1051A000BF1A0808B31A0808AB1A0808A11A080899
:1051B000971A0808531A08080000000000000000B1
:1051C000991B08081B1C08089B1B0808591C080889
:1051D000A11B0808291C0808C51B0808E91B0808AA
:1051E000FCFFFFFF00000000131C08080000000087
:1051F00000000000A11C0808A71C0808EB1C0808F8
:10520000B51C0808A31C08080000000000000000EE
:1052100091230808DB230808B32308089323080810
:10522000BB230808C3230808CB230808D323080896
:105230000000000000000000F1240808E124080834
:10524000E3240808626175640053657269616C004B
:1052500055534253657269616C3100747970650011
:10526000706172616D00636D6400696400686E64F2
:10527000007374726D0066696C74006C766C00610A
:10528000646448616E646C65720072656D6F76650A
:1052900048616E646C657200656E756D48616E6420
:1052A0006C657273004A534F4E53747265616D4C56
:1052B0006F6748616E646C657200617070002530C4
:1052C00031307520005D20002564002C2000282945
:1052D0003A2000205B00636F6465203D2000646518
:1052E0007461696C73203D200066006C6E00666E10
:1052F00000636F64650064657461696C006E6F6E55
:105300006500747261636500696E666F0077617233
:105310006E006572726F720070616E696300616C1D
:105320006C0000000000000000000000912508084B
:105330009B250808A5250808AF250808B9250808F1
:10534000C5250808D1250808DD250808E525080831
:10535000EF250808F92508080000000000000000FB
:105360004528080847280808252B3033643A25309B
:1053700032750025592D256D2D25645425483A2573
:105380004D3A2553257A0061736374696D65000099
:105390000000000000000000A12B0808F12B080805
:1053A000FF2B0808FD260808B52B0808D72B08088E
:1053B000C32B0808EB2B0808A32B0808A72B080809
:1053C0000000000000000000A92C0808F92C0808C3
:1053D000072D0808FD260808E52C0808AB2C08084E
:1053E000C12C0808F32C0808D72C0808A52C08089D
:1053F00053756E4D6F6E5475655765645468754688
:1054000072695361744A616E4665624D61724170A2
:10541000724D61794A756E4A756C41756753657056
:105420004F63744E6F76446563252E337320252EAB
:10543000337325336420252E32643A252E32643AA4
:10544000252E32642025640A000020202020202000
:105450002020202828282828202020202020202024
:105460002020202020202020202088101010101024
:105470001010101010101010101004040404040474
:105480000404040410101010101010414141414157
:1054900041010101010101010101010101010101BC
:1054A000010101010110101010101042424242424D
:1054B000420202020202020202020202020202028C
:1054C0000202020202101010102000000000000072
:1054D00000000000000000000000000000000000CC
:1054E00000000000000000000000000000000000BC
:1054F00000000000000000000000000000000000AC
:10550000000000000000000000000000000000009B
:10551000000000000000000000000000000000008B
:10552000000000000000000000000000000000007B
:10553000000000000000000000000000000000006B
:10554000000000000000000000000000000000005B
:10555000000000000000000000000000000000004B
:10556000000000000000000000000000000000003B
:10557000000000000000000000000000000000002B
:10558000000000000000000000000000000000001B
:10559000000000000000000000000000000000000B
:1055A00000000000000000000000000043000000B8
:1055B0001F0000001C0000001F0000001E00000073
:1055C0001F0000001E0000001F0000001F00000060
:1055D0001E0000001F0000001E0000001F00000051
:1055E0001F0000001D0000001F0000001E00000042
:1055F0001F0000001E0000001F0000001F00000030
:105600001E0000001F0000001E0000001F00000020
:10561000545A00474D54002531305B5E302D392CF3
:105620002B2D5D256E004D256875256E2E25687520
:10563000256E2E256875256E002F256875256E3A16
:10564000256875256E3A256875256E00F1010808F4
:10565000E9120808691B080881250808452608087A
:1056600029280808012A08088D2B0808DD300808B9
:105670000D3108087D31080841320808C532080894
:10568000493308080000000000000000000000008E
:045690000000000016
:10569400307500007F51080801000000E803000095
:1056A400D00700001E000000C8AF000039510808F0
:1056B40041510808465108084B5108084F51080841
:1056C40054510808595108085D51080868510808E0
:1056D400735108088753080849540808000000005B
:1056E4004C5508086C5508088C5508080000000043
:1056F400000000000000000000000000AC55080895
:105704000000000000000000000000000000000095
:105714000000000000000000000000000000000085
:105724000000000000000000000000000000000075
:105734000000000000000000000000004C000020F9
:105744001356080813560808010000000000000062
:105754004A000000000000000000000000000000FB
:105764000000000000000000000000004A000000EB
:105774000000000000000000000000000000000025
:0C5784000000000000000000E40700200E
:10579000FFFFFFFF00000102030405060708090AD6
:1057A0000B0C0D0E0F101112131415161718191AD1
:0857B0001B1C1D1E1F20280018
:0457B80078563412D9
:0400000508080020C7
:00000001FF
